{
  "contractName": "Market",
  "abi": [
    {
      "anonymous": false,
      "inputs": [
        {
          "indexed": false,
          "internalType": "uint256",
          "name": "tokenId",
          "type": "uint256"
        },
        {
          "indexed": false,
          "internalType": "uint256",
          "name": "listingId",
          "type": "uint256"
        },
        {
          "indexed": false,
          "internalType": "uint256",
          "name": "stock",
          "type": "uint256"
        },
        {
          "indexed": false,
          "internalType": "uint256",
          "name": "price",
          "type": "uint256"
        },
        {
          "indexed": false,
          "internalType": "address",
          "name": "lister",
          "type": "address"
        },
        {
          "indexed": false,
          "internalType": "address",
          "name": "token",
          "type": "address"
        },
        {
          "indexed": false,
          "internalType": "string[]",
          "name": "searchTerms",
          "type": "string[]"
        }
      ],
      "name": "Listed",
      "type": "event"
    },
    {
      "inputs": [
        {
          "internalType": "bytes4",
          "name": "interfaceId",
          "type": "bytes4"
        }
      ],
      "name": "supportsInterface",
      "outputs": [
        {
          "internalType": "bool",
          "name": "",
          "type": "bool"
        }
      ],
      "stateMutability": "view",
      "type": "function",
      "constant": true
    },
    {
      "inputs": [
        {
          "internalType": "uint256",
          "name": "tokenId",
          "type": "uint256"
        },
        {
          "internalType": "uint256",
          "name": "listAmount",
          "type": "uint256"
        },
        {
          "internalType": "uint256",
          "name": "listPrice",
          "type": "uint256"
        },
        {
          "internalType": "address",
          "name": "token",
          "type": "address"
        },
        {
          "internalType": "string[]",
          "name": "listingSearchItems",
          "type": "string[]"
        }
      ],
      "name": "listProduct",
      "outputs": [],
      "stateMutability": "nonpayable",
      "type": "function"
    },
    {
      "inputs": [
        {
          "internalType": "address",
          "name": "operator",
          "type": "address"
        },
        {
          "internalType": "address",
          "name": "from",
          "type": "address"
        },
        {
          "internalType": "uint256",
          "name": "id",
          "type": "uint256"
        },
        {
          "internalType": "uint256",
          "name": "value",
          "type": "uint256"
        },
        {
          "internalType": "bytes",
          "name": "data",
          "type": "bytes"
        }
      ],
      "name": "onERC1155Received",
      "outputs": [
        {
          "internalType": "bytes4",
          "name": "",
          "type": "bytes4"
        }
      ],
      "stateMutability": "pure",
      "type": "function",
      "constant": true
    },
    {
      "inputs": [
        {
          "internalType": "address",
          "name": "operator",
          "type": "address"
        },
        {
          "internalType": "address",
          "name": "from",
          "type": "address"
        },
        {
          "internalType": "uint256[]",
          "name": "ids",
          "type": "uint256[]"
        },
        {
          "internalType": "uint256[]",
          "name": "values",
          "type": "uint256[]"
        },
        {
          "internalType": "bytes",
          "name": "data",
          "type": "bytes"
        }
      ],
      "name": "onERC1155BatchReceived",
      "outputs": [
        {
          "internalType": "bytes4",
          "name": "",
          "type": "bytes4"
        }
      ],
      "stateMutability": "pure",
      "type": "function",
      "constant": true
    },
    {
      "inputs": [],
      "name": "getNumOfListings",
      "outputs": [
        {
          "internalType": "uint256",
          "name": "",
          "type": "uint256"
        }
      ],
      "stateMutability": "view",
      "type": "function",
      "constant": true
    },
    {
      "inputs": [
        {
          "internalType": "uint256",
          "name": "_listingId",
          "type": "uint256"
        }
      ],
      "name": "getListingTokenURI",
      "outputs": [
        {
          "internalType": "string",
          "name": "",
          "type": "string"
        }
      ],
      "stateMutability": "view",
      "type": "function",
      "constant": true
    }
  ],
  "bytecode": "0x60806040526000805534801561001457600080fd5b5061154d806100246000396000f3fe608060405234801561001057600080fd5b50600436106100625760003560e01c806301ffc9a71461006757806309c318f814610097578063245e2784146100b5578063bc197c81146100e5578063d57df93114610115578063f23a6e6114610131575b600080fd5b610081600480360381019061007c91906108d4565b610161565b60405161008e919061091c565b60405180910390f35b61009f6101db565b6040516100ac9190610950565b60405180910390f35b6100cf60048036038101906100ca9190610997565b6101e4565b6040516100dc9190610a5d565b60405180910390f35b6100ff60048036038101906100fa9190610b98565b6102b8565b60405161010c9190610c83565b60405180910390f35b61012f600480360381019061012a9190610eaf565b6102d0565b005b61014b60048036038101906101469190610f46565b610681565b6040516101589190610c83565b60405180910390f35b60007f4e2312e0000000000000000000000000000000000000000000000000000000007bffffffffffffffffffffffffffffffffffffffffffffffffffffffff1916827bffffffffffffffffffffffffffffffffffffffffffffffffffffffff191614806101d457506101d382610697565b5b9050919050565b60008054905090565b60606001600083815260200190815260200160002060040160009054906101000a900473ffffffffffffffffffffffffffffffffffffffff1673ffffffffffffffffffffffffffffffffffffffff16630e89341c60016000858152602001908152602001600020600001546040518263ffffffff1660e01b815260040161026b9190610950565b600060405180830381865afa158015610288573d6000803e3d6000fd5b505050506040513d6000823e3d601f19601f820116820180604052508101906102b19190611050565b9050919050565b600063bc197c8160e01b905098975050505050505050565b8173ffffffffffffffffffffffffffffffffffffffff16635b7121f8866040518263ffffffff1660e01b81526004016103099190610950565b602060405180830381865afa158015610326573d6000803e3d6000fd5b505050506040513d601f19601f8201168201806040525081019061034a91906110ae565b73ffffffffffffffffffffffffffffffffffffffff163373ffffffffffffffffffffffffffffffffffffffff16146103b7576040517f08c379a00000000000000000000000000000000000000000000000000000000081526004016103ae90611173565b60405180910390fd5b8173ffffffffffffffffffffffffffffffffffffffff1662fdd58e33876040518363ffffffff1660e01b81526004016103f19291906111a2565b602060405180830381865afa15801561040e573d6000803e3d6000fd5b505050506040513d601f19601f8201168201806040525081019061043291906111e0565b841115610474576040517f08c379a000000000000000000000000000000000000000000000000000000000815260040161046b90611259565b60405180910390fd5b8173ffffffffffffffffffffffffffffffffffffffff1663fe99049a333088886040518563ffffffff1660e01b81526004016104b39493929190611279565b600060405180830381600087803b1580156104cd57600080fd5b505af11580156104e1573d6000803e3d6000fd5b505050506000808154809291906104f7906112ed565b91905055506040518060c001604052808681526020018581526020018481526020013373ffffffffffffffffffffffffffffffffffffffff1681526020018373ffffffffffffffffffffffffffffffffffffffff16815260200182815250600160008054815260200190815260200160002060008201518160000155602082015181600101556040820151816002015560608201518160030160006101000a81548173ffffffffffffffffffffffffffffffffffffffff021916908373ffffffffffffffffffffffffffffffffffffffff16021790555060808201518160040160006101000a81548173ffffffffffffffffffffffffffffffffffffffff021916908373ffffffffffffffffffffffffffffffffffffffff16021790555060a0820151816005019080519060200190610631929190610701565b509050507fa0f7de1dff4900dc0b5d0a8ec127d68f81b11563127548dc1f3d9ed90dff77bd8560005486863387876040516106729796959493929190611441565b60405180910390a15050505050565b600063f23a6e6160e01b90509695505050505050565b60007f01ffc9a7000000000000000000000000000000000000000000000000000000007bffffffffffffffffffffffffffffffffffffffffffffffffffffffff1916827bffffffffffffffffffffffffffffffffffffffffffffffffffffffff1916149050919050565b828054828255906000526020600020908101928215610750579160200282015b8281111561074f57825182908051906020019061073f929190610761565b5091602001919060010190610721565b5b50905061075d91906107e7565b5090565b82805461076d906114e6565b90600052602060002090601f01602090048101928261078f57600085556107d6565b82601f106107a857805160ff19168380011785556107d6565b828001600101855582156107d6579182015b828111156107d55782518255916020019190600101906107ba565b5b5090506107e3919061080b565b5090565b5b8082111561080757600081816107fe9190610828565b506001016107e8565b5090565b5b8082111561082457600081600090555060010161080c565b5090565b508054610834906114e6565b6000825580601f106108465750610865565b601f016020900490600052602060002090810190610864919061080b565b5b50565b6000604051905090565b600080fd5b600080fd5b60007fffffffff0000000000000000000000000000000000000000000000000000000082169050919050565b6108b18161087c565b81146108bc57600080fd5b50565b6000813590506108ce816108a8565b92915050565b6000602082840312156108ea576108e9610872565b5b60006108f8848285016108bf565b91505092915050565b60008115159050919050565b61091681610901565b82525050565b6000602082019050610931600083018461090d565b92915050565b6000819050919050565b61094a81610937565b82525050565b60006020820190506109656000830184610941565b92915050565b61097481610937565b811461097f57600080fd5b50565b6000813590506109918161096b565b92915050565b6000602082840312156109ad576109ac610872565b5b60006109bb84828501610982565b91505092915050565b600081519050919050565b600082825260208201905092915050565b60005b838110156109fe5780820151818401526020810190506109e3565b83811115610a0d576000848401525b50505050565b6000601f19601f8301169050919050565b6000610a2f826109c4565b610a3981856109cf565b9350610a498185602086016109e0565b610a5281610a13565b840191505092915050565b60006020820190508181036000830152610a778184610a24565b905092915050565b600073ffffffffffffffffffffffffffffffffffffffff82169050919050565b6000610aaa82610a7f565b9050919050565b610aba81610a9f565b8114610ac557600080fd5b50565b600081359050610ad781610ab1565b92915050565b600080fd5b600080fd5b600080fd5b60008083601f840112610b0257610b01610add565b5b8235905067ffffffffffffffff811115610b1f57610b1e610ae2565b5b602083019150836020820283011115610b3b57610b3a610ae7565b5b9250929050565b60008083601f840112610b5857610b57610add565b5b8235905067ffffffffffffffff811115610b7557610b74610ae2565b5b602083019150836001820283011115610b9157610b90610ae7565b5b9250929050565b60008060008060008060008060a0898b031215610bb857610bb7610872565b5b6000610bc68b828c01610ac8565b9850506020610bd78b828c01610ac8565b975050604089013567ffffffffffffffff811115610bf857610bf7610877565b5b610c048b828c01610aec565b9650965050606089013567ffffffffffffffff811115610c2757610c26610877565b5b610c338b828c01610aec565b9450945050608089013567ffffffffffffffff811115610c5657610c55610877565b5b610c628b828c01610b42565b92509250509295985092959890939650565b610c7d8161087c565b82525050565b6000602082019050610c986000830184610c74565b92915050565b7f4e487b7100000000000000000000000000000000000000000000000000000000600052604160045260246000fd5b610cd682610a13565b810181811067ffffffffffffffff82111715610cf557610cf4610c9e565b5b80604052505050565b6000610d08610868565b9050610d148282610ccd565b919050565b600067ffffffffffffffff821115610d3457610d33610c9e565b5b602082029050602081019050919050565b600080fd5b600067ffffffffffffffff821115610d6557610d64610c9e565b5b610d6e82610a13565b9050602081019050919050565b82818337600083830152505050565b6000610d9d610d9884610d4a565b610cfe565b905082815260208101848484011115610db957610db8610d45565b5b610dc4848285610d7b565b509392505050565b600082601f830112610de157610de0610add565b5b8135610df1848260208601610d8a565b91505092915050565b6000610e0d610e0884610d19565b610cfe565b90508083825260208201905060208402830185811115610e3057610e2f610ae7565b5b835b81811015610e7757803567ffffffffffffffff811115610e5557610e54610add565b5b808601610e628982610dcc565b85526020850194505050602081019050610e32565b5050509392505050565b600082601f830112610e9657610e95610add565b5b8135610ea6848260208601610dfa565b91505092915050565b600080600080600060a08688031215610ecb57610eca610872565b5b6000610ed988828901610982565b9550506020610eea88828901610982565b9450506040610efb88828901610982565b9350506060610f0c88828901610ac8565b925050608086013567ffffffffffffffff811115610f2d57610f2c610877565b5b610f3988828901610e81565b9150509295509295909350565b60008060008060008060a08789031215610f6357610f62610872565b5b6000610f7189828a01610ac8565b9650506020610f8289828a01610ac8565b9550506040610f9389828a01610982565b9450506060610fa489828a01610982565b935050608087013567ffffffffffffffff811115610fc557610fc4610877565b5b610fd189828a01610b42565b92509250509295509295509295565b6000610ff3610fee84610d4a565b610cfe565b90508281526020810184848401111561100f5761100e610d45565b5b61101a8482856109e0565b509392505050565b600082601f83011261103757611036610add565b5b8151611047848260208601610fe0565b91505092915050565b60006020828403121561106657611065610872565b5b600082015167ffffffffffffffff81111561108457611083610877565b5b61109084828501611022565b91505092915050565b6000815190506110a881610ab1565b92915050565b6000602082840312156110c4576110c3610872565b5b60006110d284828501611099565b91505092915050565b7f546f6b656e2063616e206f6e6c79206265206c6973746564206279206d696e7460008201527f657220617320796f752063616e6e6f742062757920616e642072656c6973742060208201527f746f6b656e000000000000000000000000000000000000000000000000000000604082015250565b600061115d6045836109cf565b9150611168826110db565b606082019050919050565b6000602082019050818103600083015261118c81611150565b9050919050565b61119c81610a9f565b82525050565b60006040820190506111b76000830185611193565b6111c46020830184610941565b9392505050565b6000815190506111da8161096b565b92915050565b6000602082840312156111f6576111f5610872565b5b6000611204848285016111cb565b91505092915050565b7f596f7520646f206e6f74206861766520656e6f75676820746f6b656e73000000600082015250565b6000611243601d836109cf565b915061124e8261120d565b602082019050919050565b6000602082019050818103600083015261127281611236565b9050919050565b600060808201905061128e6000830187611193565b61129b6020830186611193565b6112a86040830185610941565b6112b56060830184610941565b95945050505050565b7f4e487b7100000000000000000000000000000000000000000000000000000000600052601160045260246000fd5b60006112f882610937565b91507fffffffffffffffffffffffffffffffffffffffffffffffffffffffffffffffff820361132a576113296112be565b5b600182019050919050565b600081519050919050565b600082825260208201905092915050565b6000819050602082019050919050565b600082825260208201905092915050565b600061137d826109c4565b6113878185611361565b93506113978185602086016109e0565b6113a081610a13565b840191505092915050565b60006113b78383611372565b905092915050565b6000602082019050919050565b60006113d782611335565b6113e18185611340565b9350836020820285016113f385611351565b8060005b8581101561142f578484038952815161141085826113ab565b945061141b836113bf565b925060208a019950506001810190506113f7565b50829750879550505050505092915050565b600060e082019050611456600083018a610941565b6114636020830189610941565b6114706040830188610941565b61147d6060830187610941565b61148a6080830186611193565b61149760a0830185611193565b81810360c08301526114a981846113cc565b905098975050505050505050565b7f4e487b7100000000000000000000000000000000000000000000000000000000600052602260045260246000fd5b600060028204905060018216806114fe57607f821691505b602082108103611511576115106114b7565b5b5091905056fea264697066735822122006d95ebbc63681a9d018758315ae7420940d71d332caf51cb880a5e962e6406864736f6c634300080d0033",
  "immutableReferences": {},
  "source": "// SPDX-License-Identifier: MIT\r\npragma solidity ^0.8.9;\r\n\r\nimport \"./SaleTokens.sol\";\r\nimport \"./Interfaces/IMarket.sol\";\r\nimport \"@openzeppelin/contracts/token/ERC1155/utils/ERC1155Receiver.sol\";\r\n\r\ncontract Market is IMarket, ERC1155Receiver {\r\n    enum ListingStatus {\r\n        Active,\r\n        SoldOut,\r\n        Canceled\r\n    }\r\n\r\n    struct Listing {\r\n        uint256 tokenId;\r\n        uint256 stock;\r\n        uint256 price;\r\n        address seller;\r\n        address token;\r\n        string[] searchItems;\r\n    }\r\n\r\n    uint256 listingId = 0;\r\n    mapping(uint256 => Listing) private listings;\r\n\r\n    function listProduct(\r\n        uint256 tokenId,\r\n        uint256 listAmount,\r\n        uint256 listPrice,\r\n        address token,\r\n        string[] memory listingSearchItems\r\n    ) public override {\r\n        require(\r\n            msg.sender == SaleTokens(token).getMinter(tokenId),\r\n            \"Token can only be listed by minter as you cannot buy and relist token\"\r\n        );\r\n        require(\r\n            listAmount <= SaleTokens(token).balanceOf(msg.sender, tokenId),\r\n            \"You do not have enough tokens\"\r\n        );\r\n\r\n        SaleTokens(token).transferFrom(\r\n            msg.sender,\r\n            address(this),\r\n            tokenId,\r\n            listAmount\r\n        );\r\n\r\n        listingId++;\r\n        listings[listingId] = Listing(\r\n            tokenId,\r\n            listAmount,\r\n            listPrice,\r\n            msg.sender,\r\n            token,\r\n            listingSearchItems\r\n        );\r\n        emit Listed(\r\n            tokenId,\r\n            listingId,\r\n            listAmount,\r\n            listPrice,\r\n            msg.sender,\r\n            token,\r\n            listingSearchItems\r\n        );\r\n    }\r\n\r\n    function onERC1155Received(\r\n        address operator,\r\n        address from,\r\n        uint256 id,\r\n        uint256 value,\r\n        bytes calldata data\r\n    ) external pure override returns (bytes4) {\r\n        return 0xf23a6e61;\r\n    }\r\n\r\n    function onERC1155BatchReceived(\r\n        address operator,\r\n        address from,\r\n        uint256[] calldata ids,\r\n        uint256[] calldata values,\r\n        bytes calldata data\r\n    ) external pure override returns (bytes4) {\r\n        return 0xbc197c81;\r\n    }\r\n\r\n    function getNumOfListings() public view override returns (uint256) {\r\n        return listingId;\r\n    }\r\n\r\n    function getListingTokenURI(uint256 _listingId) public view override returns (string memory) {\r\n        return SaleTokens(listings[_listingId].token).uri(listings[_listingId].tokenId);\r\n    }\r\n}\r\n",
  "sourcePath": "C:\\Code\\MintMart\\contracts\\Market.sol",
  "compiler": {
    "name": "solc",
    "version": "0.8.13+commit.abaa5c0e.Emscripten.clang"
  },
  "schemaVersion": "3.4.4",
  "updatedAt": "2023-07-25T05:24:06.799Z",
  "networkType": "ethereum",
  "devdoc": {
    "kind": "dev",
    "methods": {
      "onERC1155BatchReceived(address,address,uint256[],uint256[],bytes)": {
        "details": "Handles the receipt of a multiple ERC1155 token types. This function is called at the end of a `safeBatchTransferFrom` after the balances have been updated. NOTE: To accept the transfer(s), this must return `bytes4(keccak256(\"onERC1155BatchReceived(address,address,uint256[],uint256[],bytes)\"))` (i.e. 0xbc197c81, or its own function selector).",
        "params": {
          "data": "Additional data with no specified format",
          "from": "The address which previously owned the token",
          "ids": "An array containing ids of each token being transferred (order and length must match values array)",
          "operator": "The address which initiated the batch transfer (i.e. msg.sender)",
          "values": "An array containing amounts of each token being transferred (order and length must match ids array)"
        },
        "returns": {
          "_0": "`bytes4(keccak256(\"onERC1155BatchReceived(address,address,uint256[],uint256[],bytes)\"))` if transfer is allowed"
        }
      },
      "onERC1155Received(address,address,uint256,uint256,bytes)": {
        "details": "Handles the receipt of a single ERC1155 token type. This function is called at the end of a `safeTransferFrom` after the balance has been updated. NOTE: To accept the transfer, this must return `bytes4(keccak256(\"onERC1155Received(address,address,uint256,uint256,bytes)\"))` (i.e. 0xf23a6e61, or its own function selector).",
        "params": {
          "data": "Additional data with no specified format",
          "from": "The address which previously owned the token",
          "id": "The ID of the token being transferred",
          "operator": "The address which initiated the transfer (i.e. msg.sender)",
          "value": "The amount of tokens being transferred"
        },
        "returns": {
          "_0": "`bytes4(keccak256(\"onERC1155Received(address,address,uint256,uint256,bytes)\"))` if transfer is allowed"
        }
      },
      "supportsInterface(bytes4)": {
        "details": "See {IERC165-supportsInterface}."
      }
    },
    "version": 1
  },
  "userdoc": {
    "kind": "user",
    "methods": {},
    "version": 1
  }
}