{
  "contractName": "Market",
  "abi": [
    {
      "anonymous": false,
      "inputs": [
        {
          "indexed": false,
          "internalType": "uint256",
          "name": "listingId",
          "type": "uint256"
        },
        {
          "indexed": false,
          "internalType": "address",
          "name": "seller",
          "type": "address"
        }
      ],
      "name": "Cancel",
      "type": "event"
    },
    {
      "anonymous": false,
      "inputs": [
        {
          "indexed": false,
          "internalType": "uint256",
          "name": "listingId",
          "type": "uint256"
        },
        {
          "indexed": false,
          "internalType": "address",
          "name": "seller",
          "type": "address"
        },
        {
          "indexed": false,
          "internalType": "address",
          "name": "token",
          "type": "address"
        },
        {
          "indexed": false,
          "internalType": "uint256",
          "name": "tokenId",
          "type": "uint256"
        },
        {
          "indexed": false,
          "internalType": "uint256",
          "name": "stock",
          "type": "uint256"
        },
        {
          "indexed": false,
          "internalType": "uint256",
          "name": "price",
          "type": "uint256"
        },
        {
          "indexed": false,
          "internalType": "string[]",
          "name": "searchTerms",
          "type": "string[]"
        }
      ],
      "name": "Listed",
      "type": "event"
    },
    {
      "anonymous": false,
      "inputs": [
        {
          "indexed": false,
          "internalType": "uint256",
          "name": "listingId",
          "type": "uint256"
        },
        {
          "indexed": false,
          "internalType": "address",
          "name": "buyer",
          "type": "address"
        },
        {
          "indexed": false,
          "internalType": "address",
          "name": "token",
          "type": "address"
        },
        {
          "indexed": false,
          "internalType": "uint256",
          "name": "tokenId",
          "type": "uint256"
        },
        {
          "indexed": false,
          "internalType": "uint256",
          "name": "stock",
          "type": "uint256"
        },
        {
          "indexed": false,
          "internalType": "uint256",
          "name": "price",
          "type": "uint256"
        }
      ],
      "name": "Sale",
      "type": "event"
    },
    {
      "inputs": [
        {
          "internalType": "address",
          "name": "token",
          "type": "address"
        },
        {
          "internalType": "uint256",
          "name": "tokenId",
          "type": "uint256"
        },
        {
          "internalType": "uint256",
          "name": "price",
          "type": "uint256"
        },
        {
          "internalType": "uint256",
          "name": "stock",
          "type": "uint256"
        },
        {
          "internalType": "string[]",
          "name": "searchTerms",
          "type": "string[]"
        }
      ],
      "name": "listToken",
      "outputs": [],
      "stateMutability": "nonpayable",
      "type": "function"
    },
    {
      "inputs": [
        {
          "internalType": "uint256",
          "name": "listingId",
          "type": "uint256"
        }
      ],
      "name": "getListing",
      "outputs": [
        {
          "components": [
            {
              "internalType": "enum Market.ListingStatus",
              "name": "status",
              "type": "uint8"
            },
            {
              "internalType": "address",
              "name": "seller",
              "type": "address"
            },
            {
              "internalType": "address",
              "name": "token",
              "type": "address"
            },
            {
              "internalType": "uint256",
              "name": "tokenId",
              "type": "uint256"
            },
            {
              "internalType": "uint256",
              "name": "stock",
              "type": "uint256"
            },
            {
              "internalType": "uint256",
              "name": "price",
              "type": "uint256"
            },
            {
              "internalType": "string[]",
              "name": "searchTerms",
              "type": "string[]"
            }
          ],
          "internalType": "struct Market.Listing",
          "name": "",
          "type": "tuple"
        }
      ],
      "stateMutability": "view",
      "type": "function",
      "constant": true
    },
    {
      "inputs": [
        {
          "internalType": "uint256",
          "name": "listingId",
          "type": "uint256"
        }
      ],
      "name": "buyToken",
      "outputs": [],
      "stateMutability": "payable",
      "type": "function",
      "payable": true
    },
    {
      "inputs": [
        {
          "internalType": "uint256",
          "name": "listingId",
          "type": "uint256"
        }
      ],
      "name": "cancel",
      "outputs": [],
      "stateMutability": "nonpayable",
      "type": "function"
    }
  ],
  "bytecode": "0x60806040526000805534801561001457600080fd5b50611973806100246000396000f3fe60806040526004361061003f5760003560e01c8063107a274a146100445780632d296bf11461008157806340e58ee51461009d5780635f65d754146100c6575b600080fd5b34801561005057600080fd5b5061006b60048036038101906100669190610d79565b6100ef565b6040516100789190611064565b60405180910390f35b61009b60048036038101906100969190610d79565b6102fa565b005b3480156100a957600080fd5b506100c460048036038101906100bf9190610d79565b610631565b005b3480156100d257600080fd5b506100ed60048036038101906100e89190611117565b610877565b005b6100f7610b4d565b600160008381526020019081526020016000206040518060e00160405290816000820160009054906101000a900460ff16600281111561013a57610139610da6565b5b600281111561014c5761014b610da6565b5b81526020016000820160019054906101000a900473ffffffffffffffffffffffffffffffffffffffff1673ffffffffffffffffffffffffffffffffffffffff1673ffffffffffffffffffffffffffffffffffffffff1681526020016001820160009054906101000a900473ffffffffffffffffffffffffffffffffffffffff1673ffffffffffffffffffffffffffffffffffffffff1673ffffffffffffffffffffffffffffffffffffffff16815260200160028201548152602001600382015481526020016004820154815260200160058201805480602002602001604051908101604052809291908181526020016000905b828210156102eb57838290600052602060002001805461025e906111e0565b80601f016020809104026020016040519081016040528092919081815260200182805461028a906111e0565b80156102d75780601f106102ac576101008083540402835291602001916102d7565b820191906000526020600020905b8154815290600101906020018083116102ba57829003601f168201915b50505050508152602001906001019061023f565b50505050815250509050919050565b60006001600083815260200190815260200160002090508060000160019054906101000a900473ffffffffffffffffffffffffffffffffffffffff1673ffffffffffffffffffffffffffffffffffffffff163373ffffffffffffffffffffffffffffffffffffffff16036103a3576040517f08c379a000000000000000000000000000000000000000000000000000000000815260040161039a9061126e565b60405180910390fd5b600060028111156103b7576103b6610da6565b5b8160000160009054906101000a900460ff1660028111156103db576103da610da6565b5b1461041b576040517f08c379a0000000000000000000000000000000000000000000000000000000008152600401610412906112da565b60405180910390fd5b8060040154341015610462576040517f08c379a000000000000000000000000000000000000000000000000000000000815260040161045990611346565b60405180910390fd5b80600301600081548092919061047790611395565b919050555060008160030154036104b65760018160000160006101000a81548160ff021916908360028111156104b0576104af610da6565b5b02179055505b8060010160009054906101000a900473ffffffffffffffffffffffffffffffffffffffff1673ffffffffffffffffffffffffffffffffffffffff166323b872dd303384600201546040518463ffffffff1660e01b815260040161051b939291906113dc565b600060405180830381600087803b15801561053557600080fd5b505af1158015610549573d6000803e3d6000fd5b505050508060000160019054906101000a900473ffffffffffffffffffffffffffffffffffffffff1673ffffffffffffffffffffffffffffffffffffffff166108fc82600401549081150290604051600060405180830381858888f193505050501580156105bb573d6000803e3d6000fd5b507fd54b56881e7d8e485ae13972347facc2cbdf328603b65c7af6c972cf81a5393382338360010160009054906101000a900473ffffffffffffffffffffffffffffffffffffffff1684600201548560030154866004015460405161062596959493929190611413565b60405180910390a15050565b60006001600083815260200190815260200160002090508060000160019054906101000a900473ffffffffffffffffffffffffffffffffffffffff1673ffffffffffffffffffffffffffffffffffffffff163373ffffffffffffffffffffffffffffffffffffffff16146106da576040517f08c379a00000000000000000000000000000000000000000000000000000000081526004016106d1906114c0565b60405180910390fd5b600060028111156106ee576106ed610da6565b5b8160000160009054906101000a900460ff16600281111561071257610711610da6565b5b14610752576040517f08c379a0000000000000000000000000000000000000000000000000000000008152600401610749906112da565b60405180910390fd5b60028160000160006101000a81548160ff0219169083600281111561077a57610779610da6565b5b02179055508060010160009054906101000a900473ffffffffffffffffffffffffffffffffffffffff1673ffffffffffffffffffffffffffffffffffffffff166323b872dd303384600201546040518463ffffffff1660e01b81526004016107e4939291906113dc565b600060405180830381600087803b1580156107fe57600080fd5b505af1158015610812573d6000803e3d6000fd5b505050507f8dd3c361eb2366ff27c2db0eb07b9261f1d052570742ab8c9a0c326f37aa576d828260000160019054906101000a900473ffffffffffffffffffffffffffffffffffffffff1660405161086b9291906114e0565b60405180910390a15050565b8573ffffffffffffffffffffffffffffffffffffffff1663095ea7b330876040518363ffffffff1660e01b81526004016108b2929190611509565b600060405180830381600087803b1580156108cc57600080fd5b505af11580156108e0573d6000803e3d6000fd5b505050508573ffffffffffffffffffffffffffffffffffffffff166323b872dd3330886040518463ffffffff1660e01b8152600401610921939291906113dc565b600060405180830381600087803b15801561093b57600080fd5b505af115801561094f573d6000803e3d6000fd5b5050505060006040518060e001604052806000600281111561097457610973610da6565b5b81526020013373ffffffffffffffffffffffffffffffffffffffff1681526020018873ffffffffffffffffffffffffffffffffffffffff1681526020018781526020018581526020018681526020018484906109d09190611715565b81525090506000808154809291906109e79061172a565b919050555080600160008054815260200190815260200160002060008201518160000160006101000a81548160ff02191690836002811115610a2c57610a2b610da6565b5b021790555060208201518160000160016101000a81548173ffffffffffffffffffffffffffffffffffffffff021916908373ffffffffffffffffffffffffffffffffffffffff16021790555060408201518160010160006101000a81548173ffffffffffffffffffffffffffffffffffffffff021916908373ffffffffffffffffffffffffffffffffffffffff160217905550606082015181600201556080820151816003015560a0820151816004015560c0820151816005019080519060200190610af9929190610bc8565b509050507f5c2a5df72b693a7c12af119c124ca8d74c052dce64ba9b1f4e48523e125cae50600054338989888a8989604051610b3c9897969594939291906118c5565b60405180910390a150505050505050565b6040518060e0016040528060006002811115610b6c57610b6b610da6565b5b8152602001600073ffffffffffffffffffffffffffffffffffffffff168152602001600073ffffffffffffffffffffffffffffffffffffffff168152602001600081526020016000815260200160008152602001606081525090565b828054828255906000526020600020908101928215610c17579160200282015b82811115610c16578251829080519060200190610c06929190610c28565b5091602001919060010190610be8565b5b509050610c249190610cae565b5090565b828054610c34906111e0565b90600052602060002090601f016020900481019282610c565760008555610c9d565b82601f10610c6f57805160ff1916838001178555610c9d565b82800160010185558215610c9d579182015b82811115610c9c578251825591602001919060010190610c81565b5b509050610caa9190610cd2565b5090565b5b80821115610cce5760008181610cc59190610cef565b50600101610caf565b5090565b5b80821115610ceb576000816000905550600101610cd3565b5090565b508054610cfb906111e0565b6000825580601f10610d0d5750610d2c565b601f016020900490600052602060002090810190610d2b9190610cd2565b5b50565b6000604051905090565b600080fd5b600080fd5b6000819050919050565b610d5681610d43565b8114610d6157600080fd5b50565b600081359050610d7381610d4d565b92915050565b600060208284031215610d8f57610d8e610d39565b5b6000610d9d84828501610d64565b91505092915050565b7f4e487b7100000000000000000000000000000000000000000000000000000000600052602160045260246000fd5b60038110610de657610de5610da6565b5b50565b6000819050610df782610dd5565b919050565b6000610e0782610de9565b9050919050565b610e1781610dfc565b82525050565b600073ffffffffffffffffffffffffffffffffffffffff82169050919050565b6000610e4882610e1d565b9050919050565b610e5881610e3d565b82525050565b610e6781610d43565b82525050565b600081519050919050565b600082825260208201905092915050565b6000819050602082019050919050565b600081519050919050565b600082825260208201905092915050565b60005b83811015610ed3578082015181840152602081019050610eb8565b83811115610ee2576000848401525b50505050565b6000601f19601f8301169050919050565b6000610f0482610e99565b610f0e8185610ea4565b9350610f1e818560208601610eb5565b610f2781610ee8565b840191505092915050565b6000610f3e8383610ef9565b905092915050565b6000602082019050919050565b6000610f5e82610e6d565b610f688185610e78565b935083602082028501610f7a85610e89565b8060005b85811015610fb65784840389528151610f978582610f32565b9450610fa283610f46565b925060208a01995050600181019050610f7e565b50829750879550505050505092915050565b600060e083016000830151610fe06000860182610e0e565b506020830151610ff36020860182610e4f565b5060408301516110066040860182610e4f565b5060608301516110196060860182610e5e565b50608083015161102c6080860182610e5e565b5060a083015161103f60a0860182610e5e565b5060c083015184820360c08601526110578282610f53565b9150508091505092915050565b6000602082019050818103600083015261107e8184610fc8565b905092915050565b61108f81610e3d565b811461109a57600080fd5b50565b6000813590506110ac81611086565b92915050565b600080fd5b600080fd5b600080fd5b60008083601f8401126110d7576110d66110b2565b5b8235905067ffffffffffffffff8111156110f4576110f36110b7565b5b6020830191508360208202830111156111105761110f6110bc565b5b9250929050565b60008060008060008060a0878903121561113457611133610d39565b5b600061114289828a0161109d565b965050602061115389828a01610d64565b955050604061116489828a01610d64565b945050606061117589828a01610d64565b935050608087013567ffffffffffffffff81111561119657611195610d3e565b5b6111a289828a016110c1565b92509250509295509295509295565b7f4e487b7100000000000000000000000000000000000000000000000000000000600052602260045260246000fd5b600060028204905060018216806111f857607f821691505b60208210810361120b5761120a6111b1565b5b50919050565b600082825260208201905092915050565b7f53656c6c65722063616e6e6f7420626520627579657200000000000000000000600082015250565b6000611258601683611211565b915061126382611222565b602082019050919050565b600060208201905081810360008301526112878161124b565b9050919050565b7f4c697374696e67206973206e6f74206163746976650000000000000000000000600082015250565b60006112c4601583611211565b91506112cf8261128e565b602082019050919050565b600060208201905081810360008301526112f3816112b7565b9050919050565b7f496e73756666696369656e74207061796d656e74000000000000000000000000600082015250565b6000611330601483611211565b915061133b826112fa565b602082019050919050565b6000602082019050818103600083015261135f81611323565b9050919050565b7f4e487b7100000000000000000000000000000000000000000000000000000000600052601160045260246000fd5b60006113a082610d43565b9150600082036113b3576113b2611366565b5b600182039050919050565b6113c781610e3d565b82525050565b6113d681610d43565b82525050565b60006060820190506113f160008301866113be565b6113fe60208301856113be565b61140b60408301846113cd565b949350505050565b600060c08201905061142860008301896113cd565b61143560208301886113be565b61144260408301876113be565b61144f60608301866113cd565b61145c60808301856113cd565b61146960a08301846113cd565b979650505050505050565b7f4f6e6c792073656c6c65722063616e2063616e63656c206c697374696e670000600082015250565b60006114aa601e83611211565b91506114b582611474565b602082019050919050565b600060208201905081810360008301526114d98161149d565b9050919050565b60006040820190506114f560008301856113cd565b61150260208301846113be565b9392505050565b600060408201905061151e60008301856113be565b61152b60208301846113cd565b9392505050565b7f4e487b7100000000000000000000000000000000000000000000000000000000600052604160045260246000fd5b61156a82610ee8565b810181811067ffffffffffffffff8211171561158957611588611532565b5b80604052505050565b600061159c610d2f565b90506115a88282611561565b919050565b600067ffffffffffffffff8211156115c8576115c7611532565b5b602082029050602081019050919050565b600080fd5b600067ffffffffffffffff8211156115f9576115f8611532565b5b61160282610ee8565b9050602081019050919050565b82818337600083830152505050565b600061163161162c846115de565b611592565b90508281526020810184848401111561164d5761164c6115d9565b5b61165884828561160f565b509392505050565b600082601f830112611675576116746110b2565b5b813561168584826020860161161e565b91505092915050565b60006116a161169c846115ad565b611592565b905080838252602082019050602084028301858111156116c4576116c36110bc565b5b835b8181101561170b57803567ffffffffffffffff8111156116e9576116e86110b2565b5b8086016116f68982611660565b855260208501945050506020810190506116c6565b5050509392505050565b600061172236848461168e565b905092915050565b600061173582610d43565b91507fffffffffffffffffffffffffffffffffffffffffffffffffffffffffffffffff820361176757611766611366565b5b600182019050919050565b600082825260208201905092915050565b6000819050919050565b60006117998385610ea4565b93506117a683858461160f565b6117af83610ee8565b840190509392505050565b60006117c784848461178d565b90509392505050565b600080fd5b600080fd5b600080fd5b600080833560016020038436030381126117fc576117fb6117da565b5b83810192508235915060208301925067ffffffffffffffff821115611824576118236117d0565b5b60018202360384131561183a576118396117d5565b5b509250929050565b6000602082019050919050565b600061185b8385611772565b93508360208402850161186d84611783565b8060005b878110156118b357848403895261188882846117df565b6118938682846117ba565b955061189e84611842565b935060208b019a505050600181019050611871565b50829750879450505050509392505050565b600060e0820190506118da600083018b6113cd565b6118e7602083018a6113be565b6118f460408301896113be565b61190160608301886113cd565b61190e60808301876113cd565b61191b60a08301866113cd565b81810360c083015261192e81848661184f565b9050999850505050505050505056fea2646970667358221220f904113818b26a4bdf36eb3e98f02701fc1cf982e90719695e510d2303eef18f64736f6c634300080d0033",
  "immutableReferences": {},
  "source": "// SPDX-License-Identifier: MIT\r\npragma solidity ^0.8.9;\r\n\r\nimport \"@openzeppelin/contracts/token/ERC721/IERC721.sol\";\r\nimport \"@openzeppelin/contracts/token/ERC721/ERC721.sol\";\r\n\r\ncontract Market {\r\n\tenum ListingStatus {\r\n\t\tActive,\r\n\t\tOutOfStock,\r\n\t\tCancelled\r\n\t}\r\n\r\n\tstruct Listing {\r\n\t\tListingStatus status;\r\n\t\taddress seller;\r\n\t\taddress token;\r\n\t\tuint tokenId;\r\n\t\tuint stock;\r\n\t\tuint price;\r\n\t\tstring[] searchTerms;\r\n\t}\r\n\r\n\tevent Listed(\r\n\t\tuint listingId,\r\n\t\taddress seller,\r\n\t\taddress token,\r\n\t\tuint tokenId,\r\n\t\tuint stock,\r\n\t\tuint price,\r\n\t\tstring[] searchTerms\r\n\t);\r\n\r\n\tevent Sale(\r\n\t\tuint listingId,\r\n\t\taddress buyer,\r\n\t\taddress token,\r\n\t\tuint tokenId,\r\n\t\tuint stock,\r\n\t\tuint price\r\n\t);\r\n\r\n\tevent Cancel(\r\n\t\tuint listingId,\r\n\t\taddress seller\r\n\t);\r\n\r\n\tuint private _listingId = 0;\r\n\tmapping(uint => Listing) private _listings;\r\n\r\n\tfunction listToken(address token, uint tokenId, uint price, uint stock, string[] calldata searchTerms) public {\r\n        IERC721(token).approve(address(this), tokenId);\r\n        IERC721(token).transferFrom(msg.sender, address(this), tokenId);\r\n    \r\n\t\tListing memory listing = Listing(\r\n\t\t\tListingStatus.Active,\r\n\t\t\tmsg.sender,\r\n\t\t\ttoken,\r\n\t\t\ttokenId,\r\n\t\t\tstock,\r\n\t\t\tprice,\r\n\t\t\tsearchTerms\r\n\t\t);\r\n\r\n\t\t_listingId++;\r\n\r\n\t\t_listings[_listingId] = listing;\r\n\r\n\t\temit Listed(\r\n\t\t\t_listingId,\r\n\t\t\tmsg.sender,\r\n\t\t\ttoken,\r\n\t\t\ttokenId,\r\n\t\t\tstock,\r\n\t\t\tprice,\r\n\t\t\tsearchTerms\r\n\t\t);\r\n\t}\r\n\r\n\tfunction getListing(uint listingId) public view returns (Listing memory) {\r\n\t\treturn _listings[listingId];\r\n\t}\r\n\r\n\tfunction buyToken(uint listingId) public payable {\r\n\t\tListing storage listing = _listings[listingId];\r\n\r\n\t\trequire(msg.sender != listing.seller, \"Seller cannot be buyer\");\r\n\t\trequire(listing.status == ListingStatus.Active, \"Listing is not active\");\r\n\r\n\t\trequire(msg.value >= listing.price, \"Insufficient payment\");\r\n\r\n\t\tlisting.stock--;\r\n\r\n\t\tif (listing.stock == 0){\r\n\t\t\tlisting.status = ListingStatus.OutOfStock;\r\n\t\t}\r\n\r\n\t\t\r\n\r\n\t\tIERC721(listing.token).transferFrom(address(this), msg.sender, listing.tokenId);\r\n\t\tpayable(listing.seller).transfer(listing.price);\r\n\r\n\t\temit Sale(\r\n\t\t\tlistingId,\r\n\t\t\tmsg.sender,\r\n\t\t\tlisting.token,\r\n\t\t\tlisting.tokenId,\r\n\t\t\tlisting.stock,\r\n\t\t\tlisting.price\r\n\t\t);\r\n\t}\r\n\r\n\tfunction cancel(uint listingId) public {\r\n\t\tListing storage listing = _listings[listingId];\r\n\r\n\t\trequire(msg.sender == listing.seller, \"Only seller can cancel listing\");\r\n\t\trequire(listing.status == ListingStatus.Active, \"Listing is not active\");\r\n\r\n\t\tlisting.status = ListingStatus.Cancelled;\r\n\t\r\n\t\tIERC721(listing.token).transferFrom(address(this), msg.sender, listing.tokenId);\r\n\r\n\t\temit Cancel(listingId, listing.seller);\r\n\t}\r\n}\r\n",
  "sourcePath": "C:\\Vatsal\\DUMBASS_PRODUCTIONS\\MintMart\\contracts\\Market.sol",
  "compiler": {
    "name": "solc",
    "version": "0.8.13+commit.abaa5c0e.Emscripten.clang"
  },
  "schemaVersion": "3.4.11",
  "updatedAt": "2023-07-03T20:08:06.639Z",
  "networkType": "ethereum",
  "devdoc": {
    "kind": "dev",
    "methods": {},
    "version": 1
  },
  "userdoc": {
    "kind": "user",
    "methods": {},
    "version": 1
  }
}