{
  "contractName": "Market",
  "abi": [
    {
      "anonymous": false,
      "inputs": [
        {
          "indexed": false,
          "internalType": "uint256",
          "name": "tokenId",
          "type": "uint256"
        },
        {
          "indexed": false,
          "internalType": "uint256",
          "name": "listingId",
          "type": "uint256"
        },
        {
          "indexed": false,
          "internalType": "uint256",
          "name": "stock",
          "type": "uint256"
        },
        {
          "indexed": false,
          "internalType": "uint256",
          "name": "price",
          "type": "uint256"
        },
        {
          "indexed": false,
          "internalType": "address",
          "name": "lister",
          "type": "address"
        },
        {
          "indexed": false,
          "internalType": "address",
          "name": "token",
          "type": "address"
        },
        {
          "indexed": false,
          "internalType": "string[]",
          "name": "searchTerms",
          "type": "string[]"
        }
      ],
      "name": "Listed",
      "type": "event"
    },
    {
      "anonymous": false,
      "inputs": [
        {
          "indexed": false,
          "internalType": "uint256",
          "name": "listingId",
          "type": "uint256"
        },
        {
          "indexed": false,
          "internalType": "uint256",
          "name": "amountBought",
          "type": "uint256"
        },
        {
          "indexed": false,
          "internalType": "uint256",
          "name": "priceBought",
          "type": "uint256"
        },
        {
          "indexed": false,
          "internalType": "address",
          "name": "lister",
          "type": "address"
        },
        {
          "indexed": false,
          "internalType": "address",
          "name": "buyer",
          "type": "address"
        },
        {
          "indexed": false,
          "internalType": "address",
          "name": "token",
          "type": "address"
        }
      ],
      "name": "Sale",
      "type": "event"
    },
    {
      "inputs": [
        {
          "internalType": "bytes4",
          "name": "interfaceId",
          "type": "bytes4"
        }
      ],
      "name": "supportsInterface",
      "outputs": [
        {
          "internalType": "bool",
          "name": "",
          "type": "bool"
        }
      ],
      "stateMutability": "view",
      "type": "function",
      "constant": true
    },
    {
      "inputs": [
        {
          "internalType": "uint256",
          "name": "tokenId",
          "type": "uint256"
        },
        {
          "internalType": "uint256",
          "name": "listAmount",
          "type": "uint256"
        },
        {
          "internalType": "uint256",
          "name": "listPrice",
          "type": "uint256"
        },
        {
          "internalType": "address",
          "name": "token",
          "type": "address"
        },
        {
          "internalType": "string[]",
          "name": "listingSearchItems",
          "type": "string[]"
        }
      ],
      "name": "listProduct",
      "outputs": [],
      "stateMutability": "nonpayable",
      "type": "function"
    },
    {
      "inputs": [
        {
          "internalType": "uint256",
          "name": "_listingId",
          "type": "uint256"
        },
        {
          "internalType": "uint256",
          "name": "amountToBuy",
          "type": "uint256"
        }
      ],
      "name": "buyProduct",
      "outputs": [],
      "stateMutability": "payable",
      "type": "function",
      "payable": true
    },
    {
      "inputs": [
        {
          "internalType": "address",
          "name": "operator",
          "type": "address"
        },
        {
          "internalType": "address",
          "name": "from",
          "type": "address"
        },
        {
          "internalType": "uint256",
          "name": "id",
          "type": "uint256"
        },
        {
          "internalType": "uint256",
          "name": "value",
          "type": "uint256"
        },
        {
          "internalType": "bytes",
          "name": "data",
          "type": "bytes"
        }
      ],
      "name": "onERC1155Received",
      "outputs": [
        {
          "internalType": "bytes4",
          "name": "",
          "type": "bytes4"
        }
      ],
      "stateMutability": "pure",
      "type": "function",
      "constant": true
    },
    {
      "inputs": [
        {
          "internalType": "address",
          "name": "operator",
          "type": "address"
        },
        {
          "internalType": "address",
          "name": "from",
          "type": "address"
        },
        {
          "internalType": "uint256[]",
          "name": "ids",
          "type": "uint256[]"
        },
        {
          "internalType": "uint256[]",
          "name": "values",
          "type": "uint256[]"
        },
        {
          "internalType": "bytes",
          "name": "data",
          "type": "bytes"
        }
      ],
      "name": "onERC1155BatchReceived",
      "outputs": [
        {
          "internalType": "bytes4",
          "name": "",
          "type": "bytes4"
        }
      ],
      "stateMutability": "pure",
      "type": "function",
      "constant": true
    },
    {
      "inputs": [],
      "name": "getNumOfListings",
      "outputs": [
        {
          "internalType": "uint256",
          "name": "",
          "type": "uint256"
        }
      ],
      "stateMutability": "view",
      "type": "function",
      "constant": true
    },
    {
      "inputs": [
        {
          "internalType": "uint256",
          "name": "_listingId",
          "type": "uint256"
        }
      ],
      "name": "getTokenPrice",
      "outputs": [
        {
          "internalType": "uint256",
          "name": "",
          "type": "uint256"
        }
      ],
      "stateMutability": "view",
      "type": "function",
      "constant": true
    },
    {
      "inputs": [
        {
          "internalType": "uint256",
          "name": "_listingId",
          "type": "uint256"
        }
      ],
      "name": "getTokenId",
      "outputs": [
        {
          "internalType": "uint256",
          "name": "",
          "type": "uint256"
        }
      ],
      "stateMutability": "view",
      "type": "function",
      "constant": true
    },
    {
      "inputs": [
        {
          "internalType": "uint256",
          "name": "_listingId",
          "type": "uint256"
        }
      ],
      "name": "getTokenStock",
      "outputs": [
        {
          "internalType": "uint256",
          "name": "",
          "type": "uint256"
        }
      ],
      "stateMutability": "view",
      "type": "function",
      "constant": true
    },
    {
      "inputs": [
        {
          "internalType": "uint256",
          "name": "_listingId",
          "type": "uint256"
        }
      ],
      "name": "getTokenStatus",
      "outputs": [
        {
          "internalType": "enum IMarket.ListingStatus",
          "name": "",
          "type": "uint8"
        }
      ],
      "stateMutability": "view",
      "type": "function",
      "constant": true
    },
    {
      "inputs": [
        {
          "internalType": "uint256",
          "name": "_listingId",
          "type": "uint256"
        }
      ],
      "name": "getTokenSeller",
      "outputs": [
        {
          "internalType": "address",
          "name": "",
          "type": "address"
        }
      ],
      "stateMutability": "view",
      "type": "function",
      "constant": true
    },
    {
      "inputs": [
        {
          "internalType": "uint256",
          "name": "_listingId",
          "type": "uint256"
        }
      ],
      "name": "getListingTokenURI",
      "outputs": [
        {
          "internalType": "string",
          "name": "",
          "type": "string"
        }
      ],
      "stateMutability": "view",
      "type": "function",
      "constant": true
    }
  ],
  "bytecode": "0x60806040526000805534801561001457600080fd5b5061232c806100246000396000f3fe6080604052600436106100a75760003560e01c80637665beea116100645780637665beea146101e75780638f07c2b414610224578063bc197c8114610261578063c457fb371461029e578063d57df931146102db578063f23a6e6114610304576100a7565b806301ffc9a7146100ac57806309c318f8146100e957806314de8eee1461011457806314ff5ea314610151578063245e27841461018e57806353b62866146101cb575b600080fd5b3480156100b857600080fd5b506100d360048036038101906100ce9190611301565b610341565b6040516100e09190611349565b60405180910390f35b3480156100f557600080fd5b506100fe6103bb565b60405161010b919061137d565b60405180910390f35b34801561012057600080fd5b5061013b600480360381019061013691906113c4565b6103c4565b604051610148919061137d565b60405180910390f35b34801561015d57600080fd5b50610178600480360381019061017391906113c4565b6103e4565b604051610185919061137d565b60405180910390f35b34801561019a57600080fd5b506101b560048036038101906101b091906113c4565b610404565b6040516101c2919061148a565b60405180910390f35b6101e560048036038101906101e091906114ac565b6104d8565b005b3480156101f357600080fd5b5061020e600480360381019061020991906113c4565b61095e565b60405161021b919061152d565b60405180910390f35b34801561023057600080fd5b5061024b600480360381019061024691906113c4565b61099e565b60405161025891906115bf565b60405180910390f35b34801561026d57600080fd5b50610288600480360381019061028391906116c1565b6109cb565b60405161029591906117ac565b60405180910390f35b3480156102aa57600080fd5b506102c560048036038101906102c091906113c4565b6109e3565b6040516102d2919061137d565b60405180910390f35b3480156102e757600080fd5b5061030260048036038101906102fd91906119d8565b610a03565b005b34801561031057600080fd5b5061032b60048036038101906103269190611a6f565b6110ae565b60405161033891906117ac565b60405180910390f35b60007f4e2312e0000000000000000000000000000000000000000000000000000000007bffffffffffffffffffffffffffffffffffffffffffffffffffffffff1916827bffffffffffffffffffffffffffffffffffffffffffffffffffffffff191614806103b457506103b3826110c4565b5b9050919050565b60008054905090565b600060016000838152602001908152602001600020600201549050919050565b600060016000838152602001908152602001600020600001549050919050565b60606001600083815260200190815260200160002060050160009054906101000a900473ffffffffffffffffffffffffffffffffffffffff1673ffffffffffffffffffffffffffffffffffffffff16630e89341c60016000858152602001908152602001600020600001546040518263ffffffff1660e01b815260040161048b919061137d565b600060405180830381865afa1580156104a8573d6000803e3d6000fd5b505050506040513d6000823e3d601f19601f820116820180604052508101906104d19190611b79565b9050919050565b6001600083815260200190815260200160002060040160009054906101000a900473ffffffffffffffffffffffffffffffffffffffff1673ffffffffffffffffffffffffffffffffffffffff163373ffffffffffffffffffffffffffffffffffffffff160361057c576040517f08c379a000000000000000000000000000000000000000000000000000000000815260040161057390611c34565b60405180910390fd5b600060028111156105905761058f611548565b5b6001600084815260200190815260200160002060010160009054906101000a900460ff1660028111156105c6576105c5611548565b5b14610606576040517f08c379a00000000000000000000000000000000000000000000000000000000081526004016105fd90611ca0565b60405180910390fd5b81600054101561064b576040517f08c379a000000000000000000000000000000000000000000000000000000000815260040161064290611d0c565b60405180910390fd5b80600160008481526020019081526020016000206003015461066d9190611d5b565b3410156106af576040517f08c379a00000000000000000000000000000000000000000000000000000000081526004016106a690611e01565b60405180910390fd5b806001600084815260200190815260200160002060020160008282546106d59190611e21565b92505081905550600060016000848152602001908152602001600020600201540361073957600180600084815260200190815260200160002060010160006101000a81548160ff0219169083600281111561073357610732611548565b5b02179055505b6001600083815260200190815260200160002060050160009054906101000a900473ffffffffffffffffffffffffffffffffffffffff1673ffffffffffffffffffffffffffffffffffffffff1663fe99049a3033600160008054815260200190815260200160002060000154856040518563ffffffff1660e01b81526004016107c59493929190611e55565b600060405180830381600087803b1580156107df57600080fd5b505af11580156107f3573d6000803e3d6000fd5b505050506001600083815260200190815260200160002060040160009054906101000a900473ffffffffffffffffffffffffffffffffffffffff1673ffffffffffffffffffffffffffffffffffffffff166108fc8260016000868152602001908152602001600020600301546108699190611d5b565b9081150290604051600060405180830381858888f19350505050158015610894573d6000803e3d6000fd5b507f4a7b8c85dd0b8c1affacddecf236ed3e953448b783fe633c373e8c24e62396496000548260016000868152602001908152602001600020600301546001600087815260200190815260200160002060040160009054906101000a900473ffffffffffffffffffffffffffffffffffffffff16336001600089815260200190815260200160002060050160009054906101000a900473ffffffffffffffffffffffffffffffffffffffff1660405161095296959493929190611e9a565b60405180910390a15050565b60006001600083815260200190815260200160002060040160009054906101000a900473ffffffffffffffffffffffffffffffffffffffff169050919050565b60006001600083815260200190815260200160002060010160009054906101000a900460ff169050919050565b600063bc197c8160e01b905098975050505050505050565b600060016000838152602001908152602001600020600301549050919050565b8173ffffffffffffffffffffffffffffffffffffffff16635b7121f8866040518263ffffffff1660e01b8152600401610a3c919061137d565b602060405180830381865afa158015610a59573d6000803e3d6000fd5b505050506040513d601f19601f82011682018060405250810190610a7d9190611f10565b73ffffffffffffffffffffffffffffffffffffffff163373ffffffffffffffffffffffffffffffffffffffff1614610aea576040517f08c379a0000000000000000000000000000000000000000000000000000000008152600401610ae190611fd5565b60405180910390fd5b8173ffffffffffffffffffffffffffffffffffffffff1662fdd58e33876040518363ffffffff1660e01b8152600401610b24929190611ff5565b602060405180830381865afa158015610b41573d6000803e3d6000fd5b505050506040513d601f19601f82011682018060405250810190610b659190612033565b841115610ba7576040517f08c379a0000000000000000000000000000000000000000000000000000000008152600401610b9e906120ac565b60405180910390fd5b600060019050600080600090505b600054811015610bf75787600160008381526020019081526020016000206000015403610be457809150600092505b8080610bef906120cc565b915050610bb5565b5081610e4e578373ffffffffffffffffffffffffffffffffffffffff1663fe99049a33308a8a6040518563ffffffff1660e01b8152600401610c3c9493929190611e55565b600060405180830381600087803b158015610c5657600080fd5b505af1158015610c6a573d6000803e3d6000fd5b50505050600080815480929190610c80906120cc565b91905055506040518060e0016040528088815260200160006002811115610caa57610ca9611548565b5b81526020018781526020018681526020013373ffffffffffffffffffffffffffffffffffffffff1681526020018573ffffffffffffffffffffffffffffffffffffffff16815260200184815250600160008381526020019081526020016000206000820151816000015560208201518160010160006101000a81548160ff02191690836002811115610d3f57610d3e611548565b5b0217905550604082015181600201556060820151816003015560808201518160040160006101000a81548173ffffffffffffffffffffffffffffffffffffffff021916908373ffffffffffffffffffffffffffffffffffffffff16021790555060a08201518160050160006101000a81548173ffffffffffffffffffffffffffffffffffffffff021916908373ffffffffffffffffffffffffffffffffffffffff16021790555060c0820151816006019080519060200190610e0292919061112e565b509050507fa0f7de1dff4900dc0b5d0a8ec127d68f81b11563127548dc1f3d9ed90dff77bd87828888338989604051610e419796959493929190612220565b60405180910390a16110a5565b81156110a4578373ffffffffffffffffffffffffffffffffffffffff1663fe99049a33308a8a6040518563ffffffff1660e01b8152600401610e939493929190611e55565b600060405180830381600087803b158015610ead57600080fd5b505af1158015610ec1573d6000803e3d6000fd5b50505050600080815480929190610ed7906120cc565b91905055506040518060e0016040528088815260200160006002811115610f0157610f00611548565b5b81526020018781526020018681526020013373ffffffffffffffffffffffffffffffffffffffff1681526020018573ffffffffffffffffffffffffffffffffffffffff1681526020018481525060016000805481526020019081526020016000206000820151816000015560208201518160010160006101000a81548160ff02191690836002811115610f9757610f96611548565b5b0217905550604082015181600201556060820151816003015560808201518160040160006101000a81548173ffffffffffffffffffffffffffffffffffffffff021916908373ffffffffffffffffffffffffffffffffffffffff16021790555060a08201518160050160006101000a81548173ffffffffffffffffffffffffffffffffffffffff021916908373ffffffffffffffffffffffffffffffffffffffff16021790555060c082015181600601908051906020019061105a92919061112e565b509050507fa0f7de1dff4900dc0b5d0a8ec127d68f81b11563127548dc1f3d9ed90dff77bd87600054888833898960405161109b9796959493929190612220565b60405180910390a15b5b50505050505050565b600063f23a6e6160e01b90509695505050505050565b60007f01ffc9a7000000000000000000000000000000000000000000000000000000007bffffffffffffffffffffffffffffffffffffffffffffffffffffffff1916827bffffffffffffffffffffffffffffffffffffffffffffffffffffffff1916149050919050565b82805482825590600052602060002090810192821561117d579160200282015b8281111561117c57825182908051906020019061116c92919061118e565b509160200191906001019061114e565b5b50905061118a9190611214565b5090565b82805461119a906122c5565b90600052602060002090601f0160209004810192826111bc5760008555611203565b82601f106111d557805160ff1916838001178555611203565b82800160010185558215611203579182015b828111156112025782518255916020019190600101906111e7565b5b5090506112109190611238565b5090565b5b80821115611234576000818161122b9190611255565b50600101611215565b5090565b5b80821115611251576000816000905550600101611239565b5090565b508054611261906122c5565b6000825580601f106112735750611292565b601f0160209004906000526020600020908101906112919190611238565b5b50565b6000604051905090565b600080fd5b600080fd5b60007fffffffff0000000000000000000000000000000000000000000000000000000082169050919050565b6112de816112a9565b81146112e957600080fd5b50565b6000813590506112fb816112d5565b92915050565b6000602082840312156113175761131661129f565b5b6000611325848285016112ec565b91505092915050565b60008115159050919050565b6113438161132e565b82525050565b600060208201905061135e600083018461133a565b92915050565b6000819050919050565b61137781611364565b82525050565b6000602082019050611392600083018461136e565b92915050565b6113a181611364565b81146113ac57600080fd5b50565b6000813590506113be81611398565b92915050565b6000602082840312156113da576113d961129f565b5b60006113e8848285016113af565b91505092915050565b600081519050919050565b600082825260208201905092915050565b60005b8381101561142b578082015181840152602081019050611410565b8381111561143a576000848401525b50505050565b6000601f19601f8301169050919050565b600061145c826113f1565b61146681856113fc565b935061147681856020860161140d565b61147f81611440565b840191505092915050565b600060208201905081810360008301526114a48184611451565b905092915050565b600080604083850312156114c3576114c261129f565b5b60006114d1858286016113af565b92505060206114e2858286016113af565b9150509250929050565b600073ffffffffffffffffffffffffffffffffffffffff82169050919050565b6000611517826114ec565b9050919050565b6115278161150c565b82525050565b6000602082019050611542600083018461151e565b92915050565b7f4e487b7100000000000000000000000000000000000000000000000000000000600052602160045260246000fd5b6003811061158857611587611548565b5b50565b600081905061159982611577565b919050565b60006115a98261158b565b9050919050565b6115b98161159e565b82525050565b60006020820190506115d460008301846115b0565b92915050565b6115e38161150c565b81146115ee57600080fd5b50565b600081359050611600816115da565b92915050565b600080fd5b600080fd5b600080fd5b60008083601f84011261162b5761162a611606565b5b8235905067ffffffffffffffff8111156116485761164761160b565b5b60208301915083602082028301111561166457611663611610565b5b9250929050565b60008083601f84011261168157611680611606565b5b8235905067ffffffffffffffff81111561169e5761169d61160b565b5b6020830191508360018202830111156116ba576116b9611610565b5b9250929050565b60008060008060008060008060a0898b0312156116e1576116e061129f565b5b60006116ef8b828c016115f1565b98505060206117008b828c016115f1565b975050604089013567ffffffffffffffff811115611721576117206112a4565b5b61172d8b828c01611615565b9650965050606089013567ffffffffffffffff8111156117505761174f6112a4565b5b61175c8b828c01611615565b9450945050608089013567ffffffffffffffff81111561177f5761177e6112a4565b5b61178b8b828c0161166b565b92509250509295985092959890939650565b6117a6816112a9565b82525050565b60006020820190506117c1600083018461179d565b92915050565b7f4e487b7100000000000000000000000000000000000000000000000000000000600052604160045260246000fd5b6117ff82611440565b810181811067ffffffffffffffff8211171561181e5761181d6117c7565b5b80604052505050565b6000611831611295565b905061183d82826117f6565b919050565b600067ffffffffffffffff82111561185d5761185c6117c7565b5b602082029050602081019050919050565b600080fd5b600067ffffffffffffffff82111561188e5761188d6117c7565b5b61189782611440565b9050602081019050919050565b82818337600083830152505050565b60006118c66118c184611873565b611827565b9050828152602081018484840111156118e2576118e161186e565b5b6118ed8482856118a4565b509392505050565b600082601f83011261190a57611909611606565b5b813561191a8482602086016118b3565b91505092915050565b600061193661193184611842565b611827565b9050808382526020820190506020840283018581111561195957611958611610565b5b835b818110156119a057803567ffffffffffffffff81111561197e5761197d611606565b5b80860161198b89826118f5565b8552602085019450505060208101905061195b565b5050509392505050565b600082601f8301126119bf576119be611606565b5b81356119cf848260208601611923565b91505092915050565b600080600080600060a086880312156119f4576119f361129f565b5b6000611a02888289016113af565b9550506020611a13888289016113af565b9450506040611a24888289016113af565b9350506060611a35888289016115f1565b925050608086013567ffffffffffffffff811115611a5657611a556112a4565b5b611a62888289016119aa565b9150509295509295909350565b60008060008060008060a08789031215611a8c57611a8b61129f565b5b6000611a9a89828a016115f1565b9650506020611aab89828a016115f1565b9550506040611abc89828a016113af565b9450506060611acd89828a016113af565b935050608087013567ffffffffffffffff811115611aee57611aed6112a4565b5b611afa89828a0161166b565b92509250509295509295509295565b6000611b1c611b1784611873565b611827565b905082815260208101848484011115611b3857611b3761186e565b5b611b4384828561140d565b509392505050565b600082601f830112611b6057611b5f611606565b5b8151611b70848260208601611b09565b91505092915050565b600060208284031215611b8f57611b8e61129f565b5b600082015167ffffffffffffffff811115611bad57611bac6112a4565b5b611bb984828501611b4b565b91505092915050565b7f53656c6c65722063616e6e6f7420627579207468656972206f776e20746f6b6560008201527f6e00000000000000000000000000000000000000000000000000000000000000602082015250565b6000611c1e6021836113fc565b9150611c2982611bc2565b604082019050919050565b60006020820190508181036000830152611c4d81611c11565b9050919050565b7f4c697374696e67204d7573742062652061637469766500000000000000000000600082015250565b6000611c8a6016836113fc565b9150611c9582611c54565b602082019050919050565b60006020820190508181036000830152611cb981611c7d565b9050919050565b7f4c697374696e6720646f65736e27742065786973740000000000000000000000600082015250565b6000611cf66015836113fc565b9150611d0182611cc0565b602082019050919050565b60006020820190508181036000830152611d2581611ce9565b9050919050565b7f4e487b7100000000000000000000000000000000000000000000000000000000600052601160045260246000fd5b6000611d6682611364565b9150611d7183611364565b9250817fffffffffffffffffffffffffffffffffffffffffffffffffffffffffffffffff0483118215151615611daa57611da9611d2c565b5b828202905092915050565b7f4d75737420706179206d6f7265207468616e6c697374696e6720707269636500600082015250565b6000611deb601f836113fc565b9150611df682611db5565b602082019050919050565b60006020820190508181036000830152611e1a81611dde565b9050919050565b6000611e2c82611364565b9150611e3783611364565b925082821015611e4a57611e49611d2c565b5b828203905092915050565b6000608082019050611e6a600083018761151e565b611e77602083018661151e565b611e84604083018561136e565b611e91606083018461136e565b95945050505050565b600060c082019050611eaf600083018961136e565b611ebc602083018861136e565b611ec9604083018761136e565b611ed6606083018661151e565b611ee3608083018561151e565b611ef060a083018461151e565b979650505050505050565b600081519050611f0a816115da565b92915050565b600060208284031215611f2657611f2561129f565b5b6000611f3484828501611efb565b91505092915050565b7f546f6b656e2063616e206f6e6c79206265206c6973746564206279206d696e7460008201527f657220617320796f752063616e6e6f742062757920616e642072656c6973742060208201527f746f6b656e000000000000000000000000000000000000000000000000000000604082015250565b6000611fbf6045836113fc565b9150611fca82611f3d565b606082019050919050565b60006020820190508181036000830152611fee81611fb2565b9050919050565b600060408201905061200a600083018561151e565b612017602083018461136e565b9392505050565b60008151905061202d81611398565b92915050565b6000602082840312156120495761204861129f565b5b60006120578482850161201e565b91505092915050565b7f596f7520646f206e6f74206861766520656e6f75676820746f6b656e73000000600082015250565b6000612096601d836113fc565b91506120a182612060565b602082019050919050565b600060208201905081810360008301526120c581612089565b9050919050565b60006120d782611364565b91507fffffffffffffffffffffffffffffffffffffffffffffffffffffffffffffffff820361210957612108611d2c565b5b600182019050919050565b600081519050919050565b600082825260208201905092915050565b6000819050602082019050919050565b600082825260208201905092915050565b600061215c826113f1565b6121668185612140565b935061217681856020860161140d565b61217f81611440565b840191505092915050565b60006121968383612151565b905092915050565b6000602082019050919050565b60006121b682612114565b6121c0818561211f565b9350836020820285016121d285612130565b8060005b8581101561220e57848403895281516121ef858261218a565b94506121fa8361219e565b925060208a019950506001810190506121d6565b50829750879550505050505092915050565b600060e082019050612235600083018a61136e565b612242602083018961136e565b61224f604083018861136e565b61225c606083018761136e565b612269608083018661151e565b61227660a083018561151e565b81810360c083015261228881846121ab565b905098975050505050505050565b7f4e487b7100000000000000000000000000000000000000000000000000000000600052602260045260246000fd5b600060028204905060018216806122dd57607f821691505b6020821081036122f0576122ef612296565b5b5091905056fea2646970667358221220a6bf0ad76c3c183d7ea78ff7c005b8e58db5953891e11b7927397f6aab727bc764736f6c634300080d0033",
  "immutableReferences": {},
  "source": "// SPDX-License-Identifier: MIT\r\npragma solidity ^0.8.9;\r\n\r\nimport \"./SaleTokens.sol\";\r\nimport \"./Interfaces/IMarket.sol\";\r\nimport \"@openzeppelin/contracts/token/ERC1155/utils/ERC1155Receiver.sol\";\r\n\r\ncontract Market is IMarket, ERC1155Receiver {\r\n    struct Listing {\r\n        uint256 tokenId;\r\n        ListingStatus status;\r\n        uint256 stock;\r\n        uint256 price;\r\n        address seller;\r\n        address token;\r\n        string[] searchItems;\r\n    }\r\n\r\n    uint256 listingId = 0;\r\n    mapping(uint256 => Listing) private listings;\r\n\r\n    function listProduct(\r\n        uint256 tokenId,\r\n        uint256 listAmount,\r\n        uint256 listPrice,\r\n        address token,\r\n        string[] memory listingSearchItems\r\n    ) public override {\r\n        require(\r\n            msg.sender == SaleTokens(token).getMinter(tokenId),\r\n            \"Token can only be listed by minter as you cannot buy and relist token\"\r\n        );\r\n        require(\r\n            listAmount <= SaleTokens(token).balanceOf(msg.sender, tokenId),\r\n            \"You do not have enough tokens\"\r\n        );\r\n\r\n        bool newListing = true;\r\n        uint relistId;\r\n\r\n        for (uint256 i = 0; i < listingId; i++){\r\n            if(listings[i].tokenId == tokenId){\r\n                relistId = i;\r\n                newListing = false;\r\n            }\r\n        }\r\n\r\n        if(!newListing){\r\n        SaleTokens(token).transferFrom(\r\n            msg.sender,\r\n            address(this),\r\n            tokenId,\r\n            listAmount\r\n        );\r\n\r\n        listingId++;\r\n        listings[relistId] = Listing(\r\n            tokenId,\r\n            ListingStatus.Active,\r\n            listAmount,\r\n            listPrice,\r\n            msg.sender,\r\n            token,\r\n            listingSearchItems\r\n        );\r\n        emit Listed(\r\n            tokenId,\r\n            relistId,\r\n            listAmount,\r\n            listPrice,\r\n            msg.sender,\r\n            token,\r\n            listingSearchItems\r\n        );\r\n        }\r\n\r\n        else if(newListing) {\r\n        SaleTokens(token).transferFrom(\r\n            msg.sender,\r\n            address(this),\r\n            tokenId,\r\n            listAmount\r\n        );\r\n\r\n        listingId++;\r\n        listings[listingId] = Listing(\r\n            tokenId,\r\n            ListingStatus.Active,\r\n            listAmount,\r\n            listPrice,\r\n            msg.sender,\r\n            token,\r\n            listingSearchItems\r\n        );\r\n        emit Listed(\r\n            tokenId,\r\n            listingId,\r\n            listAmount,\r\n            listPrice,\r\n            msg.sender,\r\n            token,\r\n            listingSearchItems\r\n        );\r\n        }\r\n    }\r\n\r\n    function buyProduct(uint256 _listingId, uint256 amountToBuy)\r\n        public\r\n        override\r\n        payable\r\n    {\r\n        require(\r\n            msg.sender != listings[_listingId].seller,\r\n            \"Seller cannot buy their own token\"\r\n        );\r\n\r\n        require(listings[_listingId].status == ListingStatus.Active, \"Listing Must be active\");\r\n\r\n        require(listingId >= _listingId, \"Listing doesn't exist\");\r\n\r\n        require(msg.value>=listings[_listingId].price*amountToBuy, \"Must pay more thanlisting price\");\r\n\r\n        listings[_listingId].stock -= amountToBuy;\r\n\r\n        if(listings[_listingId].stock == 0){\r\n            listings[_listingId].status = ListingStatus.SoldOut;\r\n        }\r\n\r\n        SaleTokens(listings[_listingId].token).transferFrom(\r\n            address(this),\r\n            msg.sender,\r\n            listings[listingId].tokenId,\r\n            amountToBuy\r\n        );\r\n\r\n        payable(listings[_listingId].seller).transfer(listings[_listingId].price*amountToBuy);\r\n\r\n        emit Sale(\r\n            listingId,\r\n            amountToBuy,\r\n            listings[_listingId].price,\r\n            listings[_listingId].seller,\r\n            msg.sender,\r\n            listings[_listingId].token\r\n        );\r\n    }\r\n\r\n    function onERC1155Received(\r\n        address operator,\r\n        address from,\r\n        uint256 id,\r\n        uint256 value,\r\n        bytes calldata data\r\n    ) external pure override returns (bytes4) {\r\n        return 0xf23a6e61;\r\n    }\r\n\r\n    function onERC1155BatchReceived(\r\n        address operator,\r\n        address from,\r\n        uint256[] calldata ids,\r\n        uint256[] calldata values,\r\n        bytes calldata data\r\n    ) external pure override returns (bytes4) {\r\n        return 0xbc197c81;\r\n    }\r\n\r\n    function getNumOfListings() public view override returns (uint256) {\r\n        return listingId;\r\n    }\r\n    \r\n    function getTokenPrice(uint256 _listingId) public view override returns (uint256) {\r\n        return listings[_listingId].price;\r\n    }\r\n\r\n    function getTokenId(uint256 _listingId) public view override returns (uint256) {\r\n        return listings[_listingId].tokenId;\r\n    }\r\n\r\n    function getTokenStock(uint256 _listingId) public view override returns (uint256) {\r\n        return listings[_listingId].stock;\r\n    }\r\n\r\n    function getTokenStatus(uint256 _listingId) public view override returns (ListingStatus) {\r\n        return listings[_listingId].status;\r\n    }\r\n\r\n    function getTokenSeller(uint256 _listingId) public view override returns (address) {\r\n        return listings[_listingId].seller;\r\n    }\r\n\r\n    function getListingTokenURI(uint256 _listingId)\r\n        public\r\n        view\r\n        override\r\n        returns (string memory)\r\n    {\r\n        return\r\n            SaleTokens(listings[_listingId].token).uri(\r\n                listings[_listingId].tokenId\r\n            );\r\n    }\r\n}\r\n",
  "sourcePath": "C:\\Vatsal\\DUMBASS_PRODUCTIONS\\MintMart\\contracts\\Market.sol",
  "compiler": {
    "name": "solc",
    "version": "0.8.13+commit.abaa5c0e.Emscripten.clang"
  },
  "schemaVersion": "3.4.11",
  "updatedAt": "2023-08-24T23:18:31.584Z",
  "networkType": "ethereum",
  "devdoc": {
    "kind": "dev",
    "methods": {
      "onERC1155BatchReceived(address,address,uint256[],uint256[],bytes)": {
        "details": "Handles the receipt of a multiple ERC1155 token types. This function is called at the end of a `safeBatchTransferFrom` after the balances have been updated. NOTE: To accept the transfer(s), this must return `bytes4(keccak256(\"onERC1155BatchReceived(address,address,uint256[],uint256[],bytes)\"))` (i.e. 0xbc197c81, or its own function selector).",
        "params": {
          "data": "Additional data with no specified format",
          "from": "The address which previously owned the token",
          "ids": "An array containing ids of each token being transferred (order and length must match values array)",
          "operator": "The address which initiated the batch transfer (i.e. msg.sender)",
          "values": "An array containing amounts of each token being transferred (order and length must match ids array)"
        },
        "returns": {
          "_0": "`bytes4(keccak256(\"onERC1155BatchReceived(address,address,uint256[],uint256[],bytes)\"))` if transfer is allowed"
        }
      },
      "onERC1155Received(address,address,uint256,uint256,bytes)": {
        "details": "Handles the receipt of a single ERC1155 token type. This function is called at the end of a `safeTransferFrom` after the balance has been updated. NOTE: To accept the transfer, this must return `bytes4(keccak256(\"onERC1155Received(address,address,uint256,uint256,bytes)\"))` (i.e. 0xf23a6e61, or its own function selector).",
        "params": {
          "data": "Additional data with no specified format",
          "from": "The address which previously owned the token",
          "id": "The ID of the token being transferred",
          "operator": "The address which initiated the transfer (i.e. msg.sender)",
          "value": "The amount of tokens being transferred"
        },
        "returns": {
          "_0": "`bytes4(keccak256(\"onERC1155Received(address,address,uint256,uint256,bytes)\"))` if transfer is allowed"
        }
      },
      "supportsInterface(bytes4)": {
        "details": "See {IERC165-supportsInterface}."
      }
    },
    "version": 1
  },
  "userdoc": {
    "kind": "user",
    "methods": {},
    "version": 1
  }
}