{
  "contractName": "Market",
  "abi": [
    {
      "anonymous": false,
      "inputs": [
        {
          "indexed": false,
          "internalType": "uint256",
          "name": "tokenId",
          "type": "uint256"
        },
        {
          "indexed": false,
          "internalType": "uint256",
          "name": "listingId",
          "type": "uint256"
        },
        {
          "indexed": false,
          "internalType": "uint256",
          "name": "stock",
          "type": "uint256"
        },
        {
          "indexed": false,
          "internalType": "uint256",
          "name": "price",
          "type": "uint256"
        },
        {
          "indexed": false,
          "internalType": "address",
          "name": "lister",
          "type": "address"
        },
        {
          "indexed": false,
          "internalType": "address",
          "name": "token",
          "type": "address"
        },
        {
          "indexed": false,
          "internalType": "string[]",
          "name": "searchTerms",
          "type": "string[]"
        }
      ],
      "name": "Listed",
      "type": "event"
    },
    {
      "inputs": [
        {
          "internalType": "bytes4",
          "name": "interfaceId",
          "type": "bytes4"
        }
      ],
      "name": "supportsInterface",
      "outputs": [
        {
          "internalType": "bool",
          "name": "",
          "type": "bool"
        }
      ],
      "stateMutability": "view",
      "type": "function",
      "constant": true
    },
    {
      "inputs": [
        {
          "internalType": "uint256",
          "name": "tokenId",
          "type": "uint256"
        },
        {
          "internalType": "uint256",
          "name": "listAmount",
          "type": "uint256"
        },
        {
          "internalType": "uint256",
          "name": "listPrice",
          "type": "uint256"
        },
        {
          "internalType": "address",
          "name": "token",
          "type": "address"
        },
        {
          "internalType": "string[]",
          "name": "listingSearchItems",
          "type": "string[]"
        }
      ],
      "name": "listProduct",
      "outputs": [],
      "stateMutability": "nonpayable",
      "type": "function"
    },
    {
      "inputs": [
        {
          "internalType": "address",
          "name": "operator",
          "type": "address"
        },
        {
          "internalType": "address",
          "name": "from",
          "type": "address"
        },
        {
          "internalType": "uint256",
          "name": "id",
          "type": "uint256"
        },
        {
          "internalType": "uint256",
          "name": "value",
          "type": "uint256"
        },
        {
          "internalType": "bytes",
          "name": "data",
          "type": "bytes"
        }
      ],
      "name": "onERC1155Received",
      "outputs": [
        {
          "internalType": "bytes4",
          "name": "",
          "type": "bytes4"
        }
      ],
      "stateMutability": "pure",
      "type": "function",
      "constant": true
    },
    {
      "inputs": [
        {
          "internalType": "address",
          "name": "operator",
          "type": "address"
        },
        {
          "internalType": "address",
          "name": "from",
          "type": "address"
        },
        {
          "internalType": "uint256[]",
          "name": "ids",
          "type": "uint256[]"
        },
        {
          "internalType": "uint256[]",
          "name": "values",
          "type": "uint256[]"
        },
        {
          "internalType": "bytes",
          "name": "data",
          "type": "bytes"
        }
      ],
      "name": "onERC1155BatchReceived",
      "outputs": [
        {
          "internalType": "bytes4",
          "name": "",
          "type": "bytes4"
        }
      ],
      "stateMutability": "pure",
      "type": "function",
      "constant": true
    }
  ],
  "bytecode": "0x60806040526000805534801561001457600080fd5b506112cb806100246000396000f3fe608060405234801561001057600080fd5b506004361061004c5760003560e01c806301ffc9a714610051578063bc197c8114610081578063d57df931146100b1578063f23a6e61146100cd575b600080fd5b61006b60048036038101906100669190610793565b6100fd565b60405161007891906107db565b60405180910390f35b61009b6004803603810190610096919061090f565b610177565b6040516100a891906109fa565b60405180910390f35b6100cb60048036038101906100c69190610c6d565b61018f565b005b6100e760048036038101906100e29190610d04565b610540565b6040516100f491906109fa565b60405180910390f35b60007f4e2312e0000000000000000000000000000000000000000000000000000000007bffffffffffffffffffffffffffffffffffffffffffffffffffffffff1916827bffffffffffffffffffffffffffffffffffffffffffffffffffffffff19161480610170575061016f82610556565b5b9050919050565b600063bc197c8160e01b905098975050505050505050565b8173ffffffffffffffffffffffffffffffffffffffff16635b7121f8866040518263ffffffff1660e01b81526004016101c89190610dad565b602060405180830381865afa1580156101e5573d6000803e3d6000fd5b505050506040513d601f19601f820116820180604052508101906102099190610ddd565b73ffffffffffffffffffffffffffffffffffffffff163373ffffffffffffffffffffffffffffffffffffffff1614610276576040517f08c379a000000000000000000000000000000000000000000000000000000000815260040161026d90610eb3565b60405180910390fd5b8173ffffffffffffffffffffffffffffffffffffffff1662fdd58e33876040518363ffffffff1660e01b81526004016102b0929190610ee2565b602060405180830381865afa1580156102cd573d6000803e3d6000fd5b505050506040513d601f19601f820116820180604052508101906102f19190610f20565b841115610333576040517f08c379a000000000000000000000000000000000000000000000000000000000815260040161032a90610f99565b60405180910390fd5b8173ffffffffffffffffffffffffffffffffffffffff1663fe99049a333088886040518563ffffffff1660e01b81526004016103729493929190610fb9565b600060405180830381600087803b15801561038c57600080fd5b505af11580156103a0573d6000803e3d6000fd5b505050506000808154809291906103b69061102d565b91905055506040518060c001604052808681526020018581526020018481526020013373ffffffffffffffffffffffffffffffffffffffff1681526020018373ffffffffffffffffffffffffffffffffffffffff16815260200182815250600160008054815260200190815260200160002060008201518160000155602082015181600101556040820151816002015560608201518160030160006101000a81548173ffffffffffffffffffffffffffffffffffffffff021916908373ffffffffffffffffffffffffffffffffffffffff16021790555060808201518160040160006101000a81548173ffffffffffffffffffffffffffffffffffffffff021916908373ffffffffffffffffffffffffffffffffffffffff16021790555060a08201518160050190805190602001906104f09291906105c0565b509050507fa0f7de1dff4900dc0b5d0a8ec127d68f81b11563127548dc1f3d9ed90dff77bd85600054868633878760405161053197969594939291906111bf565b60405180910390a15050505050565b600063f23a6e6160e01b90509695505050505050565b60007f01ffc9a7000000000000000000000000000000000000000000000000000000007bffffffffffffffffffffffffffffffffffffffffffffffffffffffff1916827bffffffffffffffffffffffffffffffffffffffffffffffffffffffff1916149050919050565b82805482825590600052602060002090810192821561060f579160200282015b8281111561060e5782518290805190602001906105fe929190610620565b50916020019190600101906105e0565b5b50905061061c91906106a6565b5090565b82805461062c90611264565b90600052602060002090601f01602090048101928261064e5760008555610695565b82601f1061066757805160ff1916838001178555610695565b82800160010185558215610695579182015b82811115610694578251825591602001919060010190610679565b5b5090506106a291906106ca565b5090565b5b808211156106c657600081816106bd91906106e7565b506001016106a7565b5090565b5b808211156106e35760008160009055506001016106cb565b5090565b5080546106f390611264565b6000825580601f106107055750610724565b601f01602090049060005260206000209081019061072391906106ca565b5b50565b6000604051905090565b600080fd5b600080fd5b60007fffffffff0000000000000000000000000000000000000000000000000000000082169050919050565b6107708161073b565b811461077b57600080fd5b50565b60008135905061078d81610767565b92915050565b6000602082840312156107a9576107a8610731565b5b60006107b78482850161077e565b91505092915050565b60008115159050919050565b6107d5816107c0565b82525050565b60006020820190506107f060008301846107cc565b92915050565b600073ffffffffffffffffffffffffffffffffffffffff82169050919050565b6000610821826107f6565b9050919050565b61083181610816565b811461083c57600080fd5b50565b60008135905061084e81610828565b92915050565b600080fd5b600080fd5b600080fd5b60008083601f84011261087957610878610854565b5b8235905067ffffffffffffffff81111561089657610895610859565b5b6020830191508360208202830111156108b2576108b161085e565b5b9250929050565b60008083601f8401126108cf576108ce610854565b5b8235905067ffffffffffffffff8111156108ec576108eb610859565b5b6020830191508360018202830111156109085761090761085e565b5b9250929050565b60008060008060008060008060a0898b03121561092f5761092e610731565b5b600061093d8b828c0161083f565b985050602061094e8b828c0161083f565b975050604089013567ffffffffffffffff81111561096f5761096e610736565b5b61097b8b828c01610863565b9650965050606089013567ffffffffffffffff81111561099e5761099d610736565b5b6109aa8b828c01610863565b9450945050608089013567ffffffffffffffff8111156109cd576109cc610736565b5b6109d98b828c016108b9565b92509250509295985092959890939650565b6109f48161073b565b82525050565b6000602082019050610a0f60008301846109eb565b92915050565b6000819050919050565b610a2881610a15565b8114610a3357600080fd5b50565b600081359050610a4581610a1f565b92915050565b6000601f19601f8301169050919050565b7f4e487b7100000000000000000000000000000000000000000000000000000000600052604160045260246000fd5b610a9482610a4b565b810181811067ffffffffffffffff82111715610ab357610ab2610a5c565b5b80604052505050565b6000610ac6610727565b9050610ad28282610a8b565b919050565b600067ffffffffffffffff821115610af257610af1610a5c565b5b602082029050602081019050919050565b600080fd5b600067ffffffffffffffff821115610b2357610b22610a5c565b5b610b2c82610a4b565b9050602081019050919050565b82818337600083830152505050565b6000610b5b610b5684610b08565b610abc565b905082815260208101848484011115610b7757610b76610b03565b5b610b82848285610b39565b509392505050565b600082601f830112610b9f57610b9e610854565b5b8135610baf848260208601610b48565b91505092915050565b6000610bcb610bc684610ad7565b610abc565b90508083825260208201905060208402830185811115610bee57610bed61085e565b5b835b81811015610c3557803567ffffffffffffffff811115610c1357610c12610854565b5b808601610c208982610b8a565b85526020850194505050602081019050610bf0565b5050509392505050565b600082601f830112610c5457610c53610854565b5b8135610c64848260208601610bb8565b91505092915050565b600080600080600060a08688031215610c8957610c88610731565b5b6000610c9788828901610a36565b9550506020610ca888828901610a36565b9450506040610cb988828901610a36565b9350506060610cca8882890161083f565b925050608086013567ffffffffffffffff811115610ceb57610cea610736565b5b610cf788828901610c3f565b9150509295509295909350565b60008060008060008060a08789031215610d2157610d20610731565b5b6000610d2f89828a0161083f565b9650506020610d4089828a0161083f565b9550506040610d5189828a01610a36565b9450506060610d6289828a01610a36565b935050608087013567ffffffffffffffff811115610d8357610d82610736565b5b610d8f89828a016108b9565b92509250509295509295509295565b610da781610a15565b82525050565b6000602082019050610dc26000830184610d9e565b92915050565b600081519050610dd781610828565b92915050565b600060208284031215610df357610df2610731565b5b6000610e0184828501610dc8565b91505092915050565b600082825260208201905092915050565b7f546f6b656e2063616e206f6e6c79206265206c6973746564206279206d696e7460008201527f657220617320796f752063616e6e6f742062757920616e642072656c6973742060208201527f746f6b656e000000000000000000000000000000000000000000000000000000604082015250565b6000610e9d604583610e0a565b9150610ea882610e1b565b606082019050919050565b60006020820190508181036000830152610ecc81610e90565b9050919050565b610edc81610816565b82525050565b6000604082019050610ef76000830185610ed3565b610f046020830184610d9e565b9392505050565b600081519050610f1a81610a1f565b92915050565b600060208284031215610f3657610f35610731565b5b6000610f4484828501610f0b565b91505092915050565b7f596f7520646f206e6f74206861766520656e6f75676820746f6b656e73000000600082015250565b6000610f83601d83610e0a565b9150610f8e82610f4d565b602082019050919050565b60006020820190508181036000830152610fb281610f76565b9050919050565b6000608082019050610fce6000830187610ed3565b610fdb6020830186610ed3565b610fe86040830185610d9e565b610ff56060830184610d9e565b95945050505050565b7f4e487b7100000000000000000000000000000000000000000000000000000000600052601160045260246000fd5b600061103882610a15565b91507fffffffffffffffffffffffffffffffffffffffffffffffffffffffffffffffff820361106a57611069610ffe565b5b600182019050919050565b600081519050919050565b600082825260208201905092915050565b6000819050602082019050919050565b600081519050919050565b600082825260208201905092915050565b60005b838110156110db5780820151818401526020810190506110c0565b838111156110ea576000848401525b50505050565b60006110fb826110a1565b61110581856110ac565b93506111158185602086016110bd565b61111e81610a4b565b840191505092915050565b600061113583836110f0565b905092915050565b6000602082019050919050565b600061115582611075565b61115f8185611080565b93508360208202850161117185611091565b8060005b858110156111ad578484038952815161118e8582611129565b94506111998361113d565b925060208a01995050600181019050611175565b50829750879550505050505092915050565b600060e0820190506111d4600083018a610d9e565b6111e16020830189610d9e565b6111ee6040830188610d9e565b6111fb6060830187610d9e565b6112086080830186610ed3565b61121560a0830185610ed3565b81810360c0830152611227818461114a565b905098975050505050505050565b7f4e487b7100000000000000000000000000000000000000000000000000000000600052602260045260246000fd5b6000600282049050600182168061127c57607f821691505b60208210810361128f5761128e611235565b5b5091905056fea264697066735822122038d3c6f28d234be8c5beb870f3f14ed3150cd04ae72d697c700b48856f2aa36a64736f6c634300080d0033",
  "immutableReferences": {},
  "source": "// SPDX-License-Identifier: MIT\r\npragma solidity ^0.8.9;\r\n\r\nimport \"./SaleTokens.sol\";\r\nimport \"./Interfaces/IMarket.sol\";\r\nimport \"@openzeppelin/contracts/token/ERC1155/utils/ERC1155Receiver.sol\";\r\n\r\ncontract Market is IMarket, ERC1155Receiver{\r\n    \r\n    enum ListingStatus {\r\n        Active,\r\n        SoldOut,\r\n        Canceled\r\n    }\r\n\r\n    struct Listing{\r\n        uint256 tokenId;\r\n        uint256 stock;\r\n        uint256 price;\r\n        address seller;\r\n        address token;\r\n        string[] searchItems;\r\n    }\r\n\r\n\r\n    uint256 listingId = 0;\r\n    mapping(uint256 => Listing) private listings;\r\n\r\n    function listProduct(uint256 tokenId, uint256 listAmount, uint256 listPrice, address token, string[] memory listingSearchItems) override public {\r\n        require(msg.sender == SaleTokens(token).getMinter(tokenId), \"Token can only be listed by minter as you cannot buy and relist token\");\r\n        require(listAmount <= SaleTokens(token).balanceOf(msg.sender, tokenId), \"You do not have enough tokens\");\r\n\r\n        SaleTokens(token).transferFrom(msg.sender, address(this), tokenId, listAmount);\r\n\r\n        listingId++;\r\n        listings[listingId] = Listing(\r\n            tokenId,\r\n            listAmount,\r\n            listPrice,\r\n            msg.sender,\r\n            token,\r\n            listingSearchItems\r\n        );\r\n        emit Listed(\r\n            tokenId, \r\n            listingId, \r\n            listAmount, \r\n            listPrice, \r\n            msg.sender, \r\n            token, \r\n            listingSearchItems\r\n        );\r\n    }\r\n\r\n    function onERC1155Received(address operator, address from, uint256 id, uint256 value, bytes calldata data) external pure override returns (bytes4){\r\n        return 0xf23a6e61;\r\n    }\r\n\r\n    function onERC1155BatchReceived(address operator, address from, uint256[] calldata ids, uint256[] calldata values, bytes calldata data) external pure override returns (bytes4){\r\n        return 0xbc197c81;\r\n    }\r\n\r\n}",
  "sourcePath": "C:\\Code\\MintMart\\contracts\\Market.sol",
  "compiler": {
    "name": "solc",
    "version": "0.8.13+commit.abaa5c0e.Emscripten.clang"
  },
  "schemaVersion": "3.4.4",
  "updatedAt": "2023-07-23T09:14:43.503Z",
  "networkType": "ethereum",
  "devdoc": {
    "kind": "dev",
    "methods": {
      "onERC1155BatchReceived(address,address,uint256[],uint256[],bytes)": {
        "details": "Handles the receipt of a multiple ERC1155 token types. This function is called at the end of a `safeBatchTransferFrom` after the balances have been updated. NOTE: To accept the transfer(s), this must return `bytes4(keccak256(\"onERC1155BatchReceived(address,address,uint256[],uint256[],bytes)\"))` (i.e. 0xbc197c81, or its own function selector).",
        "params": {
          "data": "Additional data with no specified format",
          "from": "The address which previously owned the token",
          "ids": "An array containing ids of each token being transferred (order and length must match values array)",
          "operator": "The address which initiated the batch transfer (i.e. msg.sender)",
          "values": "An array containing amounts of each token being transferred (order and length must match ids array)"
        },
        "returns": {
          "_0": "`bytes4(keccak256(\"onERC1155BatchReceived(address,address,uint256[],uint256[],bytes)\"))` if transfer is allowed"
        }
      },
      "onERC1155Received(address,address,uint256,uint256,bytes)": {
        "details": "Handles the receipt of a single ERC1155 token type. This function is called at the end of a `safeTransferFrom` after the balance has been updated. NOTE: To accept the transfer, this must return `bytes4(keccak256(\"onERC1155Received(address,address,uint256,uint256,bytes)\"))` (i.e. 0xf23a6e61, or its own function selector).",
        "params": {
          "data": "Additional data with no specified format",
          "from": "The address which previously owned the token",
          "id": "The ID of the token being transferred",
          "operator": "The address which initiated the transfer (i.e. msg.sender)",
          "value": "The amount of tokens being transferred"
        },
        "returns": {
          "_0": "`bytes4(keccak256(\"onERC1155Received(address,address,uint256,uint256,bytes)\"))` if transfer is allowed"
        }
      },
      "supportsInterface(bytes4)": {
        "details": "See {IERC165-supportsInterface}."
      }
    },
    "version": 1
  },
  "userdoc": {
    "kind": "user",
    "methods": {},
    "version": 1
  }
}