{
  "contractName": "NFT",
  "abi": [
    {
      "inputs": [],
      "stateMutability": "nonpayable",
      "type": "constructor"
    },
    {
      "anonymous": false,
      "inputs": [
        {
          "indexed": true,
          "internalType": "address",
          "name": "owner",
          "type": "address"
        },
        {
          "indexed": true,
          "internalType": "address",
          "name": "approved",
          "type": "address"
        },
        {
          "indexed": true,
          "internalType": "uint256",
          "name": "tokenId",
          "type": "uint256"
        }
      ],
      "name": "Approval",
      "type": "event"
    },
    {
      "anonymous": false,
      "inputs": [
        {
          "indexed": true,
          "internalType": "address",
          "name": "owner",
          "type": "address"
        },
        {
          "indexed": true,
          "internalType": "address",
          "name": "operator",
          "type": "address"
        },
        {
          "indexed": false,
          "internalType": "bool",
          "name": "approved",
          "type": "bool"
        }
      ],
      "name": "ApprovalForAll",
      "type": "event"
    },
    {
      "anonymous": false,
      "inputs": [
        {
          "indexed": true,
          "internalType": "address",
          "name": "previousOwner",
          "type": "address"
        },
        {
          "indexed": true,
          "internalType": "address",
          "name": "newOwner",
          "type": "address"
        }
      ],
      "name": "OwnershipTransferred",
      "type": "event"
    },
    {
      "anonymous": false,
      "inputs": [
        {
          "indexed": false,
          "internalType": "address",
          "name": "account",
          "type": "address"
        }
      ],
      "name": "Paused",
      "type": "event"
    },
    {
      "anonymous": false,
      "inputs": [
        {
          "indexed": true,
          "internalType": "address",
          "name": "from",
          "type": "address"
        },
        {
          "indexed": true,
          "internalType": "address",
          "name": "to",
          "type": "address"
        },
        {
          "indexed": true,
          "internalType": "uint256",
          "name": "tokenId",
          "type": "uint256"
        }
      ],
      "name": "Transfer",
      "type": "event"
    },
    {
      "anonymous": false,
      "inputs": [
        {
          "indexed": false,
          "internalType": "address",
          "name": "account",
          "type": "address"
        }
      ],
      "name": "Unpaused",
      "type": "event"
    },
    {
      "inputs": [
        {
          "internalType": "address",
          "name": "to",
          "type": "address"
        },
        {
          "internalType": "uint256",
          "name": "tokenId",
          "type": "uint256"
        }
      ],
      "name": "approve",
      "outputs": [],
      "stateMutability": "nonpayable",
      "type": "function"
    },
    {
      "inputs": [
        {
          "internalType": "address",
          "name": "owner",
          "type": "address"
        }
      ],
      "name": "balanceOf",
      "outputs": [
        {
          "internalType": "uint256",
          "name": "",
          "type": "uint256"
        }
      ],
      "stateMutability": "view",
      "type": "function",
      "constant": true
    },
    {
      "inputs": [
        {
          "internalType": "uint256",
          "name": "tokenId",
          "type": "uint256"
        }
      ],
      "name": "burn",
      "outputs": [],
      "stateMutability": "nonpayable",
      "type": "function"
    },
    {
      "inputs": [
        {
          "internalType": "uint256",
          "name": "tokenId",
          "type": "uint256"
        }
      ],
      "name": "getApproved",
      "outputs": [
        {
          "internalType": "address",
          "name": "",
          "type": "address"
        }
      ],
      "stateMutability": "view",
      "type": "function",
      "constant": true
    },
    {
      "inputs": [
        {
          "internalType": "address",
          "name": "owner",
          "type": "address"
        },
        {
          "internalType": "address",
          "name": "operator",
          "type": "address"
        }
      ],
      "name": "isApprovedForAll",
      "outputs": [
        {
          "internalType": "bool",
          "name": "",
          "type": "bool"
        }
      ],
      "stateMutability": "view",
      "type": "function",
      "constant": true
    },
    {
      "inputs": [],
      "name": "name",
      "outputs": [
        {
          "internalType": "string",
          "name": "",
          "type": "string"
        }
      ],
      "stateMutability": "view",
      "type": "function",
      "constant": true
    },
    {
      "inputs": [],
      "name": "owner",
      "outputs": [
        {
          "internalType": "address",
          "name": "",
          "type": "address"
        }
      ],
      "stateMutability": "view",
      "type": "function",
      "constant": true
    },
    {
      "inputs": [
        {
          "internalType": "uint256",
          "name": "tokenId",
          "type": "uint256"
        }
      ],
      "name": "ownerOf",
      "outputs": [
        {
          "internalType": "address",
          "name": "",
          "type": "address"
        }
      ],
      "stateMutability": "view",
      "type": "function",
      "constant": true
    },
    {
      "inputs": [],
      "name": "paused",
      "outputs": [
        {
          "internalType": "bool",
          "name": "",
          "type": "bool"
        }
      ],
      "stateMutability": "view",
      "type": "function",
      "constant": true
    },
    {
      "inputs": [],
      "name": "renounceOwnership",
      "outputs": [],
      "stateMutability": "nonpayable",
      "type": "function"
    },
    {
      "inputs": [
        {
          "internalType": "address",
          "name": "from",
          "type": "address"
        },
        {
          "internalType": "address",
          "name": "to",
          "type": "address"
        },
        {
          "internalType": "uint256",
          "name": "tokenId",
          "type": "uint256"
        }
      ],
      "name": "safeTransferFrom",
      "outputs": [],
      "stateMutability": "nonpayable",
      "type": "function"
    },
    {
      "inputs": [
        {
          "internalType": "address",
          "name": "from",
          "type": "address"
        },
        {
          "internalType": "address",
          "name": "to",
          "type": "address"
        },
        {
          "internalType": "uint256",
          "name": "tokenId",
          "type": "uint256"
        },
        {
          "internalType": "bytes",
          "name": "_data",
          "type": "bytes"
        }
      ],
      "name": "safeTransferFrom",
      "outputs": [],
      "stateMutability": "nonpayable",
      "type": "function"
    },
    {
      "inputs": [
        {
          "internalType": "address",
          "name": "operator",
          "type": "address"
        },
        {
          "internalType": "bool",
          "name": "approved",
          "type": "bool"
        }
      ],
      "name": "setApprovalForAll",
      "outputs": [],
      "stateMutability": "nonpayable",
      "type": "function"
    },
    {
      "inputs": [],
      "name": "symbol",
      "outputs": [
        {
          "internalType": "string",
          "name": "",
          "type": "string"
        }
      ],
      "stateMutability": "view",
      "type": "function",
      "constant": true
    },
    {
      "inputs": [
        {
          "internalType": "uint256",
          "name": "index",
          "type": "uint256"
        }
      ],
      "name": "tokenByIndex",
      "outputs": [
        {
          "internalType": "uint256",
          "name": "",
          "type": "uint256"
        }
      ],
      "stateMutability": "view",
      "type": "function",
      "constant": true
    },
    {
      "inputs": [],
      "name": "tokenIdCounter",
      "outputs": [
        {
          "internalType": "uint256",
          "name": "",
          "type": "uint256"
        }
      ],
      "stateMutability": "view",
      "type": "function",
      "constant": true
    },
    {
      "inputs": [
        {
          "internalType": "address",
          "name": "owner",
          "type": "address"
        },
        {
          "internalType": "uint256",
          "name": "index",
          "type": "uint256"
        }
      ],
      "name": "tokenOfOwnerByIndex",
      "outputs": [
        {
          "internalType": "uint256",
          "name": "",
          "type": "uint256"
        }
      ],
      "stateMutability": "view",
      "type": "function",
      "constant": true
    },
    {
      "inputs": [],
      "name": "totalSupply",
      "outputs": [
        {
          "internalType": "uint256",
          "name": "",
          "type": "uint256"
        }
      ],
      "stateMutability": "view",
      "type": "function",
      "constant": true
    },
    {
      "inputs": [
        {
          "internalType": "address",
          "name": "from",
          "type": "address"
        },
        {
          "internalType": "address",
          "name": "to",
          "type": "address"
        },
        {
          "internalType": "uint256",
          "name": "tokenId",
          "type": "uint256"
        }
      ],
      "name": "transferFrom",
      "outputs": [],
      "stateMutability": "nonpayable",
      "type": "function"
    },
    {
      "inputs": [
        {
          "internalType": "address",
          "name": "newOwner",
          "type": "address"
        }
      ],
      "name": "transferOwnership",
      "outputs": [],
      "stateMutability": "nonpayable",
      "type": "function"
    },
    {
      "inputs": [
        {
          "internalType": "string",
          "name": "publicTokenURI",
          "type": "string"
        }
      ],
      "name": "safeMint",
      "outputs": [
        {
          "internalType": "uint256",
          "name": "tokenId",
          "type": "uint256"
        }
      ],
      "stateMutability": "nonpayable",
      "type": "function"
    },
    {
      "inputs": [
        {
          "internalType": "uint256",
          "name": "tokenId",
          "type": "uint256"
        }
      ],
      "name": "tokenURI",
      "outputs": [
        {
          "internalType": "string",
          "name": "",
          "type": "string"
        }
      ],
      "stateMutability": "view",
      "type": "function",
      "constant": true
    },
    {
      "inputs": [
        {
          "internalType": "bytes4",
          "name": "interfaceId",
          "type": "bytes4"
        }
      ],
      "name": "supportsInterface",
      "outputs": [
        {
          "internalType": "bool",
          "name": "",
          "type": "bool"
        }
      ],
      "stateMutability": "view",
      "type": "function",
      "constant": true
    },
    {
      "inputs": [],
      "name": "lastTokenId",
      "outputs": [
        {
          "internalType": "uint256",
          "name": "",
          "type": "uint256"
        }
      ],
      "stateMutability": "nonpayable",
      "type": "function"
    }
  ],
  "bytecode": "0x60806040523480156200001157600080fd5b506040518060400160405280600b81526020017f436f6f6c657374204e46540000000000000000000000000000000000000000008152506040518060400160405280600381526020017f4e46540000000000000000000000000000000000000000000000000000000000815250816000908051906020019062000096929190620001c1565b508060019080519060200190620000af929190620001c1565b5050506000600b60006101000a81548160ff021916908315150217905550620000ed620000e1620000f360201b60201c565b620000fb60201b60201c565b620002d5565b600033905090565b6000600b60019054906101000a900473ffffffffffffffffffffffffffffffffffffffff16905081600b60016101000a81548173ffffffffffffffffffffffffffffffffffffffff021916908373ffffffffffffffffffffffffffffffffffffffff1602179055508173ffffffffffffffffffffffffffffffffffffffff168173ffffffffffffffffffffffffffffffffffffffff167f8be0079c531659141344cd1fd0a4f28419497f9722a3daafe3b4186f6b6457e060405160405180910390a35050565b828054620001cf90620002a0565b90600052602060002090601f016020900481019282620001f357600085556200023f565b82601f106200020e57805160ff19168380011785556200023f565b828001600101855582156200023f579182015b828111156200023e57825182559160200191906001019062000221565b5b5090506200024e919062000252565b5090565b5b808211156200026d57600081600090555060010162000253565b5090565b7f4e487b7100000000000000000000000000000000000000000000000000000000600052602260045260246000fd5b60006002820490506001821680620002b957607f821691505b602082108103620002cf57620002ce62000271565b5b50919050565b613d9b80620002e56000396000f3fe608060405234801561001057600080fd5b50600436106101585760003560e01c8063695850fb116100c3578063a22cb4651161007c578063a22cb465146103db578063b88d4fde146103f7578063c87b56dd14610413578063e985e9c514610443578063f2fde38b14610473578063f84ddf0b1461048f57610158565b8063695850fb1461031757806370a0823114610347578063715018a6146103775780638da5cb5b1461038157806395d89b411461039f57806398bdf6f5146103bd57610158565b80632f745c59116101155780632f745c591461023157806342842e0e1461026157806342966c681461027d5780634f6ccce7146102995780635c975abb146102c95780636352211e146102e757610158565b806301ffc9a71461015d57806306fdde031461018d578063081812fc146101ab578063095ea7b3146101db57806318160ddd146101f757806323b872dd14610215575b600080fd5b61017760048036038101906101729190612740565b6104ad565b6040516101849190612788565b60405180910390f35b6101956104bf565b6040516101a2919061283c565b60405180910390f35b6101c560048036038101906101c09190612894565b610551565b6040516101d29190612902565b60405180910390f35b6101f560048036038101906101f09190612949565b6105d6565b005b6101ff6106ed565b60405161020c9190612998565b60405180910390f35b61022f600480360381019061022a91906129b3565b6106fa565b005b61024b60048036038101906102469190612949565b61075a565b6040516102589190612998565b60405180910390f35b61027b600480360381019061027691906129b3565b6107ff565b005b61029760048036038101906102929190612894565b61081f565b005b6102b360048036038101906102ae9190612894565b61087b565b6040516102c09190612998565b60405180910390f35b6102d16108ec565b6040516102de9190612788565b60405180910390f35b61030160048036038101906102fc9190612894565b610903565b60405161030e9190612902565b60405180910390f35b610331600480360381019061032c9190612b3b565b6109b4565b60405161033e9190612998565b60405180910390f35b610361600480360381019061035c9190612b84565b6109c6565b60405161036e9190612998565b60405180910390f35b61037f610a7d565b005b610389610b05565b6040516103969190612902565b60405180910390f35b6103a7610b2f565b6040516103b4919061283c565b60405180910390f35b6103c5610bc1565b6040516103d29190612998565b60405180910390f35b6103f560048036038101906103f09190612bdd565b610bc7565b005b610411600480360381019061040c9190612cbe565b610bdd565b005b61042d60048036038101906104289190612894565b610c3f565b60405161043a919061283c565b60405180910390f35b61045d60048036038101906104589190612d41565b610c51565b60405161046a9190612788565b60405180910390f35b61048d60048036038101906104889190612b84565b610ce5565b005b610497610ddc565b6040516104a49190612998565b60405180910390f35b60006104b882610de6565b9050919050565b6060600080546104ce90612db0565b80601f01602080910402602001604051908101604052809291908181526020018280546104fa90612db0565b80156105475780601f1061051c57610100808354040283529160200191610547565b820191906000526020600020905b81548152906001019060200180831161052a57829003601f168201915b5050505050905090565b600061055c82610e60565b61059b576040517f08c379a000000000000000000000000000000000000000000000000000000000815260040161059290612e53565b60405180910390fd5b6004600083815260200190815260200160002060009054906101000a900473ffffffffffffffffffffffffffffffffffffffff169050919050565b60006105e182610903565b90508073ffffffffffffffffffffffffffffffffffffffff168373ffffffffffffffffffffffffffffffffffffffff1603610651576040517f08c379a000000000000000000000000000000000000000000000000000000000815260040161064890612ee5565b60405180910390fd5b8073ffffffffffffffffffffffffffffffffffffffff16610670610ecc565b73ffffffffffffffffffffffffffffffffffffffff16148061069f575061069e81610699610ecc565b610c51565b5b6106de576040517f08c379a00000000000000000000000000000000000000000000000000000000081526004016106d590612f77565b60405180910390fd5b6106e88383610ed4565b505050565b6000600880549050905090565b61070b610705610ecc565b82610f8d565b61074a576040517f08c379a000000000000000000000000000000000000000000000000000000000815260040161074190613009565b60405180910390fd5b61075583838361106b565b505050565b6000610765836109c6565b82106107a6576040517f08c379a000000000000000000000000000000000000000000000000000000000815260040161079d9061309b565b60405180910390fd5b600660008473ffffffffffffffffffffffffffffffffffffffff1673ffffffffffffffffffffffffffffffffffffffff168152602001908152602001600020600083815260200190815260200160002054905092915050565b61081a83838360405180602001604052806000815250610bdd565b505050565b61083061082a610ecc565b82610f8d565b61086f576040517f08c379a00000000000000000000000000000000000000000000000000000000081526004016108669061312d565b60405180910390fd5b610878816112d1565b50565b60006108856106ed565b82106108c6576040517f08c379a00000000000000000000000000000000000000000000000000000000081526004016108bd906131bf565b60405180910390fd5b600882815481106108da576108d96131df565b5b90600052602060002001549050919050565b6000600b60009054906101000a900460ff16905090565b6000806002600084815260200190815260200160002060009054906101000a900473ffffffffffffffffffffffffffffffffffffffff169050600073ffffffffffffffffffffffffffffffffffffffff168173ffffffffffffffffffffffffffffffffffffffff16036109ab576040517f08c379a00000000000000000000000000000000000000000000000000000000081526004016109a290613280565b60405180910390fd5b80915050919050565b60006109bf826112dd565b9050919050565b60008073ffffffffffffffffffffffffffffffffffffffff168273ffffffffffffffffffffffffffffffffffffffff1603610a36576040517f08c379a0000000000000000000000000000000000000000000000000000000008152600401610a2d90613312565b60405180910390fd5b600360008373ffffffffffffffffffffffffffffffffffffffff1673ffffffffffffffffffffffffffffffffffffffff168152602001908152602001600020549050919050565b610a85610ecc565b73ffffffffffffffffffffffffffffffffffffffff16610aa3610b05565b73ffffffffffffffffffffffffffffffffffffffff1614610af9576040517f08c379a0000000000000000000000000000000000000000000000000000000008152600401610af09061337e565b60405180910390fd5b610b03600061144e565b565b6000600b60019054906101000a900473ffffffffffffffffffffffffffffffffffffffff16905090565b606060018054610b3e90612db0565b80601f0160208091040260200160405190810160405280929190818152602001828054610b6a90612db0565b8015610bb75780601f10610b8c57610100808354040283529160200191610bb7565b820191906000526020600020905b815481529060010190602001808311610b9a57829003601f168201915b5050505050905090565b600c5481565b610bd9610bd2610ecc565b8383611514565b5050565b610bee610be8610ecc565b83610f8d565b610c2d576040517f08c379a0000000000000000000000000000000000000000000000000000000008152600401610c2490613009565b60405180910390fd5b610c3984848484611680565b50505050565b6060610c4a826116dc565b9050919050565b6000600560008473ffffffffffffffffffffffffffffffffffffffff1673ffffffffffffffffffffffffffffffffffffffff16815260200190815260200160002060008373ffffffffffffffffffffffffffffffffffffffff1673ffffffffffffffffffffffffffffffffffffffff16815260200190815260200160002060009054906101000a900460ff16905092915050565b610ced610ecc565b73ffffffffffffffffffffffffffffffffffffffff16610d0b610b05565b73ffffffffffffffffffffffffffffffffffffffff1614610d61576040517f08c379a0000000000000000000000000000000000000000000000000000000008152600401610d589061337e565b60405180910390fd5b600073ffffffffffffffffffffffffffffffffffffffff168173ffffffffffffffffffffffffffffffffffffffff1603610dd0576040517f08c379a0000000000000000000000000000000000000000000000000000000008152600401610dc790613410565b60405180910390fd5b610dd98161144e565b50565b6000600c54905090565b60007f780e9d63000000000000000000000000000000000000000000000000000000007bffffffffffffffffffffffffffffffffffffffffffffffffffffffff1916827bffffffffffffffffffffffffffffffffffffffffffffffffffffffff19161480610e595750610e588261182d565b5b9050919050565b60008073ffffffffffffffffffffffffffffffffffffffff166002600084815260200190815260200160002060009054906101000a900473ffffffffffffffffffffffffffffffffffffffff1673ffffffffffffffffffffffffffffffffffffffff1614159050919050565b600033905090565b816004600083815260200190815260200160002060006101000a81548173ffffffffffffffffffffffffffffffffffffffff021916908373ffffffffffffffffffffffffffffffffffffffff160217905550808273ffffffffffffffffffffffffffffffffffffffff16610f4783610903565b73ffffffffffffffffffffffffffffffffffffffff167f8c5be1e5ebec7d5bd14f71427d1e84f3dd0314c0f7b2291e5b200ac8c7c3b92560405160405180910390a45050565b6000610f9882610e60565b610fd7576040517f08c379a0000000000000000000000000000000000000000000000000000000008152600401610fce906134a2565b60405180910390fd5b6000610fe283610903565b90508073ffffffffffffffffffffffffffffffffffffffff168473ffffffffffffffffffffffffffffffffffffffff16148061102457506110238185610c51565b5b8061106257508373ffffffffffffffffffffffffffffffffffffffff1661104a84610551565b73ffffffffffffffffffffffffffffffffffffffff16145b91505092915050565b8273ffffffffffffffffffffffffffffffffffffffff1661108b82610903565b73ffffffffffffffffffffffffffffffffffffffff16146110e1576040517f08c379a00000000000000000000000000000000000000000000000000000000081526004016110d890613534565b60405180910390fd5b600073ffffffffffffffffffffffffffffffffffffffff168273ffffffffffffffffffffffffffffffffffffffff1603611150576040517f08c379a0000000000000000000000000000000000000000000000000000000008152600401611147906135c6565b60405180910390fd5b61115b83838361190f565b611166600082610ed4565b6001600360008573ffffffffffffffffffffffffffffffffffffffff1673ffffffffffffffffffffffffffffffffffffffff16815260200190815260200160002060008282546111b69190613615565b925050819055506001600360008473ffffffffffffffffffffffffffffffffffffffff1673ffffffffffffffffffffffffffffffffffffffff168152602001908152602001600020600082825461120d9190613649565b92505081905550816002600083815260200190815260200160002060006101000a81548173ffffffffffffffffffffffffffffffffffffffff021916908373ffffffffffffffffffffffffffffffffffffffff160217905550808273ffffffffffffffffffffffffffffffffffffffff168473ffffffffffffffffffffffffffffffffffffffff167fddf252ad1be2c89b69c2b068fc378daa952ba7f163c4a11628f55a4df523b3ef60405160405180910390a46112cc838383611967565b505050565b6112da8161196c565b50565b600080600d836040516112f091906136db565b9081526020016040518091039020541461133f576040517f08c379a00000000000000000000000000000000000000000000000000000000081526004016113369061373e565b60405180910390fd5b600c60008154809291906113529061375e565b9190505550600c54905061136f611367610ecc565b600c546119bf565b61137b600c54836119dd565b60405180606001604052806001151581526020013373ffffffffffffffffffffffffffffffffffffffff16815260200183815250600e600083815260200190815260200160002060008201518160000160006101000a81548160ff02191690831515021790555060208201518160000160016101000a81548173ffffffffffffffffffffffffffffffffffffffff021916908373ffffffffffffffffffffffffffffffffffffffff16021790555060408201518160010190805190602001906114459291906125f1565b50905050919050565b6000600b60019054906101000a900473ffffffffffffffffffffffffffffffffffffffff16905081600b60016101000a81548173ffffffffffffffffffffffffffffffffffffffff021916908373ffffffffffffffffffffffffffffffffffffffff1602179055508173ffffffffffffffffffffffffffffffffffffffff168173ffffffffffffffffffffffffffffffffffffffff167f8be0079c531659141344cd1fd0a4f28419497f9722a3daafe3b4186f6b6457e060405160405180910390a35050565b8173ffffffffffffffffffffffffffffffffffffffff168373ffffffffffffffffffffffffffffffffffffffff1603611582576040517f08c379a0000000000000000000000000000000000000000000000000000000008152600401611579906137f2565b60405180910390fd5b80600560008573ffffffffffffffffffffffffffffffffffffffff1673ffffffffffffffffffffffffffffffffffffffff16815260200190815260200160002060008473ffffffffffffffffffffffffffffffffffffffff1673ffffffffffffffffffffffffffffffffffffffff16815260200190815260200160002060006101000a81548160ff0219169083151502179055508173ffffffffffffffffffffffffffffffffffffffff168373ffffffffffffffffffffffffffffffffffffffff167f17307eab39ab6107e8899845ad3d59bd9653f200f220920489ca2b5937696c31836040516116739190612788565b60405180910390a3505050565b61168b84848461106b565b61169784848484611a51565b6116d6576040517f08c379a00000000000000000000000000000000000000000000000000000000081526004016116cd90613884565b60405180910390fd5b50505050565b60606116e782610e60565b611726576040517f08c379a000000000000000000000000000000000000000000000000000000000815260040161171d90613916565b60405180910390fd5b6000600a6000848152602001908152602001600020805461174690612db0565b80601f016020809104026020016040519081016040528092919081815260200182805461177290612db0565b80156117bf5780601f10611794576101008083540402835291602001916117bf565b820191906000526020600020905b8154815290600101906020018083116117a257829003601f168201915b5050505050905060006117d0611bd8565b905060008151036117e5578192505050611828565b60008251111561181a578082604051602001611802929190613936565b60405160208183030381529060405292505050611828565b61182384611bef565b925050505b919050565b60007f80ac58cd000000000000000000000000000000000000000000000000000000007bffffffffffffffffffffffffffffffffffffffffffffffffffffffff1916827bffffffffffffffffffffffffffffffffffffffffffffffffffffffff191614806118f857507f5b5e139f000000000000000000000000000000000000000000000000000000007bffffffffffffffffffffffffffffffffffffffffffffffffffffffff1916827bffffffffffffffffffffffffffffffffffffffffffffffffffffffff1916145b80611908575061190782611c96565b5b9050919050565b6119176108ec565b15611957576040517f08c379a000000000000000000000000000000000000000000000000000000000815260040161194e906139a6565b60405180910390fd5b611962838383611d00565b505050565b505050565b61197581611e12565b6000600a6000838152602001908152602001600020805461199590612db0565b9050146119bc57600a600082815260200190815260200160002060006119bb9190612677565b5b50565b6119d9828260405180602001604052806000815250611f2f565b5050565b6119e682610e60565b611a25576040517f08c379a0000000000000000000000000000000000000000000000000000000008152600401611a1c90613a38565b60405180910390fd5b80600a60008481526020019081526020016000209080519060200190611a4c9291906125f1565b505050565b6000611a728473ffffffffffffffffffffffffffffffffffffffff16611f8a565b15611bcb578373ffffffffffffffffffffffffffffffffffffffff1663150b7a02611a9b610ecc565b8786866040518563ffffffff1660e01b8152600401611abd9493929190613aad565b6020604051808303816000875af1925050508015611af957506040513d601f19601f82011682018060405250810190611af69190613b0e565b60015b611b7b573d8060008114611b29576040519150601f19603f3d011682016040523d82523d6000602084013e611b2e565b606091505b506000815103611b73576040517f08c379a0000000000000000000000000000000000000000000000000000000008152600401611b6a90613884565b60405180910390fd5b805181602001fd5b63150b7a0260e01b7bffffffffffffffffffffffffffffffffffffffffffffffffffffffff1916817bffffffffffffffffffffffffffffffffffffffffffffffffffffffff191614915050611bd0565b600190505b949350505050565b606060405180602001604052806000815250905090565b6060611bfa82610e60565b611c39576040517f08c379a0000000000000000000000000000000000000000000000000000000008152600401611c3090613bad565b60405180910390fd5b6000611c43611bd8565b90506000815111611c635760405180602001604052806000815250611c8e565b80611c6d84611fad565b604051602001611c7e929190613936565b6040516020818303038152906040525b915050919050565b60007f01ffc9a7000000000000000000000000000000000000000000000000000000007bffffffffffffffffffffffffffffffffffffffffffffffffffffffff1916827bffffffffffffffffffffffffffffffffffffffffffffffffffffffff1916149050919050565b611d0b83838361210d565b600073ffffffffffffffffffffffffffffffffffffffff168373ffffffffffffffffffffffffffffffffffffffff1603611d4d57611d4881612112565b611d8c565b8173ffffffffffffffffffffffffffffffffffffffff168373ffffffffffffffffffffffffffffffffffffffff1614611d8b57611d8a838261215b565b5b5b600073ffffffffffffffffffffffffffffffffffffffff168273ffffffffffffffffffffffffffffffffffffffff1603611dce57611dc9816122c8565b611e0d565b8273ffffffffffffffffffffffffffffffffffffffff168273ffffffffffffffffffffffffffffffffffffffff1614611e0c57611e0b8282612399565b5b5b505050565b6000611e1d82610903565b9050611e2b8160008461190f565b611e36600083610ed4565b6001600360008373ffffffffffffffffffffffffffffffffffffffff1673ffffffffffffffffffffffffffffffffffffffff1681526020019081526020016000206000828254611e869190613615565b925050819055506002600083815260200190815260200160002060006101000a81549073ffffffffffffffffffffffffffffffffffffffff021916905581600073ffffffffffffffffffffffffffffffffffffffff168273ffffffffffffffffffffffffffffffffffffffff167fddf252ad1be2c89b69c2b068fc378daa952ba7f163c4a11628f55a4df523b3ef60405160405180910390a4611f2b81600084611967565b5050565b611f398383612418565b611f466000848484611a51565b611f85576040517f08c379a0000000000000000000000000000000000000000000000000000000008152600401611f7c90613884565b60405180910390fd5b505050565b6000808273ffffffffffffffffffffffffffffffffffffffff163b119050919050565b606060008203611ff4576040518060400160405280600181526020017f30000000000000000000000000000000000000000000000000000000000000008152509050612108565b600082905060005b6000821461202657808061200f9061375e565b915050600a8261201f9190613bfc565b9150611ffc565b60008167ffffffffffffffff81111561204257612041612a10565b5b6040519080825280601f01601f1916602001820160405280156120745781602001600182028036833780820191505090505b5090505b600085146121015760018261208d9190613615565b9150600a8561209c9190613c2d565b60306120a89190613649565b60f81b8183815181106120be576120bd6131df565b5b60200101907effffffffffffffffffffffffffffffffffffffffffffffffffffffffffffff1916908160001a905350600a856120fa9190613bfc565b9450612078565b8093505050505b919050565b505050565b6008805490506009600083815260200190815260200160002081905550600881908060018154018082558091505060019003906000526020600020016000909190919091505550565b60006001612168846109c6565b6121729190613615565b9050600060076000848152602001908152602001600020549050818114612257576000600660008673ffffffffffffffffffffffffffffffffffffffff1673ffffffffffffffffffffffffffffffffffffffff168152602001908152602001600020600084815260200190815260200160002054905080600660008773ffffffffffffffffffffffffffffffffffffffff1673ffffffffffffffffffffffffffffffffffffffff168152602001908152602001600020600084815260200190815260200160002081905550816007600083815260200190815260200160002081905550505b6007600084815260200190815260200160002060009055600660008573ffffffffffffffffffffffffffffffffffffffff1673ffffffffffffffffffffffffffffffffffffffff16815260200190815260200160002060008381526020019081526020016000206000905550505050565b600060016008805490506122dc9190613615565b905060006009600084815260200190815260200160002054905060006008838154811061230c5761230b6131df565b5b90600052602060002001549050806008838154811061232e5761232d6131df565b5b90600052602060002001819055508160096000838152602001908152602001600020819055506009600085815260200190815260200160002060009055600880548061237d5761237c613c5e565b5b6001900381819060005260206000200160009055905550505050565b60006123a4836109c6565b905081600660008573ffffffffffffffffffffffffffffffffffffffff1673ffffffffffffffffffffffffffffffffffffffff168152602001908152602001600020600083815260200190815260200160002081905550806007600084815260200190815260200160002081905550505050565b600073ffffffffffffffffffffffffffffffffffffffff168273ffffffffffffffffffffffffffffffffffffffff1603612487576040517f08c379a000000000000000000000000000000000000000000000000000000000815260040161247e90613cd9565b60405180910390fd5b61249081610e60565b156124d0576040517f08c379a00000000000000000000000000000000000000000000000000000000081526004016124c790613d45565b60405180910390fd5b6124dc6000838361190f565b6001600360008473ffffffffffffffffffffffffffffffffffffffff1673ffffffffffffffffffffffffffffffffffffffff168152602001908152602001600020600082825461252c9190613649565b92505081905550816002600083815260200190815260200160002060006101000a81548173ffffffffffffffffffffffffffffffffffffffff021916908373ffffffffffffffffffffffffffffffffffffffff160217905550808273ffffffffffffffffffffffffffffffffffffffff16600073ffffffffffffffffffffffffffffffffffffffff167fddf252ad1be2c89b69c2b068fc378daa952ba7f163c4a11628f55a4df523b3ef60405160405180910390a46125ed60008383611967565b5050565b8280546125fd90612db0565b90600052602060002090601f01602090048101928261261f5760008555612666565b82601f1061263857805160ff1916838001178555612666565b82800160010185558215612666579182015b8281111561266557825182559160200191906001019061264a565b5b50905061267391906126b7565b5090565b50805461268390612db0565b6000825580601f1061269557506126b4565b601f0160209004906000526020600020908101906126b391906126b7565b5b50565b5b808211156126d05760008160009055506001016126b8565b5090565b6000604051905090565b600080fd5b600080fd5b60007fffffffff0000000000000000000000000000000000000000000000000000000082169050919050565b61271d816126e8565b811461272857600080fd5b50565b60008135905061273a81612714565b92915050565b600060208284031215612756576127556126de565b5b60006127648482850161272b565b91505092915050565b60008115159050919050565b6127828161276d565b82525050565b600060208201905061279d6000830184612779565b92915050565b600081519050919050565b600082825260208201905092915050565b60005b838110156127dd5780820151818401526020810190506127c2565b838111156127ec576000848401525b50505050565b6000601f19601f8301169050919050565b600061280e826127a3565b61281881856127ae565b93506128288185602086016127bf565b612831816127f2565b840191505092915050565b600060208201905081810360008301526128568184612803565b905092915050565b6000819050919050565b6128718161285e565b811461287c57600080fd5b50565b60008135905061288e81612868565b92915050565b6000602082840312156128aa576128a96126de565b5b60006128b88482850161287f565b91505092915050565b600073ffffffffffffffffffffffffffffffffffffffff82169050919050565b60006128ec826128c1565b9050919050565b6128fc816128e1565b82525050565b600060208201905061291760008301846128f3565b92915050565b612926816128e1565b811461293157600080fd5b50565b6000813590506129438161291d565b92915050565b600080604083850312156129605761295f6126de565b5b600061296e85828601612934565b925050602061297f8582860161287f565b9150509250929050565b6129928161285e565b82525050565b60006020820190506129ad6000830184612989565b92915050565b6000806000606084860312156129cc576129cb6126de565b5b60006129da86828701612934565b93505060206129eb86828701612934565b92505060406129fc8682870161287f565b9150509250925092565b600080fd5b600080fd5b7f4e487b7100000000000000000000000000000000000000000000000000000000600052604160045260246000fd5b612a48826127f2565b810181811067ffffffffffffffff82111715612a6757612a66612a10565b5b80604052505050565b6000612a7a6126d4565b9050612a868282612a3f565b919050565b600067ffffffffffffffff821115612aa657612aa5612a10565b5b612aaf826127f2565b9050602081019050919050565b82818337600083830152505050565b6000612ade612ad984612a8b565b612a70565b905082815260208101848484011115612afa57612af9612a0b565b5b612b05848285612abc565b509392505050565b600082601f830112612b2257612b21612a06565b5b8135612b32848260208601612acb565b91505092915050565b600060208284031215612b5157612b506126de565b5b600082013567ffffffffffffffff811115612b6f57612b6e6126e3565b5b612b7b84828501612b0d565b91505092915050565b600060208284031215612b9a57612b996126de565b5b6000612ba884828501612934565b91505092915050565b612bba8161276d565b8114612bc557600080fd5b50565b600081359050612bd781612bb1565b92915050565b60008060408385031215612bf457612bf36126de565b5b6000612c0285828601612934565b9250506020612c1385828601612bc8565b9150509250929050565b600067ffffffffffffffff821115612c3857612c37612a10565b5b612c41826127f2565b9050602081019050919050565b6000612c61612c5c84612c1d565b612a70565b905082815260208101848484011115612c7d57612c7c612a0b565b5b612c88848285612abc565b509392505050565b600082601f830112612ca557612ca4612a06565b5b8135612cb5848260208601612c4e565b91505092915050565b60008060008060808587031215612cd857612cd76126de565b5b6000612ce687828801612934565b9450506020612cf787828801612934565b9350506040612d088782880161287f565b925050606085013567ffffffffffffffff811115612d2957612d286126e3565b5b612d3587828801612c90565b91505092959194509250565b60008060408385031215612d5857612d576126de565b5b6000612d6685828601612934565b9250506020612d7785828601612934565b9150509250929050565b7f4e487b7100000000000000000000000000000000000000000000000000000000600052602260045260246000fd5b60006002820490506001821680612dc857607f821691505b602082108103612ddb57612dda612d81565b5b50919050565b7f4552433732313a20617070726f76656420717565727920666f72206e6f6e657860008201527f697374656e7420746f6b656e0000000000000000000000000000000000000000602082015250565b6000612e3d602c836127ae565b9150612e4882612de1565b604082019050919050565b60006020820190508181036000830152612e6c81612e30565b9050919050565b7f4552433732313a20617070726f76616c20746f2063757272656e74206f776e6560008201527f7200000000000000000000000000000000000000000000000000000000000000602082015250565b6000612ecf6021836127ae565b9150612eda82612e73565b604082019050919050565b60006020820190508181036000830152612efe81612ec2565b9050919050565b7f4552433732313a20617070726f76652063616c6c6572206973206e6f74206f7760008201527f6e6572206e6f7220617070726f76656420666f7220616c6c0000000000000000602082015250565b6000612f616038836127ae565b9150612f6c82612f05565b604082019050919050565b60006020820190508181036000830152612f9081612f54565b9050919050565b7f4552433732313a207472616e736665722063616c6c6572206973206e6f74206f60008201527f776e6572206e6f7220617070726f766564000000000000000000000000000000602082015250565b6000612ff36031836127ae565b9150612ffe82612f97565b604082019050919050565b6000602082019050818103600083015261302281612fe6565b9050919050565b7f455243373231456e756d657261626c653a206f776e657220696e646578206f7560008201527f74206f6620626f756e6473000000000000000000000000000000000000000000602082015250565b6000613085602b836127ae565b915061309082613029565b604082019050919050565b600060208201905081810360008301526130b481613078565b9050919050565b7f4552433732314275726e61626c653a2063616c6c6572206973206e6f74206f7760008201527f6e6572206e6f7220617070726f76656400000000000000000000000000000000602082015250565b60006131176030836127ae565b9150613122826130bb565b604082019050919050565b600060208201905081810360008301526131468161310a565b9050919050565b7f455243373231456e756d657261626c653a20676c6f62616c20696e646578206f60008201527f7574206f6620626f756e64730000000000000000000000000000000000000000602082015250565b60006131a9602c836127ae565b91506131b48261314d565b604082019050919050565b600060208201905081810360008301526131d88161319c565b9050919050565b7f4e487b7100000000000000000000000000000000000000000000000000000000600052603260045260246000fd5b7f4552433732313a206f776e657220717565727920666f72206e6f6e657869737460008201527f656e7420746f6b656e0000000000000000000000000000000000000000000000602082015250565b600061326a6029836127ae565b91506132758261320e565b604082019050919050565b600060208201905081810360008301526132998161325d565b9050919050565b7f4552433732313a2062616c616e636520717565727920666f7220746865207a6560008201527f726f206164647265737300000000000000000000000000000000000000000000602082015250565b60006132fc602a836127ae565b9150613307826132a0565b604082019050919050565b6000602082019050818103600083015261332b816132ef565b9050919050565b7f4f776e61626c653a2063616c6c6572206973206e6f7420746865206f776e6572600082015250565b60006133686020836127ae565b915061337382613332565b602082019050919050565b600060208201905081810360008301526133978161335b565b9050919050565b7f4f776e61626c653a206e6577206f776e657220697320746865207a65726f206160008201527f6464726573730000000000000000000000000000000000000000000000000000602082015250565b60006133fa6026836127ae565b91506134058261339e565b604082019050919050565b60006020820190508181036000830152613429816133ed565b9050919050565b7f4552433732313a206f70657261746f7220717565727920666f72206e6f6e657860008201527f697374656e7420746f6b656e0000000000000000000000000000000000000000602082015250565b600061348c602c836127ae565b915061349782613430565b604082019050919050565b600060208201905081810360008301526134bb8161347f565b9050919050565b7f4552433732313a207472616e736665722066726f6d20696e636f72726563742060008201527f6f776e6572000000000000000000000000000000000000000000000000000000602082015250565b600061351e6025836127ae565b9150613529826134c2565b604082019050919050565b6000602082019050818103600083015261354d81613511565b9050919050565b7f4552433732313a207472616e7366657220746f20746865207a65726f2061646460008201527f7265737300000000000000000000000000000000000000000000000000000000602082015250565b60006135b06024836127ae565b91506135bb82613554565b604082019050919050565b600060208201905081810360008301526135df816135a3565b9050919050565b7f4e487b7100000000000000000000000000000000000000000000000000000000600052601160045260246000fd5b60006136208261285e565b915061362b8361285e565b92508282101561363e5761363d6135e6565b5b828203905092915050565b60006136548261285e565b915061365f8361285e565b9250827fffffffffffffffffffffffffffffffffffffffffffffffffffffffffffffffff03821115613694576136936135e6565b5b828201905092915050565b600081905092915050565b60006136b5826127a3565b6136bf818561369f565b93506136cf8185602086016127bf565b80840191505092915050565b60006136e782846136aa565b915081905092915050565b7f55524c20616c7265616479206d696e7465640000000000000000000000000000600082015250565b60006137286012836127ae565b9150613733826136f2565b602082019050919050565b600060208201905081810360008301526137578161371b565b9050919050565b60006137698261285e565b91507fffffffffffffffffffffffffffffffffffffffffffffffffffffffffffffffff820361379b5761379a6135e6565b5b600182019050919050565b7f4552433732313a20617070726f766520746f2063616c6c657200000000000000600082015250565b60006137dc6019836127ae565b91506137e7826137a6565b602082019050919050565b6000602082019050818103600083015261380b816137cf565b9050919050565b7f4552433732313a207472616e7366657220746f206e6f6e20455243373231526560008201527f63656976657220696d706c656d656e7465720000000000000000000000000000602082015250565b600061386e6032836127ae565b915061387982613812565b604082019050919050565b6000602082019050818103600083015261389d81613861565b9050919050565b7f45524337323155524953746f726167653a2055524920717565727920666f722060008201527f6e6f6e6578697374656e7420746f6b656e000000000000000000000000000000602082015250565b60006139006031836127ae565b915061390b826138a4565b604082019050919050565b6000602082019050818103600083015261392f816138f3565b9050919050565b600061394282856136aa565b915061394e82846136aa565b91508190509392505050565b7f5061757361626c653a2070617573656400000000000000000000000000000000600082015250565b60006139906010836127ae565b915061399b8261395a565b602082019050919050565b600060208201905081810360008301526139bf81613983565b9050919050565b7f45524337323155524953746f726167653a2055524920736574206f66206e6f6e60008201527f6578697374656e7420746f6b656e000000000000000000000000000000000000602082015250565b6000613a22602e836127ae565b9150613a2d826139c6565b604082019050919050565b60006020820190508181036000830152613a5181613a15565b9050919050565b600081519050919050565b600082825260208201905092915050565b6000613a7f82613a58565b613a898185613a63565b9350613a998185602086016127bf565b613aa2816127f2565b840191505092915050565b6000608082019050613ac260008301876128f3565b613acf60208301866128f3565b613adc6040830185612989565b8181036060830152613aee8184613a74565b905095945050505050565b600081519050613b0881612714565b92915050565b600060208284031215613b2457613b236126de565b5b6000613b3284828501613af9565b91505092915050565b7f4552433732314d657461646174613a2055524920717565727920666f72206e6f60008201527f6e6578697374656e7420746f6b656e0000000000000000000000000000000000602082015250565b6000613b97602f836127ae565b9150613ba282613b3b565b604082019050919050565b60006020820190508181036000830152613bc681613b8a565b9050919050565b7f4e487b7100000000000000000000000000000000000000000000000000000000600052601260045260246000fd5b6000613c078261285e565b9150613c128361285e565b925082613c2257613c21613bcd565b5b828204905092915050565b6000613c388261285e565b9150613c438361285e565b925082613c5357613c52613bcd565b5b828206905092915050565b7f4e487b7100000000000000000000000000000000000000000000000000000000600052603160045260246000fd5b7f4552433732313a206d696e7420746f20746865207a65726f2061646472657373600082015250565b6000613cc36020836127ae565b9150613cce82613c8d565b602082019050919050565b60006020820190508181036000830152613cf281613cb6565b9050919050565b7f4552433732313a20746f6b656e20616c7265616479206d696e74656400000000600082015250565b6000613d2f601c836127ae565b9150613d3a82613cf9565b602082019050919050565b60006020820190508181036000830152613d5e81613d22565b905091905056fea264697066735822122012cbe1cfbe615b89d2956ea4e29d449b28abf1b18448debdf5f8479c6a9e3d4f64736f6c634300080d0033",
  "immutableReferences": {},
  "source": "// SPDX-License-Identifier: MIT\r\npragma solidity ^0.8.9;\r\n\r\nimport \"@openzeppelin/contracts/access/Ownable.sol\";\r\nimport \"@openzeppelin/contracts/security/Pausable.sol\";\r\nimport \"@openzeppelin/contracts/token/ERC721/ERC721.sol\";\r\nimport \"@openzeppelin/contracts/token/ERC721/extensions/ERC721Enumerable.sol\";\r\nimport \"@openzeppelin/contracts/token/ERC721/extensions/ERC721URIStorage.sol\";\r\nimport \"@openzeppelin/contracts/token/ERC721/extensions/ERC721Burnable.sol\";\r\nimport \"@openzeppelin/contracts/utils/Counters.sol\";\r\n\r\ncontract NFT is ERC721, ERC721Enumerable, ERC721URIStorage, Pausable, Ownable, ERC721Burnable{\r\n\tconstructor() ERC721(\"Coolest NFT\", \"NFT\") {}\r\n\r\n\t//Counters.Counter private _tokenIdCounter;\r\n    uint public tokenIdCounter;\r\n\r\n    struct NFTMetadata {\r\n        bool exists;\r\n        // a.k.a. creator of the NFT\r\n        address minter;\r\n        // For market listing\r\n        string publicTokenURI;\r\n    }\r\n\r\n    mapping(string => uint) private _tokenUriToId;\r\n\r\n    mapping(uint256 => NFTMetadata) private _metadata;\r\n\r\n\tfunction safeMint(\r\n        string memory publicTokenURI\r\n    ) public returns(uint256 tokenId) {\r\n        return _safeMintFor(publicTokenURI);\r\n    }\r\n\r\n    function _safeMintFor(\r\n        string memory publicTokenURI\r\n    ) private returns(uint256 tokenId) {\r\n        require(_tokenUriToId[publicTokenURI] == 0, \"URL already minted\");\r\n\r\n        //_tokenIdCounter.value += 1;\r\n        tokenIdCounter++;\r\n        tokenId = tokenIdCounter;\r\n        // Owned by the sender. For safeMintFor, sender = owner = marketplace (escrow).\r\n        // But someone can mint directly as well.\r\n        _safeMint(_msgSender(), tokenIdCounter);\r\n        _setTokenURI(tokenIdCounter, publicTokenURI);\r\n\r\n        // Marketplace should be able to manage items on behalf of the token owner\r\n        // _setApprovalForAll(minter, owner(), true);\r\n        _metadata[tokenId] = NFTMetadata({\r\n            exists: true,\r\n            minter: msg.sender,\r\n            publicTokenURI: publicTokenURI\r\n        });\r\n    }\r\n\r\n    function _beforeTokenTransfer(address from, address to, uint256 tokenId)\r\n        internal whenNotPaused override(ERC721, ERC721Enumerable) {\r\n        super._beforeTokenTransfer(from, to, tokenId);\r\n    }\r\n\r\n    // The following functions are overrides required by Solidity.\r\n\r\n    function _burn(uint256 tokenId) internal override(ERC721, ERC721URIStorage) {\r\n        super._burn(tokenId);\r\n    }\r\n\r\n    function tokenURI(uint256 tokenId) public view override(ERC721, ERC721URIStorage) returns (string memory) {\r\n        return super.tokenURI(tokenId);\r\n    }\r\n\r\n    function supportsInterface(bytes4 interfaceId)\r\n        public\r\n        view\r\n        override(ERC721, ERC721Enumerable)\r\n        returns (bool) {\r\n        return super.supportsInterface(interfaceId);\r\n    }\r\n\r\n    function lastTokenId() public returns (uint) {\r\n        return tokenIdCounter;\r\n    }\r\n}",
  "sourcePath": "C:\\Vatsal\\DUMBASS_PRODUCTIONS\\MintMart\\contracts\\NFT.sol",
  "compiler": {
    "name": "solc",
    "version": "0.8.13+commit.abaa5c0e.Emscripten.clang"
  },
  "schemaVersion": "3.4.11",
  "updatedAt": "2023-04-23T22:16:15.955Z",
  "networkType": "ethereum",
  "devdoc": {
    "kind": "dev",
    "methods": {
      "approve(address,uint256)": {
        "details": "See {IERC721-approve}."
      },
      "balanceOf(address)": {
        "details": "See {IERC721-balanceOf}."
      },
      "burn(uint256)": {
        "details": "Burns `tokenId`. See {ERC721-_burn}. Requirements: - The caller must own `tokenId` or be an approved operator."
      },
      "getApproved(uint256)": {
        "details": "See {IERC721-getApproved}."
      },
      "isApprovedForAll(address,address)": {
        "details": "See {IERC721-isApprovedForAll}."
      },
      "name()": {
        "details": "See {IERC721Metadata-name}."
      },
      "owner()": {
        "details": "Returns the address of the current owner."
      },
      "ownerOf(uint256)": {
        "details": "See {IERC721-ownerOf}."
      },
      "paused()": {
        "details": "Returns true if the contract is paused, and false otherwise."
      },
      "renounceOwnership()": {
        "details": "Leaves the contract without owner. It will not be possible to call `onlyOwner` functions anymore. Can only be called by the current owner. NOTE: Renouncing ownership will leave the contract without an owner, thereby removing any functionality that is only available to the owner."
      },
      "safeTransferFrom(address,address,uint256)": {
        "details": "See {IERC721-safeTransferFrom}."
      },
      "safeTransferFrom(address,address,uint256,bytes)": {
        "details": "See {IERC721-safeTransferFrom}."
      },
      "setApprovalForAll(address,bool)": {
        "details": "See {IERC721-setApprovalForAll}."
      },
      "symbol()": {
        "details": "See {IERC721Metadata-symbol}."
      },
      "tokenByIndex(uint256)": {
        "details": "See {IERC721Enumerable-tokenByIndex}."
      },
      "tokenOfOwnerByIndex(address,uint256)": {
        "details": "See {IERC721Enumerable-tokenOfOwnerByIndex}."
      },
      "totalSupply()": {
        "details": "See {IERC721Enumerable-totalSupply}."
      },
      "transferFrom(address,address,uint256)": {
        "details": "See {IERC721-transferFrom}."
      },
      "transferOwnership(address)": {
        "details": "Transfers ownership of the contract to a new account (`newOwner`). Can only be called by the current owner."
      }
    },
    "version": 1
  },
  "userdoc": {
    "kind": "user",
    "methods": {},
    "version": 1
  }
}