{
  "contractName": "NFT",
  "abi": [
    {
      "inputs": [],
      "stateMutability": "nonpayable",
      "type": "constructor"
    },
    {
      "anonymous": false,
      "inputs": [
        {
          "indexed": true,
          "internalType": "address",
          "name": "owner",
          "type": "address"
        },
        {
          "indexed": true,
          "internalType": "address",
          "name": "approved",
          "type": "address"
        },
        {
          "indexed": true,
          "internalType": "uint256",
          "name": "tokenId",
          "type": "uint256"
        }
      ],
      "name": "Approval",
      "type": "event"
    },
    {
      "anonymous": false,
      "inputs": [
        {
          "indexed": true,
          "internalType": "address",
          "name": "owner",
          "type": "address"
        },
        {
          "indexed": true,
          "internalType": "address",
          "name": "operator",
          "type": "address"
        },
        {
          "indexed": false,
          "internalType": "bool",
          "name": "approved",
          "type": "bool"
        }
      ],
      "name": "ApprovalForAll",
      "type": "event"
    },
    {
      "anonymous": false,
      "inputs": [
        {
          "indexed": true,
          "internalType": "address",
          "name": "previousOwner",
          "type": "address"
        },
        {
          "indexed": true,
          "internalType": "address",
          "name": "newOwner",
          "type": "address"
        }
      ],
      "name": "OwnershipTransferred",
      "type": "event"
    },
    {
      "anonymous": false,
      "inputs": [
        {
          "indexed": false,
          "internalType": "address",
          "name": "account",
          "type": "address"
        }
      ],
      "name": "Paused",
      "type": "event"
    },
    {
      "anonymous": false,
      "inputs": [
        {
          "indexed": true,
          "internalType": "address",
          "name": "from",
          "type": "address"
        },
        {
          "indexed": true,
          "internalType": "address",
          "name": "to",
          "type": "address"
        },
        {
          "indexed": true,
          "internalType": "uint256",
          "name": "tokenId",
          "type": "uint256"
        }
      ],
      "name": "Transfer",
      "type": "event"
    },
    {
      "anonymous": false,
      "inputs": [
        {
          "indexed": false,
          "internalType": "address",
          "name": "account",
          "type": "address"
        }
      ],
      "name": "Unpaused",
      "type": "event"
    },
    {
      "inputs": [
        {
          "internalType": "address",
          "name": "to",
          "type": "address"
        },
        {
          "internalType": "uint256",
          "name": "tokenId",
          "type": "uint256"
        }
      ],
      "name": "approve",
      "outputs": [],
      "stateMutability": "nonpayable",
      "type": "function"
    },
    {
      "inputs": [
        {
          "internalType": "address",
          "name": "owner",
          "type": "address"
        }
      ],
      "name": "balanceOf",
      "outputs": [
        {
          "internalType": "uint256",
          "name": "",
          "type": "uint256"
        }
      ],
      "stateMutability": "view",
      "type": "function",
      "constant": true
    },
    {
      "inputs": [
        {
          "internalType": "uint256",
          "name": "tokenId",
          "type": "uint256"
        }
      ],
      "name": "burn",
      "outputs": [],
      "stateMutability": "nonpayable",
      "type": "function"
    },
    {
      "inputs": [
        {
          "internalType": "uint256",
          "name": "tokenId",
          "type": "uint256"
        }
      ],
      "name": "getApproved",
      "outputs": [
        {
          "internalType": "address",
          "name": "",
          "type": "address"
        }
      ],
      "stateMutability": "view",
      "type": "function",
      "constant": true
    },
    {
      "inputs": [
        {
          "internalType": "address",
          "name": "owner",
          "type": "address"
        },
        {
          "internalType": "address",
          "name": "operator",
          "type": "address"
        }
      ],
      "name": "isApprovedForAll",
      "outputs": [
        {
          "internalType": "bool",
          "name": "",
          "type": "bool"
        }
      ],
      "stateMutability": "view",
      "type": "function",
      "constant": true
    },
    {
      "inputs": [],
      "name": "name",
      "outputs": [
        {
          "internalType": "string",
          "name": "",
          "type": "string"
        }
      ],
      "stateMutability": "view",
      "type": "function",
      "constant": true
    },
    {
      "inputs": [],
      "name": "owner",
      "outputs": [
        {
          "internalType": "address",
          "name": "",
          "type": "address"
        }
      ],
      "stateMutability": "view",
      "type": "function",
      "constant": true
    },
    {
      "inputs": [
        {
          "internalType": "uint256",
          "name": "tokenId",
          "type": "uint256"
        }
      ],
      "name": "ownerOf",
      "outputs": [
        {
          "internalType": "address",
          "name": "",
          "type": "address"
        }
      ],
      "stateMutability": "view",
      "type": "function",
      "constant": true
    },
    {
      "inputs": [],
      "name": "paused",
      "outputs": [
        {
          "internalType": "bool",
          "name": "",
          "type": "bool"
        }
      ],
      "stateMutability": "view",
      "type": "function",
      "constant": true
    },
    {
      "inputs": [],
      "name": "renounceOwnership",
      "outputs": [],
      "stateMutability": "nonpayable",
      "type": "function"
    },
    {
      "inputs": [
        {
          "internalType": "address",
          "name": "from",
          "type": "address"
        },
        {
          "internalType": "address",
          "name": "to",
          "type": "address"
        },
        {
          "internalType": "uint256",
          "name": "tokenId",
          "type": "uint256"
        }
      ],
      "name": "safeTransferFrom",
      "outputs": [],
      "stateMutability": "nonpayable",
      "type": "function"
    },
    {
      "inputs": [
        {
          "internalType": "address",
          "name": "from",
          "type": "address"
        },
        {
          "internalType": "address",
          "name": "to",
          "type": "address"
        },
        {
          "internalType": "uint256",
          "name": "tokenId",
          "type": "uint256"
        },
        {
          "internalType": "bytes",
          "name": "data",
          "type": "bytes"
        }
      ],
      "name": "safeTransferFrom",
      "outputs": [],
      "stateMutability": "nonpayable",
      "type": "function"
    },
    {
      "inputs": [
        {
          "internalType": "address",
          "name": "operator",
          "type": "address"
        },
        {
          "internalType": "bool",
          "name": "approved",
          "type": "bool"
        }
      ],
      "name": "setApprovalForAll",
      "outputs": [],
      "stateMutability": "nonpayable",
      "type": "function"
    },
    {
      "inputs": [],
      "name": "symbol",
      "outputs": [
        {
          "internalType": "string",
          "name": "",
          "type": "string"
        }
      ],
      "stateMutability": "view",
      "type": "function",
      "constant": true
    },
    {
      "inputs": [
        {
          "internalType": "uint256",
          "name": "index",
          "type": "uint256"
        }
      ],
      "name": "tokenByIndex",
      "outputs": [
        {
          "internalType": "uint256",
          "name": "",
          "type": "uint256"
        }
      ],
      "stateMutability": "view",
      "type": "function",
      "constant": true
    },
    {
      "inputs": [],
      "name": "tokenIdCounter",
      "outputs": [
        {
          "internalType": "uint256",
          "name": "",
          "type": "uint256"
        }
      ],
      "stateMutability": "view",
      "type": "function",
      "constant": true
    },
    {
      "inputs": [
        {
          "internalType": "address",
          "name": "owner",
          "type": "address"
        },
        {
          "internalType": "uint256",
          "name": "index",
          "type": "uint256"
        }
      ],
      "name": "tokenOfOwnerByIndex",
      "outputs": [
        {
          "internalType": "uint256",
          "name": "",
          "type": "uint256"
        }
      ],
      "stateMutability": "view",
      "type": "function",
      "constant": true
    },
    {
      "inputs": [],
      "name": "totalSupply",
      "outputs": [
        {
          "internalType": "uint256",
          "name": "",
          "type": "uint256"
        }
      ],
      "stateMutability": "view",
      "type": "function",
      "constant": true
    },
    {
      "inputs": [
        {
          "internalType": "address",
          "name": "from",
          "type": "address"
        },
        {
          "internalType": "address",
          "name": "to",
          "type": "address"
        },
        {
          "internalType": "uint256",
          "name": "tokenId",
          "type": "uint256"
        }
      ],
      "name": "transferFrom",
      "outputs": [],
      "stateMutability": "nonpayable",
      "type": "function"
    },
    {
      "inputs": [
        {
          "internalType": "address",
          "name": "newOwner",
          "type": "address"
        }
      ],
      "name": "transferOwnership",
      "outputs": [],
      "stateMutability": "nonpayable",
      "type": "function"
    },
    {
      "inputs": [
        {
          "internalType": "string",
          "name": "publicTokenURI",
          "type": "string"
        }
      ],
      "name": "safeMint",
      "outputs": [
        {
          "internalType": "uint256",
          "name": "tokenId",
          "type": "uint256"
        }
      ],
      "stateMutability": "nonpayable",
      "type": "function"
    },
    {
      "inputs": [
        {
          "internalType": "uint256",
          "name": "tokenId",
          "type": "uint256"
        }
      ],
      "name": "tokenURI",
      "outputs": [
        {
          "internalType": "string",
          "name": "",
          "type": "string"
        }
      ],
      "stateMutability": "view",
      "type": "function",
      "constant": true
    },
    {
      "inputs": [
        {
          "internalType": "bytes4",
          "name": "interfaceId",
          "type": "bytes4"
        }
      ],
      "name": "supportsInterface",
      "outputs": [
        {
          "internalType": "bool",
          "name": "",
          "type": "bool"
        }
      ],
      "stateMutability": "view",
      "type": "function",
      "constant": true
    },
    {
      "inputs": [],
      "name": "lastTokenId",
      "outputs": [
        {
          "internalType": "uint256",
          "name": "",
          "type": "uint256"
        }
      ],
      "stateMutability": "nonpayable",
      "type": "function"
    }
  ],
  "bytecode": "0x60806040523480156200001157600080fd5b506040518060400160405280600881526020017f507972616d696e740000000000000000000000000000000000000000000000008152506040518060400160405280600381526020017f50594d0000000000000000000000000000000000000000000000000000000000815250816000908051906020019062000096929190620001c1565b508060019080519060200190620000af929190620001c1565b5050506000600b60006101000a81548160ff021916908315150217905550620000ed620000e1620000f360201b60201c565b620000fb60201b60201c565b620002d5565b600033905090565b6000600b60019054906101000a900473ffffffffffffffffffffffffffffffffffffffff16905081600b60016101000a81548173ffffffffffffffffffffffffffffffffffffffff021916908373ffffffffffffffffffffffffffffffffffffffff1602179055508173ffffffffffffffffffffffffffffffffffffffff168173ffffffffffffffffffffffffffffffffffffffff167f8be0079c531659141344cd1fd0a4f28419497f9722a3daafe3b4186f6b6457e060405160405180910390a35050565b828054620001cf90620002a0565b90600052602060002090601f016020900481019282620001f357600085556200023f565b82601f106200020e57805160ff19168380011785556200023f565b828001600101855582156200023f579182015b828111156200023e57825182559160200191906001019062000221565b5b5090506200024e919062000252565b5090565b5b808211156200026d57600081600090555060010162000253565b5090565b7f4e487b7100000000000000000000000000000000000000000000000000000000600052602260045260246000fd5b60006002820490506001821680620002b957607f821691505b602082108103620002cf57620002ce62000271565b5b50919050565b613b5a80620002e56000396000f3fe608060405234801561001057600080fd5b50600436106101585760003560e01c8063695850fb116100c3578063a22cb4651161007c578063a22cb465146103db578063b88d4fde146103f7578063c87b56dd14610413578063e985e9c514610443578063f2fde38b14610473578063f84ddf0b1461048f57610158565b8063695850fb1461031757806370a0823114610347578063715018a6146103775780638da5cb5b1461038157806395d89b411461039f57806398bdf6f5146103bd57610158565b80632f745c59116101155780632f745c591461023157806342842e0e1461026157806342966c681461027d5780634f6ccce7146102995780635c975abb146102c95780636352211e146102e757610158565b806301ffc9a71461015d57806306fdde031461018d578063081812fc146101ab578063095ea7b3146101db57806318160ddd146101f757806323b872dd14610215575b600080fd5b61017760048036038101906101729190612825565b6104ad565b604051610184919061286d565b60405180910390f35b6101956104bf565b6040516101a29190612921565b60405180910390f35b6101c560048036038101906101c09190612979565b610551565b6040516101d291906129e7565b60405180910390f35b6101f560048036038101906101f09190612a2e565b610597565b005b6101ff6106ae565b60405161020c9190612a7d565b60405180910390f35b61022f600480360381019061022a9190612a98565b6106bb565b005b61024b60048036038101906102469190612a2e565b61071b565b6040516102589190612a7d565b60405180910390f35b61027b60048036038101906102769190612a98565b6107c0565b005b61029760048036038101906102929190612979565b6107e0565b005b6102b360048036038101906102ae9190612979565b61083c565b6040516102c09190612a7d565b60405180910390f35b6102d16108ad565b6040516102de919061286d565b60405180910390f35b61030160048036038101906102fc9190612979565b6108c4565b60405161030e91906129e7565b60405180910390f35b610331600480360381019061032c9190612c20565b61094a565b60405161033e9190612a7d565b60405180910390f35b610361600480360381019061035c9190612c69565b61095c565b60405161036e9190612a7d565b60405180910390f35b61037f610a13565b005b610389610a27565b60405161039691906129e7565b60405180910390f35b6103a7610a51565b6040516103b49190612921565b60405180910390f35b6103c5610ae3565b6040516103d29190612a7d565b60405180910390f35b6103f560048036038101906103f09190612cc2565b610ae9565b005b610411600480360381019061040c9190612da3565b610aff565b005b61042d60048036038101906104289190612979565b610b61565b60405161043a9190612921565b60405180910390f35b61045d60048036038101906104589190612e26565b610b73565b60405161046a919061286d565b60405180910390f35b61048d60048036038101906104889190612c69565b610c07565b005b610497610c8a565b6040516104a49190612a7d565b60405180910390f35b60006104b882610c94565b9050919050565b6060600080546104ce90612e95565b80601f01602080910402602001604051908101604052809291908181526020018280546104fa90612e95565b80156105475780601f1061051c57610100808354040283529160200191610547565b820191906000526020600020905b81548152906001019060200180831161052a57829003601f168201915b5050505050905090565b600061055c82610d0e565b6004600083815260200190815260200160002060009054906101000a900473ffffffffffffffffffffffffffffffffffffffff169050919050565b60006105a2826108c4565b90508073ffffffffffffffffffffffffffffffffffffffff168373ffffffffffffffffffffffffffffffffffffffff1603610612576040517f08c379a000000000000000000000000000000000000000000000000000000000815260040161060990612f38565b60405180910390fd5b8073ffffffffffffffffffffffffffffffffffffffff16610631610d59565b73ffffffffffffffffffffffffffffffffffffffff161480610660575061065f8161065a610d59565b610b73565b5b61069f576040517f08c379a000000000000000000000000000000000000000000000000000000000815260040161069690612fca565b60405180910390fd5b6106a98383610d61565b505050565b6000600880549050905090565b6106cc6106c6610d59565b82610e1a565b61070b576040517f08c379a00000000000000000000000000000000000000000000000000000000081526004016107029061305c565b60405180910390fd5b610716838383610eaf565b505050565b60006107268361095c565b8210610767576040517f08c379a000000000000000000000000000000000000000000000000000000000815260040161075e906130ee565b60405180910390fd5b600660008473ffffffffffffffffffffffffffffffffffffffff1673ffffffffffffffffffffffffffffffffffffffff168152602001908152602001600020600083815260200190815260200160002054905092915050565b6107db83838360405180602001604052806000815250610aff565b505050565b6107f16107eb610d59565b82610e1a565b610830576040517f08c379a00000000000000000000000000000000000000000000000000000000081526004016108279061305c565b60405180910390fd5b610839816111a8565b50565b60006108466106ae565b8210610887576040517f08c379a000000000000000000000000000000000000000000000000000000000815260040161087e90613180565b60405180910390fd5b6008828154811061089b5761089a6131a0565b5b90600052602060002001549050919050565b6000600b60009054906101000a900460ff16905090565b6000806108d0836111b4565b9050600073ffffffffffffffffffffffffffffffffffffffff168173ffffffffffffffffffffffffffffffffffffffff1603610941576040517f08c379a00000000000000000000000000000000000000000000000000000000081526004016109389061321b565b60405180910390fd5b80915050919050565b6000610955826111f1565b9050919050565b60008073ffffffffffffffffffffffffffffffffffffffff168273ffffffffffffffffffffffffffffffffffffffff16036109cc576040517f08c379a00000000000000000000000000000000000000000000000000000000081526004016109c3906132ad565b60405180910390fd5b600360008373ffffffffffffffffffffffffffffffffffffffff1673ffffffffffffffffffffffffffffffffffffffff168152602001908152602001600020549050919050565b610a1b611362565b610a2560006113e0565b565b6000600b60019054906101000a900473ffffffffffffffffffffffffffffffffffffffff16905090565b606060018054610a6090612e95565b80601f0160208091040260200160405190810160405280929190818152602001828054610a8c90612e95565b8015610ad95780601f10610aae57610100808354040283529160200191610ad9565b820191906000526020600020905b815481529060010190602001808311610abc57829003601f168201915b5050505050905090565b600c5481565b610afb610af4610d59565b83836114a6565b5050565b610b10610b0a610d59565b83610e1a565b610b4f576040517f08c379a0000000000000000000000000000000000000000000000000000000008152600401610b469061305c565b60405180910390fd5b610b5b84848484611612565b50505050565b6060610b6c8261166e565b9050919050565b6000600560008473ffffffffffffffffffffffffffffffffffffffff1673ffffffffffffffffffffffffffffffffffffffff16815260200190815260200160002060008373ffffffffffffffffffffffffffffffffffffffff1673ffffffffffffffffffffffffffffffffffffffff16815260200190815260200160002060009054906101000a900460ff16905092915050565b610c0f611362565b600073ffffffffffffffffffffffffffffffffffffffff168173ffffffffffffffffffffffffffffffffffffffff1603610c7e576040517f08c379a0000000000000000000000000000000000000000000000000000000008152600401610c759061333f565b60405180910390fd5b610c87816113e0565b50565b6000600c54905090565b60007f780e9d63000000000000000000000000000000000000000000000000000000007bffffffffffffffffffffffffffffffffffffffffffffffffffffffff1916827bffffffffffffffffffffffffffffffffffffffffffffffffffffffff19161480610d075750610d0682611780565b5b9050919050565b610d1781611862565b610d56576040517f08c379a0000000000000000000000000000000000000000000000000000000008152600401610d4d9061321b565b60405180910390fd5b50565b600033905090565b816004600083815260200190815260200160002060006101000a81548173ffffffffffffffffffffffffffffffffffffffff021916908373ffffffffffffffffffffffffffffffffffffffff160217905550808273ffffffffffffffffffffffffffffffffffffffff16610dd4836108c4565b73ffffffffffffffffffffffffffffffffffffffff167f8c5be1e5ebec7d5bd14f71427d1e84f3dd0314c0f7b2291e5b200ac8c7c3b92560405160405180910390a45050565b600080610e26836108c4565b90508073ffffffffffffffffffffffffffffffffffffffff168473ffffffffffffffffffffffffffffffffffffffff161480610e685750610e678185610b73565b5b80610ea657508373ffffffffffffffffffffffffffffffffffffffff16610e8e84610551565b73ffffffffffffffffffffffffffffffffffffffff16145b91505092915050565b8273ffffffffffffffffffffffffffffffffffffffff16610ecf826108c4565b73ffffffffffffffffffffffffffffffffffffffff1614610f25576040517f08c379a0000000000000000000000000000000000000000000000000000000008152600401610f1c906133d1565b60405180910390fd5b600073ffffffffffffffffffffffffffffffffffffffff168273ffffffffffffffffffffffffffffffffffffffff1603610f94576040517f08c379a0000000000000000000000000000000000000000000000000000000008152600401610f8b90613463565b60405180910390fd5b610fa183838360016118a3565b8273ffffffffffffffffffffffffffffffffffffffff16610fc1826108c4565b73ffffffffffffffffffffffffffffffffffffffff1614611017576040517f08c379a000000000000000000000000000000000000000000000000000000000815260040161100e906133d1565b60405180910390fd5b6004600082815260200190815260200160002060006101000a81549073ffffffffffffffffffffffffffffffffffffffff02191690556001600360008573ffffffffffffffffffffffffffffffffffffffff1673ffffffffffffffffffffffffffffffffffffffff168152602001908152602001600020600082825403925050819055506001600360008473ffffffffffffffffffffffffffffffffffffffff1673ffffffffffffffffffffffffffffffffffffffff16815260200190815260200160002060008282540192505081905550816002600083815260200190815260200160002060006101000a81548173ffffffffffffffffffffffffffffffffffffffff021916908373ffffffffffffffffffffffffffffffffffffffff160217905550808273ffffffffffffffffffffffffffffffffffffffff168473ffffffffffffffffffffffffffffffffffffffff167fddf252ad1be2c89b69c2b068fc378daa952ba7f163c4a11628f55a4df523b3ef60405160405180910390a46111a383838360016118bd565b505050565b6111b1816118c3565b50565b60006002600083815260200190815260200160002060009054906101000a900473ffffffffffffffffffffffffffffffffffffffff169050919050565b600080600d8360405161120491906134bf565b90815260200160405180910390205414611253576040517f08c379a000000000000000000000000000000000000000000000000000000000815260040161124a90613522565b60405180910390fd5b600c600081548092919061126690613571565b9190505550600c54905061128361127b610d59565b600c54611916565b61128f600c5483611934565b60405180606001604052806001151581526020013373ffffffffffffffffffffffffffffffffffffffff16815260200183815250600e600083815260200190815260200160002060008201518160000160006101000a81548160ff02191690831515021790555060208201518160000160016101000a81548173ffffffffffffffffffffffffffffffffffffffff021916908373ffffffffffffffffffffffffffffffffffffffff16021790555060408201518160010190805190602001906113599291906126d6565b50905050919050565b61136a610d59565b73ffffffffffffffffffffffffffffffffffffffff16611388610a27565b73ffffffffffffffffffffffffffffffffffffffff16146113de576040517f08c379a00000000000000000000000000000000000000000000000000000000081526004016113d590613605565b60405180910390fd5b565b6000600b60019054906101000a900473ffffffffffffffffffffffffffffffffffffffff16905081600b60016101000a81548173ffffffffffffffffffffffffffffffffffffffff021916908373ffffffffffffffffffffffffffffffffffffffff1602179055508173ffffffffffffffffffffffffffffffffffffffff168173ffffffffffffffffffffffffffffffffffffffff167f8be0079c531659141344cd1fd0a4f28419497f9722a3daafe3b4186f6b6457e060405160405180910390a35050565b8173ffffffffffffffffffffffffffffffffffffffff168373ffffffffffffffffffffffffffffffffffffffff1603611514576040517f08c379a000000000000000000000000000000000000000000000000000000000815260040161150b90613671565b60405180910390fd5b80600560008573ffffffffffffffffffffffffffffffffffffffff1673ffffffffffffffffffffffffffffffffffffffff16815260200190815260200160002060008473ffffffffffffffffffffffffffffffffffffffff1673ffffffffffffffffffffffffffffffffffffffff16815260200190815260200160002060006101000a81548160ff0219169083151502179055508173ffffffffffffffffffffffffffffffffffffffff168373ffffffffffffffffffffffffffffffffffffffff167f17307eab39ab6107e8899845ad3d59bd9653f200f220920489ca2b5937696c3183604051611605919061286d565b60405180910390a3505050565b61161d848484610eaf565b611629848484846119a8565b611668576040517f08c379a000000000000000000000000000000000000000000000000000000000815260040161165f90613703565b60405180910390fd5b50505050565b606061167982610d0e565b6000600a6000848152602001908152602001600020805461169990612e95565b80601f01602080910402602001604051908101604052809291908181526020018280546116c590612e95565b80156117125780601f106116e757610100808354040283529160200191611712565b820191906000526020600020905b8154815290600101906020018083116116f557829003601f168201915b505050505090506000611723611b2f565b9050600081510361173857819250505061177b565b60008251111561176d578082604051602001611755929190613723565b6040516020818303038152906040529250505061177b565b61177684611b46565b925050505b919050565b60007f80ac58cd000000000000000000000000000000000000000000000000000000007bffffffffffffffffffffffffffffffffffffffffffffffffffffffff1916827bffffffffffffffffffffffffffffffffffffffffffffffffffffffff1916148061184b57507f5b5e139f000000000000000000000000000000000000000000000000000000007bffffffffffffffffffffffffffffffffffffffffffffffffffffffff1916827bffffffffffffffffffffffffffffffffffffffffffffffffffffffff1916145b8061185b575061185a82611bae565b5b9050919050565b60008073ffffffffffffffffffffffffffffffffffffffff16611884836111b4565b73ffffffffffffffffffffffffffffffffffffffff1614159050919050565b6118ab611c18565b6118b784848484611c62565b50505050565b50505050565b6118cc81611dc0565b6000600a600083815260200190815260200160002080546118ec90612e95565b90501461191357600a60008281526020019081526020016000206000611912919061275c565b5b50565b611930828260405180602001604052806000815250611f0e565b5050565b61193d82611862565b61197c576040517f08c379a0000000000000000000000000000000000000000000000000000000008152600401611973906137b9565b60405180910390fd5b80600a600084815260200190815260200160002090805190602001906119a39291906126d6565b505050565b60006119c98473ffffffffffffffffffffffffffffffffffffffff16611f69565b15611b22578373ffffffffffffffffffffffffffffffffffffffff1663150b7a026119f2610d59565b8786866040518563ffffffff1660e01b8152600401611a14949392919061382e565b6020604051808303816000875af1925050508015611a5057506040513d601f19601f82011682018060405250810190611a4d919061388f565b60015b611ad2573d8060008114611a80576040519150601f19603f3d011682016040523d82523d6000602084013e611a85565b606091505b506000815103611aca576040517f08c379a0000000000000000000000000000000000000000000000000000000008152600401611ac190613703565b60405180910390fd5b805181602001fd5b63150b7a0260e01b7bffffffffffffffffffffffffffffffffffffffffffffffffffffffff1916817bffffffffffffffffffffffffffffffffffffffffffffffffffffffff191614915050611b27565b600190505b949350505050565b606060405180602001604052806000815250905090565b6060611b5182610d0e565b6000611b5b611b2f565b90506000815111611b7b5760405180602001604052806000815250611ba6565b80611b8584611f8c565b604051602001611b96929190613723565b6040516020818303038152906040525b915050919050565b60007f01ffc9a7000000000000000000000000000000000000000000000000000000007bffffffffffffffffffffffffffffffffffffffffffffffffffffffff1916827bffffffffffffffffffffffffffffffffffffffffffffffffffffffff1916149050919050565b611c206108ad565b15611c60576040517f08c379a0000000000000000000000000000000000000000000000000000000008152600401611c5790613908565b60405180910390fd5b565b611c6e8484848461205a565b6001811115611cb2576040517f08c379a0000000000000000000000000000000000000000000000000000000008152600401611ca99061399a565b60405180910390fd5b6000829050600073ffffffffffffffffffffffffffffffffffffffff168573ffffffffffffffffffffffffffffffffffffffff1603611cf957611cf481612060565b611d38565b8373ffffffffffffffffffffffffffffffffffffffff168573ffffffffffffffffffffffffffffffffffffffff1614611d3757611d3685826120a9565b5b5b600073ffffffffffffffffffffffffffffffffffffffff168473ffffffffffffffffffffffffffffffffffffffff1603611d7a57611d7581612216565b611db9565b8473ffffffffffffffffffffffffffffffffffffffff168473ffffffffffffffffffffffffffffffffffffffff1614611db857611db784826122e7565b5b5b5050505050565b6000611dcb826108c4565b9050611ddb8160008460016118a3565b611de4826108c4565b90506004600083815260200190815260200160002060006101000a81549073ffffffffffffffffffffffffffffffffffffffff02191690556001600360008373ffffffffffffffffffffffffffffffffffffffff1673ffffffffffffffffffffffffffffffffffffffff168152602001908152602001600020600082825403925050819055506002600083815260200190815260200160002060006101000a81549073ffffffffffffffffffffffffffffffffffffffff021916905581600073ffffffffffffffffffffffffffffffffffffffff168273ffffffffffffffffffffffffffffffffffffffff167fddf252ad1be2c89b69c2b068fc378daa952ba7f163c4a11628f55a4df523b3ef60405160405180910390a4611f0a8160008460016118bd565b5050565b611f188383612366565b611f2560008484846119a8565b611f64576040517f08c379a0000000000000000000000000000000000000000000000000000000008152600401611f5b90613703565b60405180910390fd5b505050565b6000808273ffffffffffffffffffffffffffffffffffffffff163b119050919050565b606060006001611f9b84612583565b01905060008167ffffffffffffffff811115611fba57611fb9612af5565b5b6040519080825280601f01601f191660200182016040528015611fec5781602001600182028036833780820191505090505b509050600082602001820190505b60011561204f578080600190039150507f3031323334353637383961626364656600000000000000000000000000000000600a86061a8153600a8581612043576120426139ba565b5b04945060008503611ffa575b819350505050919050565b50505050565b6008805490506009600083815260200190815260200160002081905550600881908060018154018082558091505060019003906000526020600020016000909190919091505550565b600060016120b68461095c565b6120c091906139e9565b90506000600760008481526020019081526020016000205490508181146121a5576000600660008673ffffffffffffffffffffffffffffffffffffffff1673ffffffffffffffffffffffffffffffffffffffff168152602001908152602001600020600084815260200190815260200160002054905080600660008773ffffffffffffffffffffffffffffffffffffffff1673ffffffffffffffffffffffffffffffffffffffff168152602001908152602001600020600084815260200190815260200160002081905550816007600083815260200190815260200160002081905550505b6007600084815260200190815260200160002060009055600660008573ffffffffffffffffffffffffffffffffffffffff1673ffffffffffffffffffffffffffffffffffffffff16815260200190815260200160002060008381526020019081526020016000206000905550505050565b6000600160088054905061222a91906139e9565b905060006009600084815260200190815260200160002054905060006008838154811061225a576122596131a0565b5b90600052602060002001549050806008838154811061227c5761227b6131a0565b5b9060005260206000200181905550816009600083815260200190815260200160002081905550600960008581526020019081526020016000206000905560088054806122cb576122ca613a1d565b5b6001900381819060005260206000200160009055905550505050565b60006122f28361095c565b905081600660008573ffffffffffffffffffffffffffffffffffffffff1673ffffffffffffffffffffffffffffffffffffffff168152602001908152602001600020600083815260200190815260200160002081905550806007600084815260200190815260200160002081905550505050565b600073ffffffffffffffffffffffffffffffffffffffff168273ffffffffffffffffffffffffffffffffffffffff16036123d5576040517f08c379a00000000000000000000000000000000000000000000000000000000081526004016123cc90613a98565b60405180910390fd5b6123de81611862565b1561241e576040517f08c379a000000000000000000000000000000000000000000000000000000000815260040161241590613b04565b60405180910390fd5b61242c6000838360016118a3565b61243581611862565b15612475576040517f08c379a000000000000000000000000000000000000000000000000000000000815260040161246c90613b04565b60405180910390fd5b6001600360008473ffffffffffffffffffffffffffffffffffffffff1673ffffffffffffffffffffffffffffffffffffffff16815260200190815260200160002060008282540192505081905550816002600083815260200190815260200160002060006101000a81548173ffffffffffffffffffffffffffffffffffffffff021916908373ffffffffffffffffffffffffffffffffffffffff160217905550808273ffffffffffffffffffffffffffffffffffffffff16600073ffffffffffffffffffffffffffffffffffffffff167fddf252ad1be2c89b69c2b068fc378daa952ba7f163c4a11628f55a4df523b3ef60405160405180910390a461257f6000838360016118bd565b5050565b600080600090507a184f03e93ff9f4daa797ed6e38ed64bf6a1f01000000000000000083106125e1577a184f03e93ff9f4daa797ed6e38ed64bf6a1f01000000000000000083816125d7576125d66139ba565b5b0492506040810190505b6d04ee2d6d415b85acef8100000000831061261e576d04ee2d6d415b85acef81000000008381612614576126136139ba565b5b0492506020810190505b662386f26fc10000831061264d57662386f26fc100008381612643576126426139ba565b5b0492506010810190505b6305f5e1008310612676576305f5e100838161266c5761266b6139ba565b5b0492506008810190505b612710831061269b576127108381612691576126906139ba565b5b0492506004810190505b606483106126be57606483816126b4576126b36139ba565b5b0492506002810190505b600a83106126cd576001810190505b80915050919050565b8280546126e290612e95565b90600052602060002090601f016020900481019282612704576000855561274b565b82601f1061271d57805160ff191683800117855561274b565b8280016001018555821561274b579182015b8281111561274a57825182559160200191906001019061272f565b5b509050612758919061279c565b5090565b50805461276890612e95565b6000825580601f1061277a5750612799565b601f016020900490600052602060002090810190612798919061279c565b5b50565b5b808211156127b557600081600090555060010161279d565b5090565b6000604051905090565b600080fd5b600080fd5b60007fffffffff0000000000000000000000000000000000000000000000000000000082169050919050565b612802816127cd565b811461280d57600080fd5b50565b60008135905061281f816127f9565b92915050565b60006020828403121561283b5761283a6127c3565b5b600061284984828501612810565b91505092915050565b60008115159050919050565b61286781612852565b82525050565b6000602082019050612882600083018461285e565b92915050565b600081519050919050565b600082825260208201905092915050565b60005b838110156128c25780820151818401526020810190506128a7565b838111156128d1576000848401525b50505050565b6000601f19601f8301169050919050565b60006128f382612888565b6128fd8185612893565b935061290d8185602086016128a4565b612916816128d7565b840191505092915050565b6000602082019050818103600083015261293b81846128e8565b905092915050565b6000819050919050565b61295681612943565b811461296157600080fd5b50565b6000813590506129738161294d565b92915050565b60006020828403121561298f5761298e6127c3565b5b600061299d84828501612964565b91505092915050565b600073ffffffffffffffffffffffffffffffffffffffff82169050919050565b60006129d1826129a6565b9050919050565b6129e1816129c6565b82525050565b60006020820190506129fc60008301846129d8565b92915050565b612a0b816129c6565b8114612a1657600080fd5b50565b600081359050612a2881612a02565b92915050565b60008060408385031215612a4557612a446127c3565b5b6000612a5385828601612a19565b9250506020612a6485828601612964565b9150509250929050565b612a7781612943565b82525050565b6000602082019050612a926000830184612a6e565b92915050565b600080600060608486031215612ab157612ab06127c3565b5b6000612abf86828701612a19565b9350506020612ad086828701612a19565b9250506040612ae186828701612964565b9150509250925092565b600080fd5b600080fd5b7f4e487b7100000000000000000000000000000000000000000000000000000000600052604160045260246000fd5b612b2d826128d7565b810181811067ffffffffffffffff82111715612b4c57612b4b612af5565b5b80604052505050565b6000612b5f6127b9565b9050612b6b8282612b24565b919050565b600067ffffffffffffffff821115612b8b57612b8a612af5565b5b612b94826128d7565b9050602081019050919050565b82818337600083830152505050565b6000612bc3612bbe84612b70565b612b55565b905082815260208101848484011115612bdf57612bde612af0565b5b612bea848285612ba1565b509392505050565b600082601f830112612c0757612c06612aeb565b5b8135612c17848260208601612bb0565b91505092915050565b600060208284031215612c3657612c356127c3565b5b600082013567ffffffffffffffff811115612c5457612c536127c8565b5b612c6084828501612bf2565b91505092915050565b600060208284031215612c7f57612c7e6127c3565b5b6000612c8d84828501612a19565b91505092915050565b612c9f81612852565b8114612caa57600080fd5b50565b600081359050612cbc81612c96565b92915050565b60008060408385031215612cd957612cd86127c3565b5b6000612ce785828601612a19565b9250506020612cf885828601612cad565b9150509250929050565b600067ffffffffffffffff821115612d1d57612d1c612af5565b5b612d26826128d7565b9050602081019050919050565b6000612d46612d4184612d02565b612b55565b905082815260208101848484011115612d6257612d61612af0565b5b612d6d848285612ba1565b509392505050565b600082601f830112612d8a57612d89612aeb565b5b8135612d9a848260208601612d33565b91505092915050565b60008060008060808587031215612dbd57612dbc6127c3565b5b6000612dcb87828801612a19565b9450506020612ddc87828801612a19565b9350506040612ded87828801612964565b925050606085013567ffffffffffffffff811115612e0e57612e0d6127c8565b5b612e1a87828801612d75565b91505092959194509250565b60008060408385031215612e3d57612e3c6127c3565b5b6000612e4b85828601612a19565b9250506020612e5c85828601612a19565b9150509250929050565b7f4e487b7100000000000000000000000000000000000000000000000000000000600052602260045260246000fd5b60006002820490506001821680612ead57607f821691505b602082108103612ec057612ebf612e66565b5b50919050565b7f4552433732313a20617070726f76616c20746f2063757272656e74206f776e6560008201527f7200000000000000000000000000000000000000000000000000000000000000602082015250565b6000612f22602183612893565b9150612f2d82612ec6565b604082019050919050565b60006020820190508181036000830152612f5181612f15565b9050919050565b7f4552433732313a20617070726f76652063616c6c6572206973206e6f7420746f60008201527f6b656e206f776e6572206f7220617070726f76656420666f7220616c6c000000602082015250565b6000612fb4603d83612893565b9150612fbf82612f58565b604082019050919050565b60006020820190508181036000830152612fe381612fa7565b9050919050565b7f4552433732313a2063616c6c6572206973206e6f7420746f6b656e206f776e6560008201527f72206f7220617070726f76656400000000000000000000000000000000000000602082015250565b6000613046602d83612893565b915061305182612fea565b604082019050919050565b6000602082019050818103600083015261307581613039565b9050919050565b7f455243373231456e756d657261626c653a206f776e657220696e646578206f7560008201527f74206f6620626f756e6473000000000000000000000000000000000000000000602082015250565b60006130d8602b83612893565b91506130e38261307c565b604082019050919050565b60006020820190508181036000830152613107816130cb565b9050919050565b7f455243373231456e756d657261626c653a20676c6f62616c20696e646578206f60008201527f7574206f6620626f756e64730000000000000000000000000000000000000000602082015250565b600061316a602c83612893565b91506131758261310e565b604082019050919050565b600060208201905081810360008301526131998161315d565b9050919050565b7f4e487b7100000000000000000000000000000000000000000000000000000000600052603260045260246000fd5b7f4552433732313a20696e76616c696420746f6b656e2049440000000000000000600082015250565b6000613205601883612893565b9150613210826131cf565b602082019050919050565b60006020820190508181036000830152613234816131f8565b9050919050565b7f4552433732313a2061646472657373207a65726f206973206e6f74206120766160008201527f6c6964206f776e65720000000000000000000000000000000000000000000000602082015250565b6000613297602983612893565b91506132a28261323b565b604082019050919050565b600060208201905081810360008301526132c68161328a565b9050919050565b7f4f776e61626c653a206e6577206f776e657220697320746865207a65726f206160008201527f6464726573730000000000000000000000000000000000000000000000000000602082015250565b6000613329602683612893565b9150613334826132cd565b604082019050919050565b600060208201905081810360008301526133588161331c565b9050919050565b7f4552433732313a207472616e736665722066726f6d20696e636f72726563742060008201527f6f776e6572000000000000000000000000000000000000000000000000000000602082015250565b60006133bb602583612893565b91506133c68261335f565b604082019050919050565b600060208201905081810360008301526133ea816133ae565b9050919050565b7f4552433732313a207472616e7366657220746f20746865207a65726f2061646460008201527f7265737300000000000000000000000000000000000000000000000000000000602082015250565b600061344d602483612893565b9150613458826133f1565b604082019050919050565b6000602082019050818103600083015261347c81613440565b9050919050565b600081905092915050565b600061349982612888565b6134a38185613483565b93506134b38185602086016128a4565b80840191505092915050565b60006134cb828461348e565b915081905092915050565b7f55524c20616c7265616479206d696e7465640000000000000000000000000000600082015250565b600061350c601283612893565b9150613517826134d6565b602082019050919050565b6000602082019050818103600083015261353b816134ff565b9050919050565b7f4e487b7100000000000000000000000000000000000000000000000000000000600052601160045260246000fd5b600061357c82612943565b91507fffffffffffffffffffffffffffffffffffffffffffffffffffffffffffffffff82036135ae576135ad613542565b5b600182019050919050565b7f4f776e61626c653a2063616c6c6572206973206e6f7420746865206f776e6572600082015250565b60006135ef602083612893565b91506135fa826135b9565b602082019050919050565b6000602082019050818103600083015261361e816135e2565b9050919050565b7f4552433732313a20617070726f766520746f2063616c6c657200000000000000600082015250565b600061365b601983612893565b915061366682613625565b602082019050919050565b6000602082019050818103600083015261368a8161364e565b9050919050565b7f4552433732313a207472616e7366657220746f206e6f6e20455243373231526560008201527f63656976657220696d706c656d656e7465720000000000000000000000000000602082015250565b60006136ed603283612893565b91506136f882613691565b604082019050919050565b6000602082019050818103600083015261371c816136e0565b9050919050565b600061372f828561348e565b915061373b828461348e565b91508190509392505050565b7f45524337323155524953746f726167653a2055524920736574206f66206e6f6e60008201527f6578697374656e7420746f6b656e000000000000000000000000000000000000602082015250565b60006137a3602e83612893565b91506137ae82613747565b604082019050919050565b600060208201905081810360008301526137d281613796565b9050919050565b600081519050919050565b600082825260208201905092915050565b6000613800826137d9565b61380a81856137e4565b935061381a8185602086016128a4565b613823816128d7565b840191505092915050565b600060808201905061384360008301876129d8565b61385060208301866129d8565b61385d6040830185612a6e565b818103606083015261386f81846137f5565b905095945050505050565b600081519050613889816127f9565b92915050565b6000602082840312156138a5576138a46127c3565b5b60006138b38482850161387a565b91505092915050565b7f5061757361626c653a2070617573656400000000000000000000000000000000600082015250565b60006138f2601083612893565b91506138fd826138bc565b602082019050919050565b60006020820190508181036000830152613921816138e5565b9050919050565b7f455243373231456e756d657261626c653a20636f6e736563757469766520747260008201527f616e7366657273206e6f7420737570706f727465640000000000000000000000602082015250565b6000613984603583612893565b915061398f82613928565b604082019050919050565b600060208201905081810360008301526139b381613977565b9050919050565b7f4e487b7100000000000000000000000000000000000000000000000000000000600052601260045260246000fd5b60006139f482612943565b91506139ff83612943565b925082821015613a1257613a11613542565b5b828203905092915050565b7f4e487b7100000000000000000000000000000000000000000000000000000000600052603160045260246000fd5b7f4552433732313a206d696e7420746f20746865207a65726f2061646472657373600082015250565b6000613a82602083612893565b9150613a8d82613a4c565b602082019050919050565b60006020820190508181036000830152613ab181613a75565b9050919050565b7f4552433732313a20746f6b656e20616c7265616479206d696e74656400000000600082015250565b6000613aee601c83612893565b9150613af982613ab8565b602082019050919050565b60006020820190508181036000830152613b1d81613ae1565b905091905056fea2646970667358221220608016812464bcd93e4fb6cd58033f70e1ce06799696e8cdc8737c31542bf1d864736f6c634300080d0033",
  "immutableReferences": {},
  "source": "// SPDX-License-Identifier: MIT\r\npragma solidity ^0.8.9;\r\n\r\nimport \"@openzeppelin/contracts/access/Ownable.sol\";\r\nimport \"@openzeppelin/contracts/security/Pausable.sol\";\r\nimport \"@openzeppelin/contracts/token/ERC721/ERC721.sol\";\r\nimport \"@openzeppelin/contracts/token/ERC721/extensions/ERC721Enumerable.sol\";\r\nimport \"@openzeppelin/contracts/token/ERC721/extensions/ERC721URIStorage.sol\";\r\nimport \"@openzeppelin/contracts/token/ERC721/extensions/ERC721Burnable.sol\";\r\nimport \"@openzeppelin/contracts/utils/Counters.sol\";\r\n\r\ncontract NFT is ERC721, ERC721Enumerable, ERC721URIStorage, Pausable, Ownable, ERC721Burnable{\r\n\tconstructor() ERC721(\"Pyramint\", \"PYM\") {}\r\n\r\n\t//Counters.Counter private _tokenIdCounter;\r\n    uint public tokenIdCounter;\r\n\r\n    struct NFTMetadata {\r\n        bool exists;\r\n        // a.k.a. creator of the NFT\r\n        address minter;\r\n        // For market listing\r\n        string publicTokenURI;\r\n    }\r\n\r\n    mapping(string => uint) private _tokenUriToId;\r\n\r\n    mapping(uint256 => NFTMetadata) private _metadata;\r\n\r\n\tfunction safeMint(\r\n        string memory publicTokenURI\r\n    ) public returns(uint256 tokenId) {\r\n        return _safeMintFor(publicTokenURI);\r\n    }\r\n\r\n    function _safeMintFor(\r\n        string memory publicTokenURI\r\n    ) private returns(uint256 tokenId) {\r\n        require(_tokenUriToId[publicTokenURI] == 0, \"URL already minted\");\r\n\r\n        //_tokenIdCounter.value += 1;\r\n        tokenIdCounter++;\r\n        tokenId = tokenIdCounter;\r\n        // Owned by the sender. For safeMintFor, sender = owner = marketplace (escrow).\r\n        // But someone can mint directly as well.\r\n        _safeMint(_msgSender(), tokenIdCounter);\r\n        _setTokenURI(tokenIdCounter, publicTokenURI);\r\n\r\n        // Marketplace should be able to manage items on behalf of the token owner\r\n        // _setApprovalForAll(minter, owner(), true);\r\n        _metadata[tokenId] = NFTMetadata({\r\n            exists: true,\r\n            minter: msg.sender,\r\n            publicTokenURI: publicTokenURI\r\n        });\r\n    }\r\n\r\n    function _beforeTokenTransfer(address from, address to, uint256 tokenId, uint256 batchSize)\r\n        internal whenNotPaused override(ERC721, ERC721Enumerable) {\r\n        super._beforeTokenTransfer(from, to, tokenId, batchSize);\r\n    }\r\n\r\n    // The following functions are overrides required by Solidity.\r\n\r\n    function _burn(uint256 tokenId) internal override(ERC721, ERC721URIStorage) {\r\n        super._burn(tokenId);\r\n    }\r\n\r\n    function tokenURI(uint256 tokenId) public view override(ERC721, ERC721URIStorage) returns (string memory) {\r\n        return super.tokenURI(tokenId);\r\n    }\r\n\r\n    function supportsInterface(bytes4 interfaceId)\r\n        public\r\n        view\r\n        override(ERC721, ERC721Enumerable)\r\n        returns (bool) {\r\n        return super.supportsInterface(interfaceId);\r\n    }\r\n\r\n    function lastTokenId() public returns (uint) {\r\n        return tokenIdCounter;\r\n    }\r\n}",
  "sourcePath": "C:\\Vatsal\\DUMBASS_PRODUCTIONS\\MintMart\\contracts\\NFT.sol",
  "compiler": {
    "name": "solc",
    "version": "0.8.13+commit.abaa5c0e.Emscripten.clang"
  },
  "schemaVersion": "3.4.11",
  "updatedAt": "2023-07-03T20:08:06.649Z",
  "networkType": "ethereum",
  "devdoc": {
    "kind": "dev",
    "methods": {
      "approve(address,uint256)": {
        "details": "See {IERC721-approve}."
      },
      "balanceOf(address)": {
        "details": "See {IERC721-balanceOf}."
      },
      "burn(uint256)": {
        "details": "Burns `tokenId`. See {ERC721-_burn}. Requirements: - The caller must own `tokenId` or be an approved operator."
      },
      "getApproved(uint256)": {
        "details": "See {IERC721-getApproved}."
      },
      "isApprovedForAll(address,address)": {
        "details": "See {IERC721-isApprovedForAll}."
      },
      "name()": {
        "details": "See {IERC721Metadata-name}."
      },
      "owner()": {
        "details": "Returns the address of the current owner."
      },
      "ownerOf(uint256)": {
        "details": "See {IERC721-ownerOf}."
      },
      "paused()": {
        "details": "Returns true if the contract is paused, and false otherwise."
      },
      "renounceOwnership()": {
        "details": "Leaves the contract without owner. It will not be possible to call `onlyOwner` functions anymore. Can only be called by the current owner. NOTE: Renouncing ownership will leave the contract without an owner, thereby removing any functionality that is only available to the owner."
      },
      "safeTransferFrom(address,address,uint256)": {
        "details": "See {IERC721-safeTransferFrom}."
      },
      "safeTransferFrom(address,address,uint256,bytes)": {
        "details": "See {IERC721-safeTransferFrom}."
      },
      "setApprovalForAll(address,bool)": {
        "details": "See {IERC721-setApprovalForAll}."
      },
      "symbol()": {
        "details": "See {IERC721Metadata-symbol}."
      },
      "tokenByIndex(uint256)": {
        "details": "See {IERC721Enumerable-tokenByIndex}."
      },
      "tokenOfOwnerByIndex(address,uint256)": {
        "details": "See {IERC721Enumerable-tokenOfOwnerByIndex}."
      },
      "totalSupply()": {
        "details": "See {IERC721Enumerable-totalSupply}."
      },
      "transferFrom(address,address,uint256)": {
        "details": "See {IERC721-transferFrom}."
      },
      "transferOwnership(address)": {
        "details": "Transfers ownership of the contract to a new account (`newOwner`). Can only be called by the current owner."
      }
    },
    "version": 1
  },
  "userdoc": {
    "kind": "user",
    "methods": {},
    "version": 1
  }
}