{
  "contractName": "NFTCollection",
  "abi": [
    {
      "inputs": [
        {
          "internalType": "string",
          "name": "baseURI",
          "type": "string"
        },
        {
          "internalType": "string",
          "name": "name",
          "type": "string"
        },
        {
          "internalType": "string",
          "name": "symbol",
          "type": "string"
        }
      ],
      "stateMutability": "nonpayable",
      "type": "constructor"
    },
    {
      "anonymous": false,
      "inputs": [
        {
          "indexed": true,
          "internalType": "address",
          "name": "owner",
          "type": "address"
        },
        {
          "indexed": true,
          "internalType": "address",
          "name": "approved",
          "type": "address"
        },
        {
          "indexed": true,
          "internalType": "uint256",
          "name": "tokenId",
          "type": "uint256"
        }
      ],
      "name": "Approval",
      "type": "event"
    },
    {
      "anonymous": false,
      "inputs": [
        {
          "indexed": true,
          "internalType": "address",
          "name": "owner",
          "type": "address"
        },
        {
          "indexed": true,
          "internalType": "address",
          "name": "operator",
          "type": "address"
        },
        {
          "indexed": false,
          "internalType": "bool",
          "name": "approved",
          "type": "bool"
        }
      ],
      "name": "ApprovalForAll",
      "type": "event"
    },
    {
      "anonymous": false,
      "inputs": [
        {
          "indexed": true,
          "internalType": "address",
          "name": "previousOwner",
          "type": "address"
        },
        {
          "indexed": true,
          "internalType": "address",
          "name": "newOwner",
          "type": "address"
        }
      ],
      "name": "OwnershipTransferred",
      "type": "event"
    },
    {
      "anonymous": false,
      "inputs": [
        {
          "indexed": true,
          "internalType": "address",
          "name": "from",
          "type": "address"
        },
        {
          "indexed": true,
          "internalType": "address",
          "name": "to",
          "type": "address"
        },
        {
          "indexed": true,
          "internalType": "uint256",
          "name": "tokenId",
          "type": "uint256"
        }
      ],
      "name": "Transfer",
      "type": "event"
    },
    {
      "inputs": [],
      "name": "MAX_PER_MINT",
      "outputs": [
        {
          "internalType": "uint256",
          "name": "",
          "type": "uint256"
        }
      ],
      "stateMutability": "view",
      "type": "function",
      "constant": true
    },
    {
      "inputs": [],
      "name": "MAX_SUPPLY",
      "outputs": [
        {
          "internalType": "uint256",
          "name": "",
          "type": "uint256"
        }
      ],
      "stateMutability": "view",
      "type": "function",
      "constant": true
    },
    {
      "inputs": [],
      "name": "PRICE",
      "outputs": [
        {
          "internalType": "uint256",
          "name": "",
          "type": "uint256"
        }
      ],
      "stateMutability": "view",
      "type": "function",
      "constant": true
    },
    {
      "inputs": [
        {
          "internalType": "address",
          "name": "to",
          "type": "address"
        },
        {
          "internalType": "uint256",
          "name": "tokenId",
          "type": "uint256"
        }
      ],
      "name": "approve",
      "outputs": [],
      "stateMutability": "nonpayable",
      "type": "function"
    },
    {
      "inputs": [
        {
          "internalType": "address",
          "name": "owner",
          "type": "address"
        }
      ],
      "name": "balanceOf",
      "outputs": [
        {
          "internalType": "uint256",
          "name": "",
          "type": "uint256"
        }
      ],
      "stateMutability": "view",
      "type": "function",
      "constant": true
    },
    {
      "inputs": [],
      "name": "baseTokenURI",
      "outputs": [
        {
          "internalType": "string",
          "name": "",
          "type": "string"
        }
      ],
      "stateMutability": "view",
      "type": "function",
      "constant": true
    },
    {
      "inputs": [
        {
          "internalType": "uint256",
          "name": "tokenId",
          "type": "uint256"
        }
      ],
      "name": "getApproved",
      "outputs": [
        {
          "internalType": "address",
          "name": "",
          "type": "address"
        }
      ],
      "stateMutability": "view",
      "type": "function",
      "constant": true
    },
    {
      "inputs": [
        {
          "internalType": "address",
          "name": "owner",
          "type": "address"
        },
        {
          "internalType": "address",
          "name": "operator",
          "type": "address"
        }
      ],
      "name": "isApprovedForAll",
      "outputs": [
        {
          "internalType": "bool",
          "name": "",
          "type": "bool"
        }
      ],
      "stateMutability": "view",
      "type": "function",
      "constant": true
    },
    {
      "inputs": [],
      "name": "name",
      "outputs": [
        {
          "internalType": "string",
          "name": "",
          "type": "string"
        }
      ],
      "stateMutability": "view",
      "type": "function",
      "constant": true
    },
    {
      "inputs": [],
      "name": "owner",
      "outputs": [
        {
          "internalType": "address",
          "name": "",
          "type": "address"
        }
      ],
      "stateMutability": "view",
      "type": "function",
      "constant": true
    },
    {
      "inputs": [
        {
          "internalType": "uint256",
          "name": "tokenId",
          "type": "uint256"
        }
      ],
      "name": "ownerOf",
      "outputs": [
        {
          "internalType": "address",
          "name": "",
          "type": "address"
        }
      ],
      "stateMutability": "view",
      "type": "function",
      "constant": true
    },
    {
      "inputs": [],
      "name": "renounceOwnership",
      "outputs": [],
      "stateMutability": "nonpayable",
      "type": "function"
    },
    {
      "inputs": [
        {
          "internalType": "address",
          "name": "from",
          "type": "address"
        },
        {
          "internalType": "address",
          "name": "to",
          "type": "address"
        },
        {
          "internalType": "uint256",
          "name": "tokenId",
          "type": "uint256"
        }
      ],
      "name": "safeTransferFrom",
      "outputs": [],
      "stateMutability": "nonpayable",
      "type": "function"
    },
    {
      "inputs": [
        {
          "internalType": "address",
          "name": "from",
          "type": "address"
        },
        {
          "internalType": "address",
          "name": "to",
          "type": "address"
        },
        {
          "internalType": "uint256",
          "name": "tokenId",
          "type": "uint256"
        },
        {
          "internalType": "bytes",
          "name": "data",
          "type": "bytes"
        }
      ],
      "name": "safeTransferFrom",
      "outputs": [],
      "stateMutability": "nonpayable",
      "type": "function"
    },
    {
      "inputs": [
        {
          "internalType": "address",
          "name": "operator",
          "type": "address"
        },
        {
          "internalType": "bool",
          "name": "approved",
          "type": "bool"
        }
      ],
      "name": "setApprovalForAll",
      "outputs": [],
      "stateMutability": "nonpayable",
      "type": "function"
    },
    {
      "inputs": [
        {
          "internalType": "bytes4",
          "name": "interfaceId",
          "type": "bytes4"
        }
      ],
      "name": "supportsInterface",
      "outputs": [
        {
          "internalType": "bool",
          "name": "",
          "type": "bool"
        }
      ],
      "stateMutability": "view",
      "type": "function",
      "constant": true
    },
    {
      "inputs": [],
      "name": "symbol",
      "outputs": [
        {
          "internalType": "string",
          "name": "",
          "type": "string"
        }
      ],
      "stateMutability": "view",
      "type": "function",
      "constant": true
    },
    {
      "inputs": [
        {
          "internalType": "uint256",
          "name": "index",
          "type": "uint256"
        }
      ],
      "name": "tokenByIndex",
      "outputs": [
        {
          "internalType": "uint256",
          "name": "",
          "type": "uint256"
        }
      ],
      "stateMutability": "view",
      "type": "function",
      "constant": true
    },
    {
      "inputs": [
        {
          "internalType": "address",
          "name": "owner",
          "type": "address"
        },
        {
          "internalType": "uint256",
          "name": "index",
          "type": "uint256"
        }
      ],
      "name": "tokenOfOwnerByIndex",
      "outputs": [
        {
          "internalType": "uint256",
          "name": "",
          "type": "uint256"
        }
      ],
      "stateMutability": "view",
      "type": "function",
      "constant": true
    },
    {
      "inputs": [
        {
          "internalType": "uint256",
          "name": "tokenId",
          "type": "uint256"
        }
      ],
      "name": "tokenURI",
      "outputs": [
        {
          "internalType": "string",
          "name": "",
          "type": "string"
        }
      ],
      "stateMutability": "view",
      "type": "function",
      "constant": true
    },
    {
      "inputs": [],
      "name": "totalSupply",
      "outputs": [
        {
          "internalType": "uint256",
          "name": "",
          "type": "uint256"
        }
      ],
      "stateMutability": "view",
      "type": "function",
      "constant": true
    },
    {
      "inputs": [
        {
          "internalType": "address",
          "name": "from",
          "type": "address"
        },
        {
          "internalType": "address",
          "name": "to",
          "type": "address"
        },
        {
          "internalType": "uint256",
          "name": "tokenId",
          "type": "uint256"
        }
      ],
      "name": "transferFrom",
      "outputs": [],
      "stateMutability": "nonpayable",
      "type": "function"
    },
    {
      "inputs": [
        {
          "internalType": "address",
          "name": "newOwner",
          "type": "address"
        }
      ],
      "name": "transferOwnership",
      "outputs": [],
      "stateMutability": "nonpayable",
      "type": "function"
    },
    {
      "inputs": [
        {
          "internalType": "string",
          "name": "_baseTokenURI",
          "type": "string"
        }
      ],
      "name": "setBaseURI",
      "outputs": [],
      "stateMutability": "nonpayable",
      "type": "function"
    },
    {
      "inputs": [
        {
          "internalType": "uint256",
          "name": "_count",
          "type": "uint256"
        }
      ],
      "name": "mintNFTs",
      "outputs": [],
      "stateMutability": "payable",
      "type": "function",
      "payable": true
    },
    {
      "inputs": [
        {
          "internalType": "address",
          "name": "_owner",
          "type": "address"
        }
      ],
      "name": "tokensOfOwner",
      "outputs": [
        {
          "internalType": "uint256[]",
          "name": "",
          "type": "uint256[]"
        }
      ],
      "stateMutability": "view",
      "type": "function",
      "constant": true
    },
    {
      "inputs": [],
      "name": "withdraw",
      "outputs": [],
      "stateMutability": "payable",
      "type": "function",
      "payable": true
    },
    {
      "inputs": [
        {
          "internalType": "uint256",
          "name": "_count",
          "type": "uint256"
        }
      ],
      "name": "reserveNFTs",
      "outputs": [],
      "stateMutability": "nonpayable",
      "type": "function"
    }
  ],
  "bytecode": "0x60806040523480156200001157600080fd5b506040516200461e3803806200461e8339818101604052810190620000379190620004a9565b81818160009080519060200190620000519291906200025c565b5080600190805190602001906200006a9291906200025c565b5050506200008d62000081620000a760201b60201c565b620000af60201b60201c565b6200009e836200017560201b60201c565b50505062000649565b600033905090565b6000600a60009054906101000a900473ffffffffffffffffffffffffffffffffffffffff16905081600a60006101000a81548173ffffffffffffffffffffffffffffffffffffffff021916908373ffffffffffffffffffffffffffffffffffffffff1602179055508173ffffffffffffffffffffffffffffffffffffffff168173ffffffffffffffffffffffffffffffffffffffff167f8be0079c531659141344cd1fd0a4f28419497f9722a3daafe3b4186f6b6457e060405160405180910390a35050565b62000185620001a160201b60201c565b80600c90805190602001906200019d9291906200025c565b5050565b620001b1620000a760201b60201c565b73ffffffffffffffffffffffffffffffffffffffff16620001d76200023260201b60201c565b73ffffffffffffffffffffffffffffffffffffffff161462000230576040517f08c379a00000000000000000000000000000000000000000000000000000000081526004016200022790620005c3565b60405180910390fd5b565b6000600a60009054906101000a900473ffffffffffffffffffffffffffffffffffffffff16905090565b8280546200026a9062000614565b90600052602060002090601f0160209004810192826200028e5760008555620002da565b82601f10620002a957805160ff1916838001178555620002da565b82800160010185558215620002da579182015b82811115620002d9578251825591602001919060010190620002bc565b5b509050620002e99190620002ed565b5090565b5b8082111562000308576000816000905550600101620002ee565b5090565b6000604051905090565b600080fd5b600080fd5b600080fd5b600080fd5b6000601f19601f8301169050919050565b7f4e487b7100000000000000000000000000000000000000000000000000000000600052604160045260246000fd5b62000375826200032a565b810181811067ffffffffffffffff821117156200039757620003966200033b565b5b80604052505050565b6000620003ac6200030c565b9050620003ba82826200036a565b919050565b600067ffffffffffffffff821115620003dd57620003dc6200033b565b5b620003e8826200032a565b9050602081019050919050565b60005b8381101562000415578082015181840152602081019050620003f8565b8381111562000425576000848401525b50505050565b6000620004426200043c84620003bf565b620003a0565b90508281526020810184848401111562000461576200046062000325565b5b6200046e848285620003f5565b509392505050565b600082601f8301126200048e576200048d62000320565b5b8151620004a08482602086016200042b565b91505092915050565b600080600060608486031215620004c557620004c462000316565b5b600084015167ffffffffffffffff811115620004e657620004e56200031b565b5b620004f48682870162000476565b935050602084015167ffffffffffffffff8111156200051857620005176200031b565b5b620005268682870162000476565b925050604084015167ffffffffffffffff8111156200054a57620005496200031b565b5b620005588682870162000476565b9150509250925092565b600082825260208201905092915050565b7f4f776e61626c653a2063616c6c6572206973206e6f7420746865206f776e6572600082015250565b6000620005ab60208362000562565b9150620005b88262000573565b602082019050919050565b60006020820190508181036000830152620005de816200059c565b9050919050565b7f4e487b7100000000000000000000000000000000000000000000000000000000600052602260045260246000fd5b600060028204905060018216806200062d57607f821691505b602082108103620006435762000642620005e5565b5b50919050565b613fc580620006596000396000f3fe6080604052600436106101b75760003560e01c80636352211e116100ec578063a22cb4651161008a578063c87b56dd11610064578063c87b56dd146105f0578063d547cfb71461062d578063e985e9c514610658578063f2fde38b14610695576101b7565b8063a22cb46514610575578063b88d4fde1461059e578063bc7df091146105c7576101b7565b80638462151c116100c65780638462151c146104b75780638d859f3e146104f45780638da5cb5b1461051f57806395d89b411461054a576101b7565b80636352211e1461042657806370a0823114610463578063715018a6146104a0576101b7565b80632f745c59116101595780633ccfd60b116101335780633ccfd60b1461038d57806342842e0e146103975780634f6ccce7146103c057806355f804b3146103fd576101b7565b80632f745c591461030957806332cb6b0c146103465780633b4b138114610371576101b7565b8063095ea7b311610195578063095ea7b31461026157806309d42b301461028a57806318160ddd146102b557806323b872dd146102e0576101b7565b806301ffc9a7146101bc57806306fdde03146101f9578063081812fc14610224575b600080fd5b3480156101c857600080fd5b506101e360048036038101906101de9190612967565b6106be565b6040516101f091906129af565b60405180910390f35b34801561020557600080fd5b5061020e610738565b60405161021b9190612a63565b60405180910390f35b34801561023057600080fd5b5061024b60048036038101906102469190612abb565b6107ca565b6040516102589190612b29565b60405180910390f35b34801561026d57600080fd5b5061028860048036038101906102839190612b70565b610810565b005b34801561029657600080fd5b5061029f610927565b6040516102ac9190612bbf565b60405180910390f35b3480156102c157600080fd5b506102ca61092c565b6040516102d79190612bbf565b60405180910390f35b3480156102ec57600080fd5b5061030760048036038101906103029190612bda565b610939565b005b34801561031557600080fd5b50610330600480360381019061032b9190612b70565b610999565b60405161033d9190612bbf565b60405180910390f35b34801561035257600080fd5b5061035b610a3e565b6040516103689190612bbf565b60405180910390f35b61038b60048036038101906103869190612abb565b610a43565b005b610395610b7d565b005b3480156103a357600080fd5b506103be60048036038101906103b99190612bda565b610c7d565b005b3480156103cc57600080fd5b506103e760048036038101906103e29190612abb565b610c9d565b6040516103f49190612bbf565b60405180910390f35b34801561040957600080fd5b50610424600480360381019061041f9190612d62565b610d0e565b005b34801561043257600080fd5b5061044d60048036038101906104489190612abb565b610d30565b60405161045a9190612b29565b60405180910390f35b34801561046f57600080fd5b5061048a60048036038101906104859190612dab565b610db6565b6040516104979190612bbf565b60405180910390f35b3480156104ac57600080fd5b506104b5610e6d565b005b3480156104c357600080fd5b506104de60048036038101906104d99190612dab565b610e81565b6040516104eb9190612e96565b60405180910390f35b34801561050057600080fd5b50610509610f2f565b6040516105169190612bbf565b60405180910390f35b34801561052b57600080fd5b50610534610f39565b6040516105419190612b29565b60405180910390f35b34801561055657600080fd5b5061055f610f63565b60405161056c9190612a63565b60405180910390f35b34801561058157600080fd5b5061059c60048036038101906105979190612ee4565b610ff5565b005b3480156105aa57600080fd5b506105c560048036038101906105c09190612fc5565b61100b565b005b3480156105d357600080fd5b506105ee60048036038101906105e99190612abb565b61106d565b005b3480156105fc57600080fd5b5061061760048036038101906106129190612abb565b611103565b6040516106249190612a63565b60405180910390f35b34801561063957600080fd5b5061064261116b565b60405161064f9190612a63565b60405180910390f35b34801561066457600080fd5b5061067f600480360381019061067a9190613048565b6111f9565b60405161068c91906129af565b60405180910390f35b3480156106a157600080fd5b506106bc60048036038101906106b79190612dab565b61128d565b005b60007f780e9d63000000000000000000000000000000000000000000000000000000007bffffffffffffffffffffffffffffffffffffffffffffffffffffffff1916827bffffffffffffffffffffffffffffffffffffffffffffffffffffffff19161480610731575061073082611310565b5b9050919050565b606060008054610747906130b7565b80601f0160208091040260200160405190810160405280929190818152602001828054610773906130b7565b80156107c05780601f10610795576101008083540402835291602001916107c0565b820191906000526020600020905b8154815290600101906020018083116107a357829003601f168201915b5050505050905090565b60006107d5826113f2565b6004600083815260200190815260200160002060009054906101000a900473ffffffffffffffffffffffffffffffffffffffff169050919050565b600061081b82610d30565b90508073ffffffffffffffffffffffffffffffffffffffff168373ffffffffffffffffffffffffffffffffffffffff160361088b576040517f08c379a00000000000000000000000000000000000000000000000000000000081526004016108829061315a565b60405180910390fd5b8073ffffffffffffffffffffffffffffffffffffffff166108aa61143d565b73ffffffffffffffffffffffffffffffffffffffff1614806108d957506108d8816108d361143d565b6111f9565b5b610918576040517f08c379a000000000000000000000000000000000000000000000000000000000815260040161090f906131ec565b60405180910390fd5b6109228383611445565b505050565b600581565b6000600880549050905090565b61094a61094461143d565b826114fe565b610989576040517f08c379a00000000000000000000000000000000000000000000000000000000081526004016109809061327e565b60405180910390fd5b610994838383611593565b505050565b60006109a483610db6565b82106109e5576040517f08c379a00000000000000000000000000000000000000000000000000000000081526004016109dc90613310565b60405180910390fd5b600660008473ffffffffffffffffffffffffffffffffffffffff1673ffffffffffffffffffffffffffffffffffffffff168152602001908152602001600020600083815260200190815260200160002054905092915050565b600a81565b6000610a4f600b61188c565b9050600a610a66838361189a90919063ffffffff16565b1115610aa7576040517f08c379a0000000000000000000000000000000000000000000000000000000008152600401610a9e9061337c565b60405180910390fd5b600082118015610ab8575060058211155b610af7576040517f08c379a0000000000000000000000000000000000000000000000000000000008152600401610aee9061340e565b60405180910390fd5b610b10826509184e72a0006118b090919063ffffffff16565b341015610b52576040517f08c379a0000000000000000000000000000000000000000000000000000000008152600401610b49906134a0565b60405180910390fd5b60005b82811015610b7857610b656118c6565b8080610b70906134ef565b915050610b55565b505050565b610b856118eb565b600047905060008111610bcd576040517f08c379a0000000000000000000000000000000000000000000000000000000008152600401610bc490613583565b60405180910390fd5b60003373ffffffffffffffffffffffffffffffffffffffff1682604051610bf3906135d4565b60006040518083038185875af1925050503d8060008114610c30576040519150601f19603f3d011682016040523d82523d6000602084013e610c35565b606091505b5050905080610c79576040517f08c379a0000000000000000000000000000000000000000000000000000000008152600401610c7090613635565b60405180910390fd5b5050565b610c988383836040518060200160405280600081525061100b565b505050565b6000610ca761092c565b8210610ce8576040517f08c379a0000000000000000000000000000000000000000000000000000000008152600401610cdf906136c7565b60405180910390fd5b60088281548110610cfc57610cfb6136e7565b5b90600052602060002001549050919050565b610d166118eb565b80600c9080519060200190610d2c929190612858565b5050565b600080610d3c83611969565b9050600073ffffffffffffffffffffffffffffffffffffffff168173ffffffffffffffffffffffffffffffffffffffff1603610dad576040517f08c379a0000000000000000000000000000000000000000000000000000000008152600401610da490613762565b60405180910390fd5b80915050919050565b60008073ffffffffffffffffffffffffffffffffffffffff168273ffffffffffffffffffffffffffffffffffffffff1603610e26576040517f08c379a0000000000000000000000000000000000000000000000000000000008152600401610e1d906137f4565b60405180910390fd5b600360008373ffffffffffffffffffffffffffffffffffffffff1673ffffffffffffffffffffffffffffffffffffffff168152602001908152602001600020549050919050565b610e756118eb565b610e7f60006119a6565b565b60606000610e8e83610db6565b905060008167ffffffffffffffff811115610eac57610eab612c37565b5b604051908082528060200260200182016040528015610eda5781602001602082028036833780820191505090505b50905060005b82811015610f2457610ef28582610999565b828281518110610f0557610f046136e7565b5b6020026020010181815250508080610f1c906134ef565b915050610ee0565b508092505050919050565b6509184e72a00081565b6000600a60009054906101000a900473ffffffffffffffffffffffffffffffffffffffff16905090565b606060018054610f72906130b7565b80601f0160208091040260200160405190810160405280929190818152602001828054610f9e906130b7565b8015610feb5780601f10610fc057610100808354040283529160200191610feb565b820191906000526020600020905b815481529060010190602001808311610fce57829003601f168201915b5050505050905090565b61100761100061143d565b8383611a6c565b5050565b61101c61101661143d565b836114fe565b61105b576040517f08c379a00000000000000000000000000000000000000000000000000000000081526004016110529061327e565b60405180910390fd5b61106784848484611bd8565b50505050565b6110756118eb565b6000611081600b61188c565b9050600a611098838361189a90919063ffffffff16565b106110d8576040517f08c379a00000000000000000000000000000000000000000000000000000000081526004016110cf90613860565b60405180910390fd5b60005b828110156110fe576110eb6118c6565b80806110f6906134ef565b9150506110db565b505050565b606061110e826113f2565b6000611118611c34565b905060008151116111385760405180602001604052806000815250611163565b8061114284611cc6565b6040516020016111539291906138bc565b6040516020818303038152906040525b915050919050565b600c8054611178906130b7565b80601f01602080910402602001604051908101604052809291908181526020018280546111a4906130b7565b80156111f15780601f106111c6576101008083540402835291602001916111f1565b820191906000526020600020905b8154815290600101906020018083116111d457829003601f168201915b505050505081565b6000600560008473ffffffffffffffffffffffffffffffffffffffff1673ffffffffffffffffffffffffffffffffffffffff16815260200190815260200160002060008373ffffffffffffffffffffffffffffffffffffffff1673ffffffffffffffffffffffffffffffffffffffff16815260200190815260200160002060009054906101000a900460ff16905092915050565b6112956118eb565b600073ffffffffffffffffffffffffffffffffffffffff168173ffffffffffffffffffffffffffffffffffffffff1603611304576040517f08c379a00000000000000000000000000000000000000000000000000000000081526004016112fb90613952565b60405180910390fd5b61130d816119a6565b50565b60007f80ac58cd000000000000000000000000000000000000000000000000000000007bffffffffffffffffffffffffffffffffffffffffffffffffffffffff1916827bffffffffffffffffffffffffffffffffffffffffffffffffffffffff191614806113db57507f5b5e139f000000000000000000000000000000000000000000000000000000007bffffffffffffffffffffffffffffffffffffffffffffffffffffffff1916827bffffffffffffffffffffffffffffffffffffffffffffffffffffffff1916145b806113eb57506113ea82611d94565b5b9050919050565b6113fb81611dfe565b61143a576040517f08c379a000000000000000000000000000000000000000000000000000000000815260040161143190613762565b60405180910390fd5b50565b600033905090565b816004600083815260200190815260200160002060006101000a81548173ffffffffffffffffffffffffffffffffffffffff021916908373ffffffffffffffffffffffffffffffffffffffff160217905550808273ffffffffffffffffffffffffffffffffffffffff166114b883610d30565b73ffffffffffffffffffffffffffffffffffffffff167f8c5be1e5ebec7d5bd14f71427d1e84f3dd0314c0f7b2291e5b200ac8c7c3b92560405160405180910390a45050565b60008061150a83610d30565b90508073ffffffffffffffffffffffffffffffffffffffff168473ffffffffffffffffffffffffffffffffffffffff16148061154c575061154b81856111f9565b5b8061158a57508373ffffffffffffffffffffffffffffffffffffffff16611572846107ca565b73ffffffffffffffffffffffffffffffffffffffff16145b91505092915050565b8273ffffffffffffffffffffffffffffffffffffffff166115b382610d30565b73ffffffffffffffffffffffffffffffffffffffff1614611609576040517f08c379a0000000000000000000000000000000000000000000000000000000008152600401611600906139e4565b60405180910390fd5b600073ffffffffffffffffffffffffffffffffffffffff168273ffffffffffffffffffffffffffffffffffffffff1603611678576040517f08c379a000000000000000000000000000000000000000000000000000000000815260040161166f90613a76565b60405180910390fd5b6116858383836001611e3f565b8273ffffffffffffffffffffffffffffffffffffffff166116a582610d30565b73ffffffffffffffffffffffffffffffffffffffff16146116fb576040517f08c379a00000000000000000000000000000000000000000000000000000000081526004016116f2906139e4565b60405180910390fd5b6004600082815260200190815260200160002060006101000a81549073ffffffffffffffffffffffffffffffffffffffff02191690556001600360008573ffffffffffffffffffffffffffffffffffffffff1673ffffffffffffffffffffffffffffffffffffffff168152602001908152602001600020600082825403925050819055506001600360008473ffffffffffffffffffffffffffffffffffffffff1673ffffffffffffffffffffffffffffffffffffffff16815260200190815260200160002060008282540192505081905550816002600083815260200190815260200160002060006101000a81548173ffffffffffffffffffffffffffffffffffffffff021916908373ffffffffffffffffffffffffffffffffffffffff160217905550808273ffffffffffffffffffffffffffffffffffffffff168473ffffffffffffffffffffffffffffffffffffffff167fddf252ad1be2c89b69c2b068fc378daa952ba7f163c4a11628f55a4df523b3ef60405160405180910390a46118878383836001611f9d565b505050565b600081600001549050919050565b600081836118a89190613a96565b905092915050565b600081836118be9190613aec565b905092915050565b60006118d2600b61188c565b90506118de3382611fa3565b6118e8600b611fc1565b50565b6118f361143d565b73ffffffffffffffffffffffffffffffffffffffff16611911610f39565b73ffffffffffffffffffffffffffffffffffffffff1614611967576040517f08c379a000000000000000000000000000000000000000000000000000000000815260040161195e90613b92565b60405180910390fd5b565b60006002600083815260200190815260200160002060009054906101000a900473ffffffffffffffffffffffffffffffffffffffff169050919050565b6000600a60009054906101000a900473ffffffffffffffffffffffffffffffffffffffff16905081600a60006101000a81548173ffffffffffffffffffffffffffffffffffffffff021916908373ffffffffffffffffffffffffffffffffffffffff1602179055508173ffffffffffffffffffffffffffffffffffffffff168173ffffffffffffffffffffffffffffffffffffffff167f8be0079c531659141344cd1fd0a4f28419497f9722a3daafe3b4186f6b6457e060405160405180910390a35050565b8173ffffffffffffffffffffffffffffffffffffffff168373ffffffffffffffffffffffffffffffffffffffff1603611ada576040517f08c379a0000000000000000000000000000000000000000000000000000000008152600401611ad190613bfe565b60405180910390fd5b80600560008573ffffffffffffffffffffffffffffffffffffffff1673ffffffffffffffffffffffffffffffffffffffff16815260200190815260200160002060008473ffffffffffffffffffffffffffffffffffffffff1673ffffffffffffffffffffffffffffffffffffffff16815260200190815260200160002060006101000a81548160ff0219169083151502179055508173ffffffffffffffffffffffffffffffffffffffff168373ffffffffffffffffffffffffffffffffffffffff167f17307eab39ab6107e8899845ad3d59bd9653f200f220920489ca2b5937696c3183604051611bcb91906129af565b60405180910390a3505050565b611be3848484611593565b611bef84848484611fd7565b611c2e576040517f08c379a0000000000000000000000000000000000000000000000000000000008152600401611c2590613c90565b60405180910390fd5b50505050565b6060600c8054611c43906130b7565b80601f0160208091040260200160405190810160405280929190818152602001828054611c6f906130b7565b8015611cbc5780601f10611c9157610100808354040283529160200191611cbc565b820191906000526020600020905b815481529060010190602001808311611c9f57829003601f168201915b5050505050905090565b606060006001611cd58461215e565b01905060008167ffffffffffffffff811115611cf457611cf3612c37565b5b6040519080825280601f01601f191660200182016040528015611d265781602001600182028036833780820191505090505b509050600082602001820190505b600115611d89578080600190039150507f3031323334353637383961626364656600000000000000000000000000000000600a86061a8153600a8581611d7d57611d7c613cb0565b5b04945060008503611d34575b819350505050919050565b60007f01ffc9a7000000000000000000000000000000000000000000000000000000007bffffffffffffffffffffffffffffffffffffffffffffffffffffffff1916827bffffffffffffffffffffffffffffffffffffffffffffffffffffffff1916149050919050565b60008073ffffffffffffffffffffffffffffffffffffffff16611e2083611969565b73ffffffffffffffffffffffffffffffffffffffff1614159050919050565b611e4b848484846122b1565b6001811115611e8f576040517f08c379a0000000000000000000000000000000000000000000000000000000008152600401611e8690613d51565b60405180910390fd5b6000829050600073ffffffffffffffffffffffffffffffffffffffff168573ffffffffffffffffffffffffffffffffffffffff1603611ed657611ed1816122b7565b611f15565b8373ffffffffffffffffffffffffffffffffffffffff168573ffffffffffffffffffffffffffffffffffffffff1614611f1457611f138582612300565b5b5b600073ffffffffffffffffffffffffffffffffffffffff168473ffffffffffffffffffffffffffffffffffffffff1603611f5757611f528161246d565b611f96565b8473ffffffffffffffffffffffffffffffffffffffff168473ffffffffffffffffffffffffffffffffffffffff1614611f9557611f94848261253e565b5b5b5050505050565b50505050565b611fbd8282604051806020016040528060008152506125bd565b5050565b6001816000016000828254019250508190555050565b6000611ff88473ffffffffffffffffffffffffffffffffffffffff16612618565b15612151578373ffffffffffffffffffffffffffffffffffffffff1663150b7a0261202161143d565b8786866040518563ffffffff1660e01b81526004016120439493929190613dc6565b6020604051808303816000875af192505050801561207f57506040513d601f19601f8201168201806040525081019061207c9190613e27565b60015b612101573d80600081146120af576040519150601f19603f3d011682016040523d82523d6000602084013e6120b4565b606091505b5060008151036120f9576040517f08c379a00000000000000000000000000000000000000000000000000000000081526004016120f090613c90565b60405180910390fd5b805181602001fd5b63150b7a0260e01b7bffffffffffffffffffffffffffffffffffffffffffffffffffffffff1916817bffffffffffffffffffffffffffffffffffffffffffffffffffffffff191614915050612156565b600190505b949350505050565b600080600090507a184f03e93ff9f4daa797ed6e38ed64bf6a1f01000000000000000083106121bc577a184f03e93ff9f4daa797ed6e38ed64bf6a1f01000000000000000083816121b2576121b1613cb0565b5b0492506040810190505b6d04ee2d6d415b85acef810000000083106121f9576d04ee2d6d415b85acef810000000083816121ef576121ee613cb0565b5b0492506020810190505b662386f26fc10000831061222857662386f26fc10000838161221e5761221d613cb0565b5b0492506010810190505b6305f5e1008310612251576305f5e100838161224757612246613cb0565b5b0492506008810190505b612710831061227657612710838161226c5761226b613cb0565b5b0492506004810190505b60648310612299576064838161228f5761228e613cb0565b5b0492506002810190505b600a83106122a8576001810190505b80915050919050565b50505050565b6008805490506009600083815260200190815260200160002081905550600881908060018154018082558091505060019003906000526020600020016000909190919091505550565b6000600161230d84610db6565b6123179190613e54565b90506000600760008481526020019081526020016000205490508181146123fc576000600660008673ffffffffffffffffffffffffffffffffffffffff1673ffffffffffffffffffffffffffffffffffffffff168152602001908152602001600020600084815260200190815260200160002054905080600660008773ffffffffffffffffffffffffffffffffffffffff1673ffffffffffffffffffffffffffffffffffffffff168152602001908152602001600020600084815260200190815260200160002081905550816007600083815260200190815260200160002081905550505b6007600084815260200190815260200160002060009055600660008573ffffffffffffffffffffffffffffffffffffffff1673ffffffffffffffffffffffffffffffffffffffff16815260200190815260200160002060008381526020019081526020016000206000905550505050565b600060016008805490506124819190613e54565b90506000600960008481526020019081526020016000205490506000600883815481106124b1576124b06136e7565b5b9060005260206000200154905080600883815481106124d3576124d26136e7565b5b90600052602060002001819055508160096000838152602001908152602001600020819055506009600085815260200190815260200160002060009055600880548061252257612521613e88565b5b6001900381819060005260206000200160009055905550505050565b600061254983610db6565b905081600660008573ffffffffffffffffffffffffffffffffffffffff1673ffffffffffffffffffffffffffffffffffffffff168152602001908152602001600020600083815260200190815260200160002081905550806007600084815260200190815260200160002081905550505050565b6125c7838361263b565b6125d46000848484611fd7565b612613576040517f08c379a000000000000000000000000000000000000000000000000000000000815260040161260a90613c90565b60405180910390fd5b505050565b6000808273ffffffffffffffffffffffffffffffffffffffff163b119050919050565b600073ffffffffffffffffffffffffffffffffffffffff168273ffffffffffffffffffffffffffffffffffffffff16036126aa576040517f08c379a00000000000000000000000000000000000000000000000000000000081526004016126a190613f03565b60405180910390fd5b6126b381611dfe565b156126f3576040517f08c379a00000000000000000000000000000000000000000000000000000000081526004016126ea90613f6f565b60405180910390fd5b612701600083836001611e3f565b61270a81611dfe565b1561274a576040517f08c379a000000000000000000000000000000000000000000000000000000000815260040161274190613f6f565b60405180910390fd5b6001600360008473ffffffffffffffffffffffffffffffffffffffff1673ffffffffffffffffffffffffffffffffffffffff16815260200190815260200160002060008282540192505081905550816002600083815260200190815260200160002060006101000a81548173ffffffffffffffffffffffffffffffffffffffff021916908373ffffffffffffffffffffffffffffffffffffffff160217905550808273ffffffffffffffffffffffffffffffffffffffff16600073ffffffffffffffffffffffffffffffffffffffff167fddf252ad1be2c89b69c2b068fc378daa952ba7f163c4a11628f55a4df523b3ef60405160405180910390a4612854600083836001611f9d565b5050565b828054612864906130b7565b90600052602060002090601f01602090048101928261288657600085556128cd565b82601f1061289f57805160ff19168380011785556128cd565b828001600101855582156128cd579182015b828111156128cc5782518255916020019190600101906128b1565b5b5090506128da91906128de565b5090565b5b808211156128f75760008160009055506001016128df565b5090565b6000604051905090565b600080fd5b600080fd5b60007fffffffff0000000000000000000000000000000000000000000000000000000082169050919050565b6129448161290f565b811461294f57600080fd5b50565b6000813590506129618161293b565b92915050565b60006020828403121561297d5761297c612905565b5b600061298b84828501612952565b91505092915050565b60008115159050919050565b6129a981612994565b82525050565b60006020820190506129c460008301846129a0565b92915050565b600081519050919050565b600082825260208201905092915050565b60005b83811015612a045780820151818401526020810190506129e9565b83811115612a13576000848401525b50505050565b6000601f19601f8301169050919050565b6000612a35826129ca565b612a3f81856129d5565b9350612a4f8185602086016129e6565b612a5881612a19565b840191505092915050565b60006020820190508181036000830152612a7d8184612a2a565b905092915050565b6000819050919050565b612a9881612a85565b8114612aa357600080fd5b50565b600081359050612ab581612a8f565b92915050565b600060208284031215612ad157612ad0612905565b5b6000612adf84828501612aa6565b91505092915050565b600073ffffffffffffffffffffffffffffffffffffffff82169050919050565b6000612b1382612ae8565b9050919050565b612b2381612b08565b82525050565b6000602082019050612b3e6000830184612b1a565b92915050565b612b4d81612b08565b8114612b5857600080fd5b50565b600081359050612b6a81612b44565b92915050565b60008060408385031215612b8757612b86612905565b5b6000612b9585828601612b5b565b9250506020612ba685828601612aa6565b9150509250929050565b612bb981612a85565b82525050565b6000602082019050612bd46000830184612bb0565b92915050565b600080600060608486031215612bf357612bf2612905565b5b6000612c0186828701612b5b565b9350506020612c1286828701612b5b565b9250506040612c2386828701612aa6565b9150509250925092565b600080fd5b600080fd5b7f4e487b7100000000000000000000000000000000000000000000000000000000600052604160045260246000fd5b612c6f82612a19565b810181811067ffffffffffffffff82111715612c8e57612c8d612c37565b5b80604052505050565b6000612ca16128fb565b9050612cad8282612c66565b919050565b600067ffffffffffffffff821115612ccd57612ccc612c37565b5b612cd682612a19565b9050602081019050919050565b82818337600083830152505050565b6000612d05612d0084612cb2565b612c97565b905082815260208101848484011115612d2157612d20612c32565b5b612d2c848285612ce3565b509392505050565b600082601f830112612d4957612d48612c2d565b5b8135612d59848260208601612cf2565b91505092915050565b600060208284031215612d7857612d77612905565b5b600082013567ffffffffffffffff811115612d9657612d9561290a565b5b612da284828501612d34565b91505092915050565b600060208284031215612dc157612dc0612905565b5b6000612dcf84828501612b5b565b91505092915050565b600081519050919050565b600082825260208201905092915050565b6000819050602082019050919050565b612e0d81612a85565b82525050565b6000612e1f8383612e04565b60208301905092915050565b6000602082019050919050565b6000612e4382612dd8565b612e4d8185612de3565b9350612e5883612df4565b8060005b83811015612e89578151612e708882612e13565b9750612e7b83612e2b565b925050600181019050612e5c565b5085935050505092915050565b60006020820190508181036000830152612eb08184612e38565b905092915050565b612ec181612994565b8114612ecc57600080fd5b50565b600081359050612ede81612eb8565b92915050565b60008060408385031215612efb57612efa612905565b5b6000612f0985828601612b5b565b9250506020612f1a85828601612ecf565b9150509250929050565b600067ffffffffffffffff821115612f3f57612f3e612c37565b5b612f4882612a19565b9050602081019050919050565b6000612f68612f6384612f24565b612c97565b905082815260208101848484011115612f8457612f83612c32565b5b612f8f848285612ce3565b509392505050565b600082601f830112612fac57612fab612c2d565b5b8135612fbc848260208601612f55565b91505092915050565b60008060008060808587031215612fdf57612fde612905565b5b6000612fed87828801612b5b565b9450506020612ffe87828801612b5b565b935050604061300f87828801612aa6565b925050606085013567ffffffffffffffff8111156130305761302f61290a565b5b61303c87828801612f97565b91505092959194509250565b6000806040838503121561305f5761305e612905565b5b600061306d85828601612b5b565b925050602061307e85828601612b5b565b9150509250929050565b7f4e487b7100000000000000000000000000000000000000000000000000000000600052602260045260246000fd5b600060028204905060018216806130cf57607f821691505b6020821081036130e2576130e1613088565b5b50919050565b7f4552433732313a20617070726f76616c20746f2063757272656e74206f776e6560008201527f7200000000000000000000000000000000000000000000000000000000000000602082015250565b60006131446021836129d5565b915061314f826130e8565b604082019050919050565b6000602082019050818103600083015261317381613137565b9050919050565b7f4552433732313a20617070726f76652063616c6c6572206973206e6f7420746f60008201527f6b656e206f776e6572206f7220617070726f76656420666f7220616c6c000000602082015250565b60006131d6603d836129d5565b91506131e18261317a565b604082019050919050565b60006020820190508181036000830152613205816131c9565b9050919050565b7f4552433732313a2063616c6c6572206973206e6f7420746f6b656e206f776e6560008201527f72206f7220617070726f76656400000000000000000000000000000000000000602082015250565b6000613268602d836129d5565b91506132738261320c565b604082019050919050565b600060208201905081810360008301526132978161325b565b9050919050565b7f455243373231456e756d657261626c653a206f776e657220696e646578206f7560008201527f74206f6620626f756e6473000000000000000000000000000000000000000000602082015250565b60006132fa602b836129d5565b91506133058261329e565b604082019050919050565b60006020820190508181036000830152613329816132ed565b9050919050565b7f5468697320636f6c6c656374696f6e20697320736f6c64206f75742100000000600082015250565b6000613366601c836129d5565b915061337182613330565b602082019050919050565b6000602082019050818103600083015261339581613359565b9050919050565b7f596f75206861766520726563656976656420746865206d6178696d756d20616d60008201527f6f756e74206f66204e46547320616c6c6f7765642e0000000000000000000000602082015250565b60006133f86035836129d5565b91506134038261339c565b604082019050919050565b60006020820190508181036000830152613427816133eb565b9050919050565b7f4e6f7420656e6f75676820657468657220746f207075726368617365204e465460008201527f732e000000000000000000000000000000000000000000000000000000000000602082015250565b600061348a6022836129d5565b91506134958261342e565b604082019050919050565b600060208201905081810360008301526134b98161347d565b9050919050565b7f4e487b7100000000000000000000000000000000000000000000000000000000600052601160045260246000fd5b60006134fa82612a85565b91507fffffffffffffffffffffffffffffffffffffffffffffffffffffffffffffffff820361352c5761352b6134c0565b5b600182019050919050565b7f4e6f206574686572206c65667420746f20776974686472617700000000000000600082015250565b600061356d6019836129d5565b915061357882613537565b602082019050919050565b6000602082019050818103600083015261359c81613560565b9050919050565b600081905092915050565b50565b60006135be6000836135a3565b91506135c9826135ae565b600082019050919050565b60006135df826135b1565b9150819050919050565b7f5472616e73666572206661696c65642e00000000000000000000000000000000600082015250565b600061361f6010836129d5565b915061362a826135e9565b602082019050919050565b6000602082019050818103600083015261364e81613612565b9050919050565b7f455243373231456e756d657261626c653a20676c6f62616c20696e646578206f60008201527f7574206f6620626f756e64730000000000000000000000000000000000000000602082015250565b60006136b1602c836129d5565b91506136bc82613655565b604082019050919050565b600060208201905081810360008301526136e0816136a4565b9050919050565b7f4e487b7100000000000000000000000000000000000000000000000000000000600052603260045260246000fd5b7f4552433732313a20696e76616c696420746f6b656e2049440000000000000000600082015250565b600061374c6018836129d5565b915061375782613716565b602082019050919050565b6000602082019050818103600083015261377b8161373f565b9050919050565b7f4552433732313a2061646472657373207a65726f206973206e6f74206120766160008201527f6c6964206f776e65720000000000000000000000000000000000000000000000602082015250565b60006137de6029836129d5565b91506137e982613782565b604082019050919050565b6000602082019050818103600083015261380d816137d1565b9050919050565b7f4e6f7420656e6f756768204e465473206c65667420746f207265736572766500600082015250565b600061384a601f836129d5565b915061385582613814565b602082019050919050565b600060208201905081810360008301526138798161383d565b9050919050565b600081905092915050565b6000613896826129ca565b6138a08185613880565b93506138b08185602086016129e6565b80840191505092915050565b60006138c8828561388b565b91506138d4828461388b565b91508190509392505050565b7f4f776e61626c653a206e6577206f776e657220697320746865207a65726f206160008201527f6464726573730000000000000000000000000000000000000000000000000000602082015250565b600061393c6026836129d5565b9150613947826138e0565b604082019050919050565b6000602082019050818103600083015261396b8161392f565b9050919050565b7f4552433732313a207472616e736665722066726f6d20696e636f72726563742060008201527f6f776e6572000000000000000000000000000000000000000000000000000000602082015250565b60006139ce6025836129d5565b91506139d982613972565b604082019050919050565b600060208201905081810360008301526139fd816139c1565b9050919050565b7f4552433732313a207472616e7366657220746f20746865207a65726f2061646460008201527f7265737300000000000000000000000000000000000000000000000000000000602082015250565b6000613a606024836129d5565b9150613a6b82613a04565b604082019050919050565b60006020820190508181036000830152613a8f81613a53565b9050919050565b6000613aa182612a85565b9150613aac83612a85565b9250827fffffffffffffffffffffffffffffffffffffffffffffffffffffffffffffffff03821115613ae157613ae06134c0565b5b828201905092915050565b6000613af782612a85565b9150613b0283612a85565b9250817fffffffffffffffffffffffffffffffffffffffffffffffffffffffffffffffff0483118215151615613b3b57613b3a6134c0565b5b828202905092915050565b7f4f776e61626c653a2063616c6c6572206973206e6f7420746865206f776e6572600082015250565b6000613b7c6020836129d5565b9150613b8782613b46565b602082019050919050565b60006020820190508181036000830152613bab81613b6f565b9050919050565b7f4552433732313a20617070726f766520746f2063616c6c657200000000000000600082015250565b6000613be86019836129d5565b9150613bf382613bb2565b602082019050919050565b60006020820190508181036000830152613c1781613bdb565b9050919050565b7f4552433732313a207472616e7366657220746f206e6f6e20455243373231526560008201527f63656976657220696d706c656d656e7465720000000000000000000000000000602082015250565b6000613c7a6032836129d5565b9150613c8582613c1e565b604082019050919050565b60006020820190508181036000830152613ca981613c6d565b9050919050565b7f4e487b7100000000000000000000000000000000000000000000000000000000600052601260045260246000fd5b7f455243373231456e756d657261626c653a20636f6e736563757469766520747260008201527f616e7366657273206e6f7420737570706f727465640000000000000000000000602082015250565b6000613d3b6035836129d5565b9150613d4682613cdf565b604082019050919050565b60006020820190508181036000830152613d6a81613d2e565b9050919050565b600081519050919050565b600082825260208201905092915050565b6000613d9882613d71565b613da28185613d7c565b9350613db28185602086016129e6565b613dbb81612a19565b840191505092915050565b6000608082019050613ddb6000830187612b1a565b613de86020830186612b1a565b613df56040830185612bb0565b8181036060830152613e078184613d8d565b905095945050505050565b600081519050613e218161293b565b92915050565b600060208284031215613e3d57613e3c612905565b5b6000613e4b84828501613e12565b91505092915050565b6000613e5f82612a85565b9150613e6a83612a85565b925082821015613e7d57613e7c6134c0565b5b828203905092915050565b7f4e487b7100000000000000000000000000000000000000000000000000000000600052603160045260246000fd5b7f4552433732313a206d696e7420746f20746865207a65726f2061646472657373600082015250565b6000613eed6020836129d5565b9150613ef882613eb7565b602082019050919050565b60006020820190508181036000830152613f1c81613ee0565b9050919050565b7f4552433732313a20746f6b656e20616c7265616479206d696e74656400000000600082015250565b6000613f59601c836129d5565b9150613f6482613f23565b602082019050919050565b60006020820190508181036000830152613f8881613f4c565b905091905056fea264697066735822122048cc97603f8b6043e4556cb2be73ec493e11f0b0fed3c538df18d7d500d5049664736f6c634300080d0033",
  "immutableReferences": {},
  "source": "//SPDX-License-Identifier: MIT\npragma solidity ^0.8.13;\n\nimport \"@openzeppelin/contracts/utils/Counters.sol\";\nimport \"@openzeppelin/contracts/access/Ownable.sol\";\nimport \"@openzeppelin/contracts/utils/math/SafeMath.sol\";\nimport \"@openzeppelin/contracts/token/ERC721/extensions/ERC721Enumerable.sol\";\n\ncontract NFTCollection is ERC721Enumerable, Ownable {\n    using SafeMath for uint256;\n    using Counters for Counters.Counter;\n\n    Counters.Counter private _tokenIds;\n    // The max number of NFTs in the collection\n    uint public constant MAX_SUPPLY = 10;\n    // The mint price for the collection\n    uint public constant PRICE = 0.00001 ether;\n    // The max number of mints per wallet\n    uint public constant MAX_PER_MINT = 5;\n\n    string public baseTokenURI;\n \n    constructor(string memory baseURI, string memory name, string memory symbol) ERC721(name, symbol) {\n        setBaseURI(baseURI);\n    }\n\n\n    function _baseURI() internal view virtual override returns (string memory) {\n        return baseTokenURI;\n    }\n\n    function setBaseURI(string memory _baseTokenURI) public onlyOwner {\n        baseTokenURI = _baseTokenURI;\n    }\n\n    function mintNFTs(uint _count) public payable {\n        uint totalMinted = _tokenIds.current();\n\n        require(totalMinted.add(_count) <= MAX_SUPPLY, \"This collection is sold out!\");\n        require(_count >0 && _count <= MAX_PER_MINT, \"You have received the maximum amount of NFTs allowed.\");\n        require(msg.value >= PRICE.mul(_count), \"Not enough ether to purchase NFTs.\");\n\n        for (uint i = 0; i < _count; i++) {\n            _mintSingleNFT();\n        }\n    }\n\n    function _mintSingleNFT() private {\n        uint newTokenID = _tokenIds.current();\n        _safeMint(msg.sender, newTokenID);\n        _tokenIds.increment();\n    }\n    \n    // Returns the ids of the NFTs owned by the wallet address\n    function tokensOfOwner(address _owner) external view returns (uint[] memory) {\n        uint tokenCount = balanceOf(_owner);\n        uint[] memory tokensId = new uint256[](tokenCount);\n\n        for (uint i = 0; i < tokenCount; i++) {\n            tokensId[i] = tokenOfOwnerByIndex(_owner, i);\n        }\n        return tokensId;\n    }\n    \n    // Withdraw the ether in the contract\n    function withdraw() public payable onlyOwner {\n        uint balance = address(this).balance;\n        require(balance > 0, \"No ether left to withdraw\");\n\n        (bool success, ) = (msg.sender).call{value: balance}(\"\");\n        require(success, \"Transfer failed.\");\n    }\n\n    // Reserve NFTs only for owner to mint for free\n    function reserveNFTs(uint _count) public onlyOwner {\n        uint totalMinted = _tokenIds.current();\n\n        require(totalMinted.add(_count) < MAX_SUPPLY, \"Not enough NFTs left to reserve\");\n\n        for (uint i = 0; i < _count; i++) {\n            _mintSingleNFT();\n        }\n    }\n}\n\n",
  "sourcePath": "C:\\Vatsal\\DUMBASS_PRODUCTIONS\\MintMart\\contracts\\NFTCollection.sol",
  "compiler": {
    "name": "solc",
    "version": "0.8.13+commit.abaa5c0e.Emscripten.clang"
  },
  "schemaVersion": "3.4.11",
  "updatedAt": "2023-05-05T22:06:27.855Z",
  "networkType": "ethereum",
  "devdoc": {
    "kind": "dev",
    "methods": {
      "approve(address,uint256)": {
        "details": "See {IERC721-approve}."
      },
      "balanceOf(address)": {
        "details": "See {IERC721-balanceOf}."
      },
      "getApproved(uint256)": {
        "details": "See {IERC721-getApproved}."
      },
      "isApprovedForAll(address,address)": {
        "details": "See {IERC721-isApprovedForAll}."
      },
      "name()": {
        "details": "See {IERC721Metadata-name}."
      },
      "owner()": {
        "details": "Returns the address of the current owner."
      },
      "ownerOf(uint256)": {
        "details": "See {IERC721-ownerOf}."
      },
      "renounceOwnership()": {
        "details": "Leaves the contract without owner. It will not be possible to call `onlyOwner` functions anymore. Can only be called by the current owner. NOTE: Renouncing ownership will leave the contract without an owner, thereby removing any functionality that is only available to the owner."
      },
      "safeTransferFrom(address,address,uint256)": {
        "details": "See {IERC721-safeTransferFrom}."
      },
      "safeTransferFrom(address,address,uint256,bytes)": {
        "details": "See {IERC721-safeTransferFrom}."
      },
      "setApprovalForAll(address,bool)": {
        "details": "See {IERC721-setApprovalForAll}."
      },
      "supportsInterface(bytes4)": {
        "details": "See {IERC165-supportsInterface}."
      },
      "symbol()": {
        "details": "See {IERC721Metadata-symbol}."
      },
      "tokenByIndex(uint256)": {
        "details": "See {IERC721Enumerable-tokenByIndex}."
      },
      "tokenOfOwnerByIndex(address,uint256)": {
        "details": "See {IERC721Enumerable-tokenOfOwnerByIndex}."
      },
      "tokenURI(uint256)": {
        "details": "See {IERC721Metadata-tokenURI}."
      },
      "totalSupply()": {
        "details": "See {IERC721Enumerable-totalSupply}."
      },
      "transferFrom(address,address,uint256)": {
        "details": "See {IERC721-transferFrom}."
      },
      "transferOwnership(address)": {
        "details": "Transfers ownership of the contract to a new account (`newOwner`). Can only be called by the current owner."
      }
    },
    "version": 1
  },
  "userdoc": {
    "kind": "user",
    "methods": {},
    "version": 1
  }
}